:020000040000FA
:0400000080313828EB
:040004000034003490
:0800080022000C1523000C1569
:1000100024000C1521000E128E118E1226000030C5
:100020008E000E16210021007030990099172200D1
:1000300022000030A90022000030AA002200003077
:10004000AB0022001E30A50022003230A6002200A4
:100050001E30A30021002100C0309E002100093085
:100060009D0020002000003098002100101408009E
:10007000042022008E168E128E15200020000030E3
:100080009700200000309600200018142000101C5B
:1000900047282000181020001010200020000030F9
:1000A0009700200000309600200018142000101C3B
:1000B00057282000181020001010200020000030C9
:1000C0009700200000309600200018142000101C1B
:1000D0006728200018102000101020002000003099
:1000E0009700200000309600200018142000101CFB
:1000F0007728200018102000101020002000003069
:100100009700200000309600200018142000101CDA
:100110008728200018102000101020002000003038
:100120009700200000309600200018142000101CBA
:100130009728200018102000101020002000003008
:100140009700200000309600200018142000101C9A
:10015000A7282000181020001010200020000030D8
:100160009700200000309600200018142000101C7A
:10017000B7282000181020001010200020000030A8
:100180009700200000309600200018142000101C5A
:10019000C728200018102000101020002000003078
:1001A0009700200000309600200018142000101C3A
:1001B000D728200018102000101020002000003048
:1001C0009700200000309600200018142000101C1A
:1001D000E728200018102000101020002000003018
:1001E0009700200000309600200018142000101CFA
:1001F000F7282000181020001010200020000030E8
:100200009700200000309600200018142000101CD9
:1002100007292000181020001010200020000030B6
:100220009700200000309600200018142000101CB9
:100230001729200018102000101020002000003086
:100240009700200000309600200018142000101C99
:100250002729200018102000101020002000003056
:100260009700200000309600200018142000101C79
:100270003729200018102000101020002000003026
:100280009700200000309600200018142000101C59
:1002900047292000181020001010200020000030F6
:1002A0009700200000309600200018142000101C39
:1002B00057292000181020001010200020000030C6
:1002C0009700200000309600200018142000101C19
:1002D0006729200018102000101020002000003096
:1002E0009700200000309600200018142000101CF9
:1002F0007729200018102000101020002000003066
:100300009700200000309600200018142000101CD8
:100310008729200018102000101020002000003035
:100320009700200000309600200018142000101CB8
:100330009729200018102000101020002000003005
:100340009700200000309600200018142000101C98
:10035000A7292000181020001010200020000030D5
:100360009700200000309600200018142000101C78
:10037000B7292000181020001010200020000030A5
:100380009700200000309600200018142000101C58
:10039000C729200018102000101020002000003075
:1003A0009700200000309600200018142000101C38
:1003B000D729200018102000101020002000003045
:1003C0009700200000309600200018142000101C18
:1003D000E729200018102000101020002000003015
:1003E0009700200000309600200018142000101CF8
:1003F000F7292000181020001010200020000030E5
:100400009700200000309600200018142000101CD7
:10041000072A2000181020001010200020000030B3
:100420009700200000309600200018142000101CB7
:10043000172A200018102000101020002000003083
:100440009700200000309600200018142000101C97
:10045000272A200018102000101020002000003053
:100460009700200000309600200018142000101C77
:10047000372A200018102000101020002000003023
:100480009700200000309600200018142000101C57
:10049000472A2000181020001010200020000030F3
:1004A0009700200000309600200018142000101C37
:1004B000572A2000181020001010200020000030C3
:1004C0009700200000309600200018142000101C17
:1004D000672A20001810200010108E112000200024
:1004E00000309700200000309600200018142000F3
:1004F000101C782A20001810200010102000200066
:1005000000309700200000309600200018142000D2
:10051000101C882A20001810200010102000200035
:1005200000309700200000309600200018142000B2
:10053000101C982A20001810200010102000200005
:100540000030970020000030960020001814200092
:10055000101CA82A200018102000101020002000D5
:100560000030970020000030960020001814200072
:10057000101CB82A200018102000101020002000A5
:100580000030970020000030960020001814200052
:10059000101CC82A20001810200010102000200075
:1005A0000030970020000030960020001814200032
:1005B000101CD82A20001810200010102000200045
:1005C0000030970020000030960020001814200012
:1005D000101CE82A20001810200010102000200015
:1005E00000309700200000309600200018142000F2
:1005F000101CF82A200018102000101020002000E5
:1006000000309700200000309600200018142000D1
:10061000101C082B200018102000101020002000B3
:1006200000309700200000309600200018142000B1
:10063000101C182B20001810200010102000200083
:100640000030970020000030960020001814200091
:10065000101C282B20001810200010102000200053
:100660000030970020000030960020001814200071
:10067000101C382B20001810200010102000200023
:100680000030970020000030960020001814200051
:10069000101C482B200018102000101020002000F3
:1006A0000030970020000030960020001814200031
:1006B000101C582B200018102000101020002000C3
:1006C0000030970020000030960020001814200011
:1006D000101C682B20001810200010102000200093
:1006E00000309700200000309600200018142000F1
:1006F000101C782B20001810200010102000200063
:1007000000309700200000309600200018142000D0
:10071000101C882B20001810200010102000200032
:1007200000309700200000309600200018142000B0
:10073000101C982B20001810200010102000200002
:100740000030970020000030960020001814200090
:10075000101CA82B200018102000101020002000D2
:100760000030970020000030960020001814200070
:10077000101CB82B200018102000101020002000A2
:100780000030970020000030960020001814200050
:10079000101CC82B20001810200010102000200072
:1007A0000030970020000030960020001814200030
:1007B000101CD82B20001810200010102000200042
:1007C0000030970020000030960020001814200010
:1007D000101CE82B20001810200010102000200012
:1007E00000309700200000309600200018142000F0
:1007F000101CF82B200018102000101020002000E2
:1008000000309700200000309600200018142000CF
:10081000101C082C200018102000101020002000B0
:1008200000309700200000309600200018142000AF
:10083000101C182C20001810200010102000200080
:10084000003097002000003096002000181420008F
:10085000101C282C20001810200010102000200050
:10086000003097002000003096002000181420006F
:10087000101C382C20001810200010102000200020
:10088000003097002000003096002000181420004F
:10089000101C482C200018102000101020002000F0
:1008A000003097002000003096002000181420002F
:1008B000101C582C200018102000101020002000C0
:1008C000003097002000003096002000181420000F
:1008D000101C682C20001810200010102000200090
:1008E00000309700200000309600200018142000EF
:1008F000101C782C20001810200010102000200060
:1009000000309700200000309600200018142000CE
:10091000101C882C2000181020001010200020002F
:1009200000309700200000309600200018142000AE
:10093000101C982C200018102000101020002000FF
:10094000003097002000003096002000181420008E
:10095000101CA82C200018102000101020002000CF
:10096000003097002000003096002000181420006E
:10097000101CB82C200018102000101008002200B5
:100980002508A7002608A800A70BC72CCA2CA80B6F
:10099000C72CC22C0800A91FD72C0E16000000007F
:1009A000000000000000000000000E12E02C0E16F7
:1009B000000000000E120000000000000000000017
:1009C000291FEC2C0E1600000000000000000000A3
:1009D000000000000E12F52C0E16000000000E1292
:1009E00000000000000000000000A91E012D0E16EE
:1009F00000000000000000000000000000000E12D7
:100A00000A2D0E16000000000E120000000000006B
:100A100000000000291E162D0E1600000000000028
:100A200000000000000000000E121F2D0E16000036
:100A300000000E1200000000000000000000A91DD0
:100A40002B2D0E160000000000000000000000002A
:100A500000000E12342D0E16000000000E120000D1
:100A60000000000000000000291D402D0E160000AF
:100A70000000000000000000000000000E12492DE0
:100A80000E16000000000E12000000000000000022
:100A90000000A91C552D0E160000000000000000EB
:100AA0000000000000000E125E2D0E160000000077
:100AB0000E1200000000000000000000291C6A2D3A
:100AC0000E16000000000000000000000000000002
:100AD0000E12732D0E16000000000E120000000012
:100AE000000000000000AA1F7F2D0E16000000006D
:100AF000000000000000000000000E12882D0E16FD
:100B0000000000000E1200000000000000000000C5
:100B10002A1F942D0E1600000000000000000000A7
:100B2000000000000E129D2D0E16000000000E1297
:100B300000000000000000000000AA1EA92D0E16F3
:100B400000000000000000000000000000000E1285
:100B5000B22D0E16000000000E1200000000000072
:100B6000000000002A1EBE2D0E160000000000002E
:100B700000000000000000000E12C72D0E1600003D
:100B800000000E1200000000000000000000AA1D7E
:100B9000D32D0E1600000000000000000000000031
:100BA00000000E12DC2D0E16000000000E120000D8
:100BB00000000000000000002A1DE82D0E160000B5
:100BC0000000000000000000000000000E12F12DE7
:100BD0000E16000000000E120000000000000000D1
:100BE0000000AA1CFD2D0E160000000000000000F1
:100BF0000000000000000E12062E0E16000000007D
:100C00000E12000000000000000000002A1C122E3E
:100C10000E160000000000000000000000000000B0
:100C20000E121B2E0E16000000000E120000000017
:100C3000000000000000AB1F272E0E160000000071
:100C4000000000000000000000000E12302E0E1602
:100C5000000000000E120000000000000000000074
:100C60002B1F3C2E0E1600000000000000000000AC
:100C7000000000000E12452E0E16000000000E129D
:100C800000000000000000000000AB1E512E0E16F8
:100C900000000000000000000000000000000E1234
:100CA0005A2E0E16000000000E1200000000000078
:100CB000000000002B1E662E0E1600000000000033
:100CC00000000000000000000E126F2E0E16000043
:100CD00000000E1200000000000000000000AB1D2C
:100CE0007B2E0E1600000000000000000000000037
:100CF00000000E12842E0E16000000000E120000DE
:100D000000000000000000002B1D902E0E160000B9
:100D10000000000000000000000000000E12992EEC
:100D20000E16000000000E1200000000000000007F
:100D30000000AB1CA52E0E160000000000000000F5
:100D40000000000000000E12AE2E0E160000000083
:100D50000E12000000000000000000002B1CBA2E44
:100D60000E1600000000000000000000000000005F
:100D70000E12C32E0E16000000000E12000000001E
:100D800008000310031120000918031522002D1874
:100D90000314AC36AD360318AC170310890BC62EFE
:020DA000080049
:0E0DA200031003112000091803152B0021185F
:100DB0000314A036A1360318A0170310890BD62EF2
:100DC0000800031003112000091803152B00A01BB5
:100DD0000314A035A135031821140310890BE62E46
:020DE000080009
:020000040001F9
:02000E00FC3FB5
:02001000FF3FB0
:020012009F3F0E
:00000001FF
