:020000040000FA
:040000009A31E92A1E
:040008009A31D52A2A
:1030000022008C0120000C1623000C162100210048
:1030100080309E0021000C309D0021001017200000
:10302000FF30A4000130A5002000FF30A6000130D1
:10303000A700A801A90121001D140E30090B1E28AC
:103040009D1408002900151420000230A000023051
:10305000A1002000031103102008FE002108FF003A
:103060002408FE022508031C250AFF027E087F04AF
:10307000031C3B283F282008A4002108A5002000AD
:10308000031103102608FE002708FF002008FE0297
:103090002108031C210AFF027E087F04031C51281B
:1030A00055282008A6002108A700290003110310B5
:1030B000151C5B287A28031103104008FE00410804
:1030C000FF002008FE022108031C210AFF027E08DF
:1030D0007F04031C3E08FE003F08FF002008FE029C
:1030E0002108031C210AFF027E087F04290003181F
:1030F00015149F28031103104008FE004108FF002B
:103100002008FE022108031C210AFF027E087F041A
:10311000031C3E08FE003F08FF002008FE022108B5
:10312000031C210AFF027E087F042900031C9F283C
:1031300015101408A8001308A90093019401200099
:103140001013080008002008A6002108A7000800A6
:043150000034003413
:0C315400220022003C30A200B220A20B9E
:10316000AE280800801FBE280E16000000000000D8
:1031700000000000000000000E12C7280E1600001C
:1031800000000E1200000000000000000000001F00
:10319000D3280E1600000000000000000000000010
:1031A00000000E12DC280E16000000000E120000B7
:1031B0000000000000000000801EE8280E1600003D
:1031C0000000000000000000000000000E12F128C6
:1031D0000E16000000000E120000000000000000AB
:1031E0000000001EFD280E16000000000000000078
:1031F0000000000000000E1206290E16000000005C
:103200000E1200000000000000000000801D1229C6
:103210000E1600000000000000000000000000008A
:103220000E121B290E16000000000E1200000000F6
:10323000000000000000001D27290E1600000000FD
:10324000000000000000000000000E1230290E16E1
:10325000000000000E12000000000000000000004E
:10326000801C3C290E160000000000000000000039
:10327000000000000E1245290E16000000000E127C
:1032800000000000000000000000001C51290E1684
:1032900000000000000000000000000000000E120E
:1032A0005A290E16000000000E1200000000000057
:1032B000000000000131801F67290E160000000089
:1032C000000000000000000000000E1270290E1621
:1032D000000000000E1200000000000000000000CE
:1032E000001F7C290E1600000000000000000000F6
:1032F000000000000E1285290E16000000000E12BC
:1033000000000000000000000000801E91290E1641
:1033100000000000000000000000000000000E128D
:103320009A290E16000000000E1200000000000096
:1033300000000000001EA6290E160000000000007C
:1033400000000000000000000E12AF290E16000061
:1033500000000E1200000000000000000000801DB0
:10336000BB290E1600000000000000000000000055
:1033700000000E12C4290E16000000000E120000FC
:103380000000000000000000001DD0290E16000003
:103390000000000000000000000000000E12D9290B
:1033A0000E16000000000E120000000000000000D9
:1033B0000000801CE5290E1600000000000000003F
:1033C0000000000000000E12EE290E1600000000A2
:1033D0000E1200000000000000000000001CFA298E
:1033E0000E160000000000000000000000000000B9
:1033F0000E12032A0E16000000000E12000000003C
:103400000000000000000131801F102A0E1600008D
:103410000000000000000000000000000E12192A49
:103420000E16000000000E12000000000000000058
:103430000000001F252A0E160000000000000000FA
:103440000000000000000E122E2A0E1600000000E0
:103450000E1200000000000000000000801E3A2A4A
:103460000E16000000000000000000000000000038
:103470000E12432A0E16000000000E12000000007B
:10348000000000000000001E4F2A0E160000000081
:10349000000000000000000000000E12582A0E1666
:1034A000000000000E1200000000000000000000FC
:1034B000801D642A0E1600000000000000000000BD
:1034C000000000000E126D2A0E16000000000E1201
:1034D00000000000000000000000001D792A0E1608
:1034E00000000000000000000000000000000E12BC
:1034F000822A0E16000000000E12000000000000DC
:1035000000000000801C8E2A0E1600000000000043
:1035100000000000000000000E12972A0E160000A6
:1035200000000E1200000000000000000000001C5F
:10353000A32A0E160000000000000000000000009A
:1035400000000E12AC2A0E16000000000E12000041
:0C35500000000000000000000131080035
:04355C002100210029
:10356000F830990020008E0121000E1226008E01F5
:1035700028000E1620009801990121001014200047
:103580000B17220022008030A70022000030A80084
:1035900022000030A90022001E30A3002200323099
:1035A000A40022000A30A10008002000181020000A
:1035B0009701960122000E122000101020002030EA
:1035C00085002000F03084009831AA202200AC163B
:1035D00009009A31AE229831002098312220220031
:1035E00022000130A10022003C30A0002000203049
:1035F00085002000F0308400200018149831A220AB
:0E3600002200AC17AC1E022BAC13AC12F62A43
:020000040001F9
:02000E00FC37BD
:02001000FF3FB0
:020012009F3F0E
:00000001FF
