:020000040000FA
:040000008531FD2D1C
:040004000034003490
:040008008531BE2D53
:04000C0022008C0141
:1000100020000C1623000C1621002100C0309E0089
:1000200021000C309D00210010172000FF30AB0094
:100030000130AC002000FF30AD000130AE00AF0158
:10004000B001FF30B1000130B2003F30B1070030E5
:1000500003180130B207FF30B3000130B4003F3065
:10006000B3020030031C0130B40220002000C8306D
:10007000A800200020000530B50020000630B600A2
:100080000030B7002030B8000030B9004030BA006E
:100090000030BB00E030BC00200020000530BD0077
:1000A00020000530BE000030BF002030C00000300E
:1000B000C1004030C2000030C3006030C4000030D6
:1000C000C5008030C600200020000530C700003089
:1000D000C8006030C9000030CA008030CB00210069
:1000E0001D140E30090B72289D14080021002100F8
:1000F0001C082000A300210021001B082000A400F0
:100100000310200023082000FE0020002408200007
:10011000FF00200025082000FE0220002608031C06
:10012000260A2000FF027E087F04031CA71527185B
:100130002715270803110C390C3C031DA02827168E
:100140002900031103108310151CA728DC282000A8
:10015000031103108310200033082000FE0020004C
:1001600034082000FF00200023082000FE022000A9
:100170002408031C240A2000FF027E087F040318C1
:10018000C228C4280310D828200031082000FE000F
:10019000200032082000FF00200023082000FE027B
:1001A00020002408031C240A2000FF027E087F048C
:1001B00029000318151421292000031103108310AE
:1001C000200033082000FE00200034082000FF003B
:1001D000200023082000FE0220002408031C240A1B
:1001E0002000FF027E087F040318F728F928031077
:1001F0000D29200031082000FE00200032082000D8
:10020000FF00200023082000FE0220002408031C19
:10021000240A2000FF027E087F04271E21292900CE
:10022000031C21291510290014082000B000290002
:1002300013082000AF009301940120002711A7119B
:10024000271220001013200023082000A500200002
:1002500024082000A60003112000A8030319A716F4
:1002600021001D140E30090B33299D1408002000B5
:10027000A71E382920000B132000C830A80020003A
:100280000030AF003030B0008131492120000B1721
:1002900008000310200020002F082000FE0020008E
:1002A00030082000FF0020003F082000FE02200050
:1002B0004008031C400A2000FF027E087F04031C44
:1002C00062296729220022000030A000152A0310AD
:1002D000200020002F082000FE0020003008200011
:1002E000FF00200041082000FE0220004208031CFD
:1002F000420A2000FF027E087F040318AB29200079
:100300002F082000A100200030082000A2002000BB
:100310003F082000A10220004008031C400A2000E2
:10032000A202200021082B00A000200022082B00A0
:10033000A10020003D08863117262B002008200050
:10034000A1002B0021082000A2002200200021088B
:100350002200A000152A0310200020002F082000F2
:10036000FE00200030082000FF002000430820008D
:10037000FE0220004408031C440A2000FF027E08FD
:100380007F040318C82922002200FF30A000152A8C
:100390000310200020002F082000FE00200030085D
:1003A0002000FF00200041082000FE02200042083B
:1003B000031C420A2000FF027E087F040318112A52
:1003C00020002F082000A100200030082000A200FB
:1003D00020003F082000A10220004008031C400A22
:1003E0002000A202200021082B00A00020002208EB
:1003F0002B00A10020003E08863117262B00200884
:100400002000A1002B0021082000A2002000FF30C6
:10041000A0002108A0022200200020082200A00045
:10042000152A220022000030A00003102000200026
:100430002F082000FE00200030082000FF002000D0
:1004400037082000FE0220003808031C380A20006C
:10045000FF027E087F04031C2E2A332A220022007A
:10046000FF30A100C62A0310200020002F08200022
:10047000FE00200030082000FF0020003908200086
:10048000FE0220003A08031C3A0A2000FF027E0800
:100490007F0403187C2A20002F082000A1002000E0
:1004A00030082000A200200037082000A102200010
:1004B0003808031C380A2000A202200021082B0063
:1004C000A000200022082B00A10020003508863162
:1004D00017262B0020082000A1002B002108200057
:1004E000A2002000FF30A0002108A002220020006E
:1004F00020082200A100C62A0310200020002F0897
:100500002000FE00200030082000FF0020003B08F3
:100510002000FE0220003C08031C3C0A2000FF02D1
:100520007E087F040318992A220022000030A100CF
:10053000C62A0310200020002F082000A100200060
:1005400030082000A20020003B082000A10220006B
:100550003C08031C3C0A2000A202200021082B00BA
:10056000A000200022082B00A100200036088631C0
:1005700017262B0020082000A1002B0021082000B6
:10058000A2002200200021082200A1000310200068
:1005900020002F082000FE00200030082000FF006F
:1005A000200048082000FE0220004908031C490AD8
:1005B0002000FF027E087F04031CDF2AE42A2200B9
:1005C00022000030A20008000310200020002F08A5
:1005D0002000FE00200030082000FF0020004A0814
:1005E0002000FE0220004B08031C4B0A2000FF02E3
:1005F0007E087F040318282B20002F082000A1006C
:10060000200030082000A200200048082000A1029D
:1006100020004908031C490A2000A20220002108EA
:100620002B00A000200022082B00A100200047087A
:10063000863117262B0020082000A1002B0021085E
:100640002000A2002200200021082200A2000800B1
:0C065000031022002200FF30A20008006E
:04065C002200220056
:100660003C30A500220039232E183D31A50B322B3A
:100670000800801F492B0E1600000000000000003B
:1006800000000000000000000000000000000E124A
:10069000522B0E16000000000E1200000000000099
:1006A00000000000001F622B0E160000000000007A
:1006B000000000000000000000000000000000003A
:1006C0000E126B2B0E16000000000E120000000030
:1006D000000000000000801E7B2B0E1600000000B2
:1006E000000000000000000000000000000000000A
:1006F00000000E12842B0E16000000000E120000E7
:100700000000000000000000001E942B0E160000E8
:1007100000000000000000000000000000000000D9
:10072000000000000E129D2B0E16000000000E129D
:1007300000000000000000000000801DAD2B0E1620
:1007400000000000000000000000000000000000A9
:100750000000000000000E12B62B0E160000000074
:100760000E1200000000000000000000001DC62B5B
:100770000E16000000000000000000000000000055
:1007800000000000000000000E12CF2B0E1600002B
:1007900000000E1200000000000000000000801C9D
:1007A000DF2B0E160000000000000000000000001B
:1007B000000000000000000000000E12E82B0E16E2
:1007C000000000000E120000000000000000000009
:1007D000001CF82B0E1600000000000000000000B6
:1007E0000000000000000000000000000E12012CBC
:1007F0000E16000000000E120000000000000000B5
:1008000000000131801F122C0E16000000000000B5
:1008100000000000000000000000000000000000D8
:100820000E121B2C0E16000000000E12000000001D
:10083000000000000000001F2B2C0E16000000001E
:1008400000000000000000000000000000000000A8
:1008500000000E12342C0E16000000000E120000D4
:100860000000000000000000801E442C0E16000056
:100870000000000000000000000000000000000078
:10088000000000000E124D2C0E16000000000E128B
:1008900000000000000000000000001E5D2C0E168D
:1008A0000000000000000000000000000000000048
:1008B0000000000000000E12662C0E160000000062
:1008C0000E1200000000000000000000801D762CC9
:1008D0000E160000000000000000000000000000F4
:1008E00000000000000000000E127F2C0E16000019
:1008F00000000E1200000000000000000000001DBB
:100900008F2C0E1600000000000000000000000008
:10091000000000000000000000000E12982C0E16CF
:10092000000000000E1200000000000000000000A7
:10093000801CA82C0E160000000000000000000023
:100940000000000000000000000000000E12B12CAA
:100950000E16000000000E12000000000000000053
:100960000000001CC12C0E1600000000000000005A
:1009700000000000000000000000000000000E1257
:10098000CA2C0E16000000000E120000000000002D
:10099000000000000131801FDB2C0E16000000005B
:1009A0000000000000000000000000000000000047
:1009B00000000E12E42C0E16000000000E120000C3
:1009C0000000000000000000001FF42C0E160000C4
:1009D0000000000000000000000000000000000017
:1009E000000000000E12FD2C0E16000000000E127A
:1009F00000000000000000000000801E0D2D0E16FB
:100A000000000000000000000000000000000000E6
:100A10000000000000000E12162D0E16000000004F
:100A20000E1200000000000000000000001E262D35
:100A30000E16000000000000000000000000000092
:100A400000000000000000000E122F2D0E16000006
:100A500000000E1200000000000000000000801DD9
:100A60003F2D0E16000000000000000000000000F6
:100A7000000000000000000000000E12482D0E16BD
:100A8000000000000E120000000000000000000046
:100A9000001D582D0E160000000000000000000090
:100AA0000000000000000000000000000E12612D98
:100AB0000E16000000000E120000000000000000F2
:100AC0000000801C712D0E160000000000000000C8
:100AD00000000000000000000000000000000E12F6
:100AE0007A2D0E16000000000E120000000000001B
:100AF00000000000001C8A2D0E16000000000000FF
:100B000000000000000000000000000000000000E5
:100B10000E12932D0E16000000000E1200000000B1
:0A0B20000000000000000131080091
:060B2A0021002100F8305B
:100B3000990020008E0121000E1226008E0128004F
:100B40000E16200098019901200020000030960028
:100B50002000003097002100101420000B17220005
:100B600022000030A00022000030A100220000304E
:100B7000A200220022000130AE0008002000101C5C
:100B8000C22DC52D8031762009002200AE18D82D47
:100B9000AF1BD82D20001810200020000030960038
:100BA00020000030970022000E12200010100900D3
:100BB00020000B13200018102000200000309600A9
:100BC00020000030970022000E122000101022009A
:100BD0002E1CEB2DF22D2000203085002000F0305F
:100BE0008400F82D2000203085002000A0308400F3
:100BF00083312E232200AF160900853195258031DF
:100C0000062020008B17220022000130A4002200C1
:100C10003C30A30020001814813137212200AF1787
:0E0C2000AF1E102E20000B17AF13AF120A2EBE
:020C2E000310B1
:100C300003112000091803152B0021180314A036F6
:100C4000A1360318A0170310890B1C2E08000310EF
:100C500003112000091803152B00A01B0314A03555
:0E0C6000A135031821140310890B2C2E080057
:020000040001F9
:02000E00FC3FB5
:02001000FF1FD0
:020012009F3F0E
:00000001FF
