:020000040000FA
:040000008431ED2C2E
:040004000034003490
:040008008431D92C3A
:04000C0022008C0141
:1000100020000C1623000C162100210080309E00C9
:1000200021000C309D00210010172000FF30A70098
:100030000130A8002000FF30A9000130AA00AB0168
:10004000AC01FF30AD000130AE003F30AD070030F5
:1000500003180130AE07FF30AF000130B0003F3071
:10006000AF020030031C0130B00221001D140E301D
:10007000090B38289D1420005730A300D930A40064
:10008000200020000430B10020000530B200003014
:10009000B3003030B4000030B5004030B60000305E
:1000A000B700C030B800012108002000FF30A300D5
:1000B0000130A40020000311031083102000230846
:1000C0002000FE00200024082000FF002708FE0278
:1000D0002808031C280AFF027E087F04031C7128DD
:1000E0007928200023082000A700200024082000F1
:1000F000A80020000311031083102000290820000D
:10010000FE0020002A082000FF002308FE02240829
:10011000031C240AFF027E087F04031C90289828F1
:10012000200023082000A900200024082000AA00A5
:100130002900031103108310151C9F28C9282000D3
:1001400003110310831020002F082000FE00200060
:1001500030082000FF002308FE022408031C240AA4
:10016000FF027E087F040318BA2820002D08200013
:10017000FE0020002E082000FF002308FE022408B5
:10018000031C240AFF027E087F04290003181514AB
:10019000FD28200003110310831020002F082000E9
:1001A000FE00200030082000FF002308FE02240883
:1001B000031C240AFF027E087F040318E4282000A1
:1001C0002D082000FE0020002E082000FF0023083C
:1001D000FE022408031C240AFF027E087F04290073
:1001E000031CFD281510290014082000AB0029006D
:1001F00013082000AC0093019401200010130800A4
:10020000080003102000200023082000FE0020002A
:1002100024082000FF003B08FE023C08031C3C0AA7
:10022000FF027E087F04031C16291B2922002200DE
:100230000030A700B529031020002000230820006B
:10024000FE00200024082000FF003D08FE023E08BA
:10025000031C3E0AFF027E087F0403185729200072
:1002600023082000A100200024082000A2003F084D
:10027000A1024008031C400AA202200021082B0012
:10028000A000200022082B00A100200039088531A1
:100290000B252B0020082000A1002B0021082000A6
:1002A000A2002200200021082200A700B529031087
:1002B0002000200023082000FE0020002408200049
:1002C000FF003F08FE024008031C400AFF027E08B0
:1002D0007F040318702922002200FF30A700B529EF
:1002E00003102000200023082000FE002000240826
:1002F0002000FF003D08FE023E08031C3E0AFF02EC
:100300007E087F040318B129200023082000A100E3
:10031000200024082000A2003B08A1023C08031C86
:100320003C0AA202200021082B00A0002000220885
:100330002B00A10020003A0885310B252B00200856
:100340002000A1002B0021082000A2002000FF3087
:10035000A0002108A0022200200020082200A700FF
:10036000B529220022000030A70003102000200041
:1003700023082000FE00200024082000FF0033088E
:10038000FE023408031C340AFF027E087F04031CAB
:10039000CA29CF2922002200FF30A800522A0310C8
:1003A0002000200023082000FE0020002408200058
:1003B000FF003508FE023608031C360AFF027E08DD
:1003C0007F040318102A200023082000A100200029
:1003D00024082000A2003308A1023408031C340AB8
:1003E000A202200021082B00A000200022082B00E0
:1003F000A1002000310885310B252B0020082000AA
:10040000A1002B0021082000A2002000FF30A00046
:100410002108A0022200200020082200A800522A61
:1004200003102000200023082000FE0020002408E4
:100430002000FF003708FE023808031C380AFF02BC
:100440007E087F040318292A220022000030A80019
:10045000522A03102000200023082000A1002000C1
:1004600024082000A2003708A1023808031C380A1B
:10047000A202200021082B00A000200022082B004F
:10048000A1002000320885310B252B002008200018
:10049000A1002B0021082000A2002200200021083A
:1004A0002200A80003102000200023082000FE00E6
:1004B000200024082000FF004408FE024508031C19
:1004C000450AFF027E087F04031C672A6C2A22006B
:1004D00022000030A700080003102000200023089D
:1004E0002000FE00200024082000FF004608FE0235
:1004F0004708031C470AFF027E087F040318A82A46
:10050000200023082000A100200024082000A200D1
:100510004408A1024508031C450AA2022000210844
:100520002B00A000200022082B00A100200043087F
:1005300085310B252B0020082000A1002B0021086D
:100540002000A2002200200021082200A7000800AD
:0C055000031022002200FF30A70008006A
:04055C002200220057
:100560003C30A200B622A20BB22A0800801FC22A89
:100570000E16000000000000000000000000000057
:100580000E12CB2A0E16000000000E120000000012
:10059000000000000000001FD72A0E160000000017
:1005A000000000000000000000000E12E02A0E16FD
:1005B000000000000E12000000000000000000001B
:1005C000801EEC2A0E160000000000000000000053
:1005D000000000000E12F52A0E16000000000E1298
:1005E00000000000000000000000001E012B0E169D
:1005F00000000000000000000000000000000E12DB
:100600000A2B0E16000000000E1200000000000071
:1006100000000000801D162B0E16000000000000D8
:1006200000000000000000000E121F2B0E1600003C
:1006300000000E1200000000000000000000001D7D
:100640002B2B0E1600000000000000000000000030
:1006500000000E12342B0E16000000000E120000D7
:100660000000000000000000801C402B0E1600005F
:100670000000000000000000000000000E12492BE6
:100680000E16000000000E12000000000000000026
:100690000000001C552B0E1600000000000000009A
:1006A0000000000000000E125E2B0E16000000007D
:1006B0000E12000000000000000000000131801F49
:1006C0006B2B0E1600000000000000000000000070
:1006D00000000E12742B0E16000000000E12000017
:1006E0000000000000000000001F802B0E1600001C
:1006F0000000000000000000000000000E12892B26
:100700000E16000000000E120000000000000000A5
:100710000000801E952B0E16000000000000000057
:100720000000000000000E129E2B0E1600000000BC
:100730000E1200000000000000000000001EAA2BA6
:100740000E16000000000000000000000000000085
:100750000E12B32B0E16000000000E120000000057
:10076000000000000000801DBF2B0E1600000000DE
:10077000000000000000000000000E12C82B0E1642
:10078000000000000E120000000000000000000049
:10079000001DD42B0E160000000000000000000019
:1007A000000000000E12DD2B0E16000000000E12DD
:1007B00000000000000000000000801CE92B0E1665
:1007C00000000000000000000000000000000E1209
:1007D000F22B0E16000000000E12000000000000B8
:1007E00000000000001CFE2B0E16000000000000A0
:1007F00000000000000000000E12072C0E16000082
:1008000000000E1200000000000000000000013196
:10081000801F142C0E1600000000000000000000D5
:10082000000000000E121D2C0E16000000000E121B
:1008300000000000000000000000001F292C0E1620
:1008400000000000000000000000000000000E1288
:10085000322C0E16000000000E12000000000000F6
:1008600000000000801E3E2C0E160000000000005C
:1008700000000000000000000E12472C0E160000C1
:1008800000000E1200000000000000000000001E2A
:10089000532C0E16000000000000000000000000B5
:1008A00000000E125C2C0E16000000000E1200005C
:1008B0000000000000000000801D682C0E160000E3
:1008C0000000000000000000000000000E12712C6B
:1008D0000E16000000000E120000000000000000D4
:1008E0000000001D7D2C0E1600000000000000001E
:1008F0000000000000000E12862C0E160000000002
:100900000E1200000000000000000000801C922C6D
:100910000E160000000000000000000000000000B3
:100920000E129B2C0E16000000000E12000000009C
:10093000000000000000001CA72C0E1600000000A4
:10094000000000000000000000000E12B02C0E1687
:10095000000000000E120000000000000000000077
:040960000131080059
:0C09640021002100F830990020008E01D5
:1009700021000E1226008E0128000E16200098017C
:1009800099012100101420000B1722002200803052
:10099000A70022000030A80022000030A900220099
:1009A0001E30A30022003230A40022000A30A10031
:1009B00008002000181020009701960122000E1256
:1009C000200010102000203085002000F03084002E
:1009D0008231AE222200AF1609008431B224803168
:1009E000062080315520220022000130A100220083
:1009F0003C30A0002000203085002000F030840032
:100A000020001814813100212200AF17AF1E062DDF
:060A1000AF13AF12FA2C37
:0A0A16000310031120000918031556
:100A20002B0021180314A036A1360318A0170310B9
:100A3000890B102D0800031003112000091803155D
:100A40002B00A01B0314A035A1350318211403109B
:060A5000890B202D0800B7
:020000040001F9
:02000E00FC37BD
:02001000FF3FB0
:020012009F3F0E
:00000001FF
