:020000040000FA
:0400000086312B2EEC
:040004000034003490
:040008008531FF2D12
:04000C0022008C0141
:1000100020000C1623000C162100210080309E00C9
:1000200021000C309D00210010172000FF30AB0094
:100030000130AC002000FF30AD000130AE00AF0158
:10004000B001FF30B1000130B2003F30B1070030E5
:1000500003180130B207FF30B3000130B4003F3065
:10006000B3020030031C0130B40220002000013034
:10007000A800200020000430B50020000530B600A4
:100080000030B7002030B8000030B9004030BA006E
:100090000030BB00E030BC00200020000430BD0078
:1000A00020000430BE000030BF002030C00000300F
:1000B000C1004030C2000030C3006030C4000030D6
:1000C000C5008030C600200020000430C70000308A
:1000D000C8006030C9000030CA008030CB00210069
:1000E0001D140E30090B72289D14080021002100F8
:1000F0001C082000A300210021001B082000A400F0
:100100002000031103108310200023082000FE00AC
:10011000200024082000FF0020002B082000FE0201
:1001200020002C08031C2C0A2000FF027E087F04FC
:10013000031C9B28A528200023082000AB002000DA
:1001400024082000AC002000271420000311031015
:10015000831020002D082000FE0020002E08200023
:10016000FF00200023082000FE0220002408031CBA
:10017000240A2000FF027E087F04031CC028CA282E
:10018000200023082000AD00200024082000AE003D
:100190002000A7140310200023082000FE002000E8
:1001A00024082000FF00200025082000FE02200077
:1001B0002608031C260A2000FF027E087F04031C79
:1001C000A71527182715270803110C390C3C031D08
:1001D000EA2827162900031103108310151CF128A3
:1001E000262920000311031083102000330820006B
:1001F000FE00200034082000FF002000230820001B
:10020000FE0220002408031C240A2000FF027E08AE
:100210007F0403180C290E2903102229200031081D
:100220002000FE00200032082000FF0020002308EC
:100230002000FE0220002408031C240A2000FF02E4
:100240007E087F042900031815146B292000031170
:1002500003108310200033082000FE002000340823
:100260002000FF00200023082000FE0220002408B8
:10027000031C240A2000FF027E087F040318412982
:10028000432903105729200031082000FE002000D8
:1002900032082000FF00200023082000FE0220007A
:1002A0002408031C240A2000FF027E087F04271E66
:1002B0006B292900031C6B29151029001408200044
:1002C000B000290013082000AF0093019401200022
:1002D0002711A71127122000101320002308200047
:1002E000A500200024082000A60003112000A80378
:1002F0000319A71621001D140E30090B7D299D142A
:1003000008002000A71E822920000130A8008131AA
:100310008A2108000310200020002F082000FE0082
:10032000200030082000FF0020003F082000FE02CF
:1003300020004008031C400A2000FF027E087F04C2
:10034000031CA329A829220022000030A000562A5D
:100350000310200020002F082000FE00200030089D
:100360002000FF00200041082000FE02200042087B
:10037000031C420A2000FF027E087F040318EC29B8
:1003800020002F082000A100200030082000A2003B
:10039000200043082000A10220004408031C440A56
:1003A0002000A202200021082B00A000200022082B
:1003B0002B00A10020003D0886314B262B00200891
:1003C0002000A1002B0021082000A2002200200014
:1003D00021082200A000562A0310200020002F0828
:1003E0002000FE00200030082000FF00200043080D
:1003F0002000FE0220004408031C440A2000FF02E3
:100400007E087F040318092A22002200FF30A00082
:10041000562A0310200020002F082000FE00200094
:1004200030082000FF00200041082000FE022000CC
:100430004208031C420A2000FF027E087F040318C2
:10044000522A20002F082000A100200030082000A0
:10045000A20020003F082000A10220004008031C49
:10046000400A2000A202200021082B00A00020004A
:1004700022082B00A10020003E0886314B262B00CD
:1004800020082000A1002B0021082000A20020004D
:10049000FF30A0002108A002220020002008220036
:1004A000A000562A220022000030A00003102000E5
:1004B00020002F082000FE00200030082000FF0050
:1004C000200037082000FE0220003808031C380AEC
:1004D0002000FF027E087F04031C6F2A742A22007A
:1004E0002200FF30A100072B0310200020002F085E
:1004F0002000FE00200030082000FF002000390806
:100500002000FE0220003A08031C3A0A2000FF02E5
:100510007E087F040318BD2A20002F082000A100B8
:10052000200030082000A200200037082000A1028F
:1005300020003808031C380A2000A20220002108ED
:100540002B00A000200022082B00A100200035086D
:1005500086314B262B0020082000A1002B0021080B
:100560002000A2002000FF30A0002108A0022200ED
:10057000200020082200A100072B031020002000EB
:100580002F082000FE00200030082000FF0020007F
:100590003B082000FE0220003C08031C3C0A20000F
:1005A000FF027E087F040318DA2A220022000030AE
:1005B000A100072B0310200020002F082000A1001D
:1005C000200030082000A20020003B082000A102EB
:1005D00020003C08031C3C0A2000A2022000210845
:1005E0002B00A000200022082B00A10020003608CC
:1005F00086314B262B0020082000A1002B0021086B
:100600002000A2002200200021082200A1000310E7
:10061000200020002F082000FE00200030082000CD
:10062000FF00200048082000FE0220004908031CAB
:10063000490A2000FF027E087F04031C202B252B83
:10064000220022000030A00008000310200020003B
:100650002F082000FE00200030082000FF002000AE
:100660004A082000FE0220004B08031C4B0A200011
:10067000FF027E087F040318692B20002F0820004A
:10068000A100200030082000A2002000480820001F
:10069000A10220004908031C490A2000A2022000F0
:1006A00021082B00A000200022082B00A100200020
:1006B000470886314B262B0020082000A1002B0084
:1006C00021082000A2002200200021082200A00012
:0E06D0000800031022002200FF30A0000800E6
:0206DE002200F8
:1006E00022003C30A50022007A232E183D31A50BB4
:1006F000732B0800801F8A2B0E16000000000000DC
:1007000000000000000000000000000000000000E9
:100710000E12932B0E16000000000E1200000000B7
:10072000000000000000001FA32B0E1600000000B8
:1007300000000000000000000000000000000000B9
:1007400000000E12AC2B0E16000000000E1200006E
:100750000000000000000000801EBC2B0E160000F0
:100760000000000000000000000000000000000089
:10077000000000000E12C52B0E16000000000E1225
:1007800000000000000000000000001ED52B0E1627
:100790000000000000000000000000000000000059
:1007A0000000000000000E12DE2B0E1600000000FC
:1007B0000E1200000000000000000000801DEE2B63
:1007C0000E16000000000000000000000000000005
:1007D00000000000000000000E12F72B0E160000B3
:1007E00000000E1200000000000000000000001DCC
:1007F000072C0E16000000000000000000000000A2
:10080000000000000000000000000E12102C0E1668
:10081000000000000E1200000000000000000000B8
:10082000801C202C0E1600000000000000000000BC
:100830000000000000000000000000000E12292C43
:100840000E16000000000E12000000000000000064
:100850000000001C392C0E160000000000000000F3
:1008600000000000000000000000000000000E1268
:10087000422C0E16000000000E12000000000000C6
:10088000000000000131801F532C0E1600000000F4
:100890000000000000000000000000000000000058
:1008A00000000E125C2C0E16000000000E1200005C
:1008B0000000000000000000001F6C2C0E1600005D
:1008C0000000000000000000000000000000000028
:1008D000000000000E12752C0E16000000000E1213
:1008E00000000000000000000000801E852C0E1695
:1008F00000000000000000000000000000000000F8
:100900000000000000000E128E2C0E1600000000E9
:100910000E1200000000000000000000001E9E2CCF
:100920000E160000000000000000000000000000A3
:1009300000000000000000000E12A72C0E160000A0
:1009400000000E1200000000000000000000801DEA
:10095000B72C0E1600000000000000000000000090
:10096000000000000000000000000E12C02C0E1657
:10097000000000000E120000000000000000000057
:10098000001DD02C0E16000000000000000000002A
:100990000000000000000000000000000E12D92C32
:1009A0000E16000000000E12000000000000000003
:1009B0000000801CE92C0E16000000000000000062
:1009C00000000000000000000000000000000E1207
:1009D000F22C0E16000000000E12000000000000B5
:1009E00000000000001C022D0E1600000000000098
:1009F00000000000000000000000000000000000F7
:100A00000E120B2D0E16000000000E12000000004A
:100A10000000000000000131801F1C2D0E16000098
:100A200000000000000000000000000000000000C6
:100A3000000000000E12252D0E16000000000E1200
:100A400000000000000000000000001F352D0E1601
:100A50000000000000000000000000000000000096
:100A60000000000000000E123E2D0E1600000000D7
:100A70000E1200000000000000000000801E4E2D3D
:100A80000E16000000000000000000000000000042
:100A900000000000000000000E12572D0E1600008E
:100AA00000000E1200000000000000000000001E08
:100AB000672D0E160000000000000000000000007E
:100AC000000000000000000000000E12702D0E1645
:100AD000000000000E1200000000000000000000F6
:100AE000801D802D0E160000000000000000000098
:100AF0000000000000000000000000000E12892D20
:100B00000E16000000000E120000000000000000A1
:100B10000000001D992D0E160000000000000000CE
:100B200000000000000000000000000000000E12A5
:100B3000A22D0E16000000000E12000000000000A2
:100B400000000000801CB22D0E1600000000000006
:100B50000000000000000000000000000000000095
:100B60000E12BB2D0E16000000000E120000000039
:100B7000000000000000001CCB2D0E16000000003D
:100B80000000000000000000000000000000000065
:100B900000000E12D42D0E16000000000E120000F0
:0C0BA0000000000000000000013108000F
:040BAC002100210003
:100BB000F830990020008E0121000E1226008E01CF
:100BC00028000E1620009801990120002000003016
:100BD00096002000003097002100101420000B1711
:100BE000220022000030A00022000030A1002200DC
:100BF0000030A200220022000330AE0008002000D6
:100C0000101C032E062E80317620090020008B1345
:100C10002000181020002000003096002000003036
:100C2000970022000E122000101022002E1C192EF8
:100C3000202E2000203085002000F0308400262E59
:100C40002000203085002000A030840083316F23F5
:100C50002200AF1609008531D625803106202000FC
:100C60008B17220022000130A40022003C30A30098
:100C70002000203085002000F0308400200018146F
:100C8000813181212200AF17AF1E442E20008B1727
:060C9000AF13AF12382E75
:0A0C960003100311200009180315D4
:100CA0002B0021180314A036A1360318A017031037
:100CB000890B502E0800031003112000091803159A
:100CC0002B00A01B0314A035A13503182114031019
:060CD000890B602E0800F4
:020000040001F9
:02000E00FC37BD
:02001000FF3FB0
:020012009F3F0E
:00000001FF
