:020000040000FA
:040000009A31552AB2
:040008009A313D2AC2
:1030000022008C0120000C1623000C162100210048
:0E30100080309E002100101708000800080004
:02301E0000347C
:0230200000347A
:0E302200220022003C30A2001920A20B15282B
:103030000800801F25280E16000000000000000078
:103040000000000000000E122E280E1600000000E6
:103050000E1200000000000000000000001F3A28CF
:103060000E1600000000000000000000000000003C
:103070000E1243280E16000000000E120000000081
:10308000000000000000801E4F280E160000000007
:10309000000000000000000000000E1258280E166C
:1030A000000000000E120000000000000000000000
:1030B000001E64280E160000000000000000000042
:1030C000000000000E126D280E16000000000E1207
:1030D00000000000000000000000801D79280E168E
:1030E00000000000000000000000000000000E12C0
:1030F00082280E16000000000E12000000000000E2
:1031000000000000001D8E280E16000000000000C8
:1031100000000000000000000E1297280E160000AC
:1031200000000E1200000000000000000000801CE3
:10313000A3280E16000000000000000000000000A0
:1031400000000E12AC280E16000000000E12000047
:103150000000000000000000001CB8280E1600004F
:103160000000000000000000000000000E12C12856
:103170000E16000000000E1200000000000000000B
:1031800000000131801FCE280E1600000000000054
:1031900000000000000000000E12D7280E160000EC
:1031A00000000E1200000000000000000000001FE0
:1031B000E3280E16000000000000000000000000E0
:1031C00000000E12EC280E16000000000E12000087
:1031D0000000000000000000801EF8280E1600000D
:1031E0000000000000000000000000000E12012995
:1031F0000E16000000000E1200000000000000008B
:103200000000001E0D290E16000000000000000046
:103210000000000000000E1216290E16000000002B
:103220000E1200000000000000000000801D222996
:103230000E1600000000000000000000000000006A
:103240000E122B290E16000000000E1200000000C6
:10325000000000000000001D37290E1600000000CD
:10326000000000000000000000000E1240290E16B1
:10327000000000000E12000000000000000000002E
:10328000801C4C290E160000000000000000000009
:10329000000000000E1255290E16000000000E124C
:1032A00000000000000000000000001C61290E1654
:1032B00000000000000000000000000000000E12EE
:1032C0006A290E16000000000E1200000000000027
:1032D000000000000131801F77290E160000000059
:1032E000000000000000000000000E1280290E16F1
:1032F000000000000E1200000000000000000000AE
:10330000001F8C290E1600000000000000000000C5
:10331000000000000E1295290E16000000000E128B
:1033200000000000000000000000801EA1290E1611
:1033300000000000000000000000000000000E126D
:10334000AA290E16000000000E1200000000000066
:1033500000000000001EB6290E160000000000004C
:1033600000000000000000000E12BF290E16000031
:1033700000000E1200000000000000000000801D90
:10338000CB290E1600000000000000000000000025
:1033900000000E12D4290E16000000000E120000CC
:1033A0000000000000000000001DE0290E160000D3
:1033B0000000000000000000000000000E12E929DB
:1033C0000E16000000000E120000000000000000B9
:1033D0000000801CF5290E1600000000000000000F
:1033E0000000000000000E12FE290E160000000072
:1033F0000E1200000000000000000000001C0A2A5D
:103400000E16000000000000000000000000000098
:103410000E12132A0E16000000000E12000000000B
:0A3420000000000000000131080068
:06342A0021002100F83032
:10343000990020008E0121000E1226008E01280026
:103440000E162000980199012100101420000B177E
:103450008B17220022008030A70022000030A80035
:1034600022000030A90022001E30A30022003230CA
:10347000A40022000A30A10008002000101C98318E
:103480000D202000181020009701960122000E1236
:10349000200010102000203085002000F030840033
:1034A000983111202200AC1609009A31152298316A
:1034B0000020220022000130A10022003C30A000A8
:1034C0002000203085002000F030840020001814F7
:1034D00098310E202200AC17AC1E6C2AAC13AC1233
:0234E000602A60
:020000040001F9
:02000E00FC37BD
:02001000FF3FB0
:020012009F3F0E
:00000001FF
