:020000040000FA
:0400000085311D2DFC
:040004000034003490
:040008008431F52C1E
:04000C0022008C0141
:1000100020000C1623000C162100210080309E00C9
:1000200021000C309D00210010172000FF30A70098
:100030000130A8002000FF30A9000130AA00AB0168
:10004000AC01FF30AD000130AE003F30AD070030F5
:1000500003180130AE07FF30AF000130B0003F3071
:10006000AF020030031C0130B00221001D140E301D
:10007000090B38289D1420005730A300D930A40064
:10008000200020000430B10020000530B200003014
:10009000B3003030B4000030B5004030B60000305E
:1000A000B700C030B800032108002000FF30A300D3
:1000B0000130A40020000311031083102000230846
:1000C0002000FE00200024082000FF002708FE0278
:1000D0002808031C280AFF027E087F04031C7128DD
:1000E0007928200023082000A700200024082000F1
:1000F000A80020000311031083102000290820000D
:10010000FE0020002A082000FF002308FE02240829
:10011000031C240AFF027E087F04031C90289828F1
:10012000200023082000A900200024082000AA00A5
:100130002900031103108310151C9F28C9282000D3
:1001400003110310831020002F082000FE00200060
:1001500030082000FF002308FE022408031C240AA4
:10016000FF027E087F040318BA2820002D08200013
:10017000FE0020002E082000FF002308FE022408B5
:10018000031C240AFF027E087F04290003181514AB
:10019000FD28200003110310831020002F082000E9
:1001A000FE00200030082000FF002308FE02240883
:1001B000031C240AFF027E087F040318E4282000A1
:1001C0002D082000FE0020002E082000FF0023083C
:1001D000FE022408031C240AFF027E087F04290073
:1001E000031CFD281510290014082000AB0029006D
:1001F00013082000AC0093019401200010130800A4
:100200008131032108000310200020002308200072
:10021000FE00200024082000FF003B08FE023C08EE
:10022000031C3C0AFF027E087F04031C18291D29B9
:10023000220022000030A000B72903102000200077
:1002400023082000FE00200024082000FF003D08B5
:10025000FE023E08031C3E0AFF027E087F040318CC
:100260005929200023082000A10020002408200094
:10027000A2003F08A1024008031C400AA20220007D
:1002800021082B00A000200022082B00A100200044
:10029000390885313B252B0020082000A1002B00C8
:1002A00021082000A2002200200021082200A00036
:1002B000B72903102000200023082000FE002000A2
:1002C00024082000FF003F08FE024008031C400AEB
:1002D000FF027E087F040318722922002200FF30EB
:1002E000A000B72903102000200023082000FE00F2
:1002F000200024082000FF003D08FE023E08031CE9
:100300003E0AFF027E087F040318B3292000230859
:100310002000A100200024082000A2003B08A10228
:100320003C08031C3C0AA202200021082B00A0006C
:10033000200022082B00A10020003A0885313B252F
:100340002B0020082000A1002B0021082000A20083
:100350002000FF30A0002108A00222002000200879
:100360002200A000B729220022000030A0000310C4
:100370002000200023082000FE0020002408200088
:10038000FF003308FE023408031C340AFF027E0813
:100390007F04031CCC29D12922002200FF30A100B8
:1003A000542A03102000200023082000FE00200013
:1003B00024082000FF003508FE023608031C360A18
:1003C000FF027E087F040318122A20002308200061
:1003D000A100200024082000A2003308A102340854
:1003E000031C340AA202200021082B00A0002000D8
:1003F00022082B00A1002000310885313B252B006D
:1004000020082000A1002B0021082000A2002000CD
:10041000FF30A0002108A0022200200020082200B6
:10042000A100542A03102000200023082000FE0011
:10043000200024082000FF003708FE023808031CB3
:10044000380AFF027E087F0403182B2A22002200AC
:100450000030A100542A03102000200023082000AF
:10046000A100200024082000A2003708A1023808BB
:10047000031C380AA202200021082B00A000200043
:1004800022082B00A1002000320885313B252B00DB
:1004900020082000A1002B0021082000A20022003B
:1004A000200021082200A1000310200020002308C2
:1004B0002000FE00200024082000FF004408FE0267
:1004C0004508031C450AFF027E087F04031C692AB5
:1004D0006E2A220022000030A00008000310200035
:1004E000200023082000FE00200024082000FF0038
:1004F0004608FE024708031C470AFF027E087F04E5
:100500000318AA2A200023082000A10020002408A4
:100510002000A2004408A1024508031C450AA202CB
:10052000200021082B00A000200022082B00A100A1
:100530002000430885313B252B0020082000A10026
:100540002B0021082000A200220020002108220008
:10055000A0000800031022002200FF30A0000800C5
:10056000220022003C30A50022002E183E31BB2282
:10057000A50BB42A0800801FC72A0E160000000031
:10058000000000000000000000000E12D02A0E162D
:10059000000000000E12000000000000000000003B
:1005A000001FDC2A0E160000000000000000000002
:1005B000000000000E12E52A0E16000000000E12C8
:1005C00000000000000000000000801EF12A0E164E
:1005D00000000000000000000000000000000E12FB
:1005E000FA2A0E16000000000E12000000000000A3
:1005F00000000000001E062B0E1600000000000088
:1006000000000000000000000E120F2B0E1600006C
:1006100000000E1200000000000000000000801D1D
:100620001B2B0E1600000000000000000000000060
:1006300000000E12242B0E16000000000E12000007
:100640000000000000000000001D302B0E1600000E
:100650000000000000000000000000000E12392B16
:100660000E16000000000E12000000000000000046
:100670000000801C452B0E1600000000000000004A
:100680000000000000000E124E2B0E1600000000AD
:100690000E1200000000000000000000001C5A2B99
:1006A0000E16000000000000000000000000000026
:1006B0000E12632B0E16000000000E120000000048
:1006C0000000000000000131801F702B0E1600009A
:1006D0000000000000000000000000000E12792B56
:1006E0000E16000000000E120000000000000000C6
:1006F0000000001F852B0E16000000000000000007
:100700000000000000000E128E2B0E1600000000EC
:100710000E1200000000000000000000801E9A2B56
:100720000E160000000000000000000000000000A5
:100730000E12A32B0E16000000000E120000000087
:10074000000000000000001EAF2B0E16000000008D
:10075000000000000000000000000E12B82B0E1672
:10076000000000000E120000000000000000000069
:10077000801DC42B0E1600000000000000000000C9
:10078000000000000E12CD2B0E16000000000E120D
:1007900000000000000000000000001DD92B0E1614
:1007A00000000000000000000000000000000E1229
:1007B000E22B0E16000000000E12000000000000E8
:1007C00000000000801CEE2B0E1600000000000050
:1007D00000000000000000000E12F72B0E160000B3
:1007E00000000E1200000000000000000000001CCD
:1007F000032C0E16000000000000000000000000A6
:1008000000000E120C2C0E16000000000E1200004C
:1008100000000000000000000131801F192C0E169E
:1008200000000000000000000000000000000E12A8
:10083000222C0E16000000000E1200000000000026
:1008400000000000001F2E2C0E160000000000000B
:1008500000000000000000000E12372C0E160000F1
:1008600000000E1200000000000000000000801ECA
:10087000432C0E16000000000000000000000000E5
:1008800000000E124C2C0E16000000000E1200008C
:100890000000000000000000001E582C0E16000092
:1008A0000000000000000000000000000E12612C9B
:1008B0000E16000000000E120000000000000000F4
:1008C0000000801D6D2C0E160000000000000000CE
:1008D0000000000000000E12762C0E160000000032
:1008E0000E1200000000000000000000001D822C1D
:1008F0000E160000000000000000000000000000D4
:100900000E128B2C0E16000000000E1200000000CC
:10091000000000000000801C972C0E160000000054
:10092000000000000000000000000E12A02C0E16B7
:10093000000000000E120000000000000000000097
:10094000001CAC2C0E16000000000000000000008F
:10095000000000000E12B52C0E16000000000E1252
:10096000000000000000000000000131080020002D
:1009700008082200A80020000A082200A90005306B
:1009800082072200290E20000A0E2200260E2000D7
:10099000030E2200280E2000080E2200270E200041
:0409A000090E080034
:0C09A40021002100F830990020008E0195
:1009B00021000E1226008E0128000E16200098013C
:1009C00099012100101420000B178B172200220020
:1009D0000030A00022000030A10022000030A20060
:1009E000220022000330AE0008002000101C8031DD
:1009F00055202000181020002000F0309600200024
:100A0000FF30970022000E1220001010200020302E
:100A100085002000F03084002200AF132200AE10C9
:100A20002200AF1F142D182D2200AF1F8431B724D0
:100A30008231B0222200AF1609008431D2248031E5
:100A4000062080315520220022000130A40022001F
:100A50003C30A3002000203085002000F0308400CE
:100A600020001814813100212200AF17AF1E362D4F
:060A7000AF13AF122A2DA6
:0A0A760003100311200009180315F6
:100A80002B0021180314A036A1360318A017031059
:100A9000890B402D080003100311200009180315CD
:100AA0002B00A01B0314A035A1350318211403103B
:060AB000890B502D080027
:020000040001F9
:02000E00FC37BD
:02001000FF3FB0
:020012009F3F0E
:00000001FF
