:020000040000fa
:080000000002040000000000f2
:020000040000fa
:04000800ce05000021
:020000040000fa
:04000c00ce0500001d
:020000040000fa
:04001000ce05000019
:020000040000fa
:04001400ce05000015
:020000040000fa
:04001800ce05000011
:020000040000fa
:04001c00ce0500000d
:020000040000fa
:04002000ce05000009
:020000040000fa
:04002400ce05000005
:020000040000fa
:04002800ce05000001
:020000040000fa
:04002c00ce050000fd
:020000040000fa
:04003000ce050000f9
:020000040000fa
:04003400ce050000f5
:020000040000fa
:04003800ce050000f1
:020000040000fa
:04003c00ce050000ed
:020000040000fa
:04004000ce050000e9
:020000040000fa
:04004400ce050000e5
:020000040000fa
:04004800ce050000e1
:020000040000fa
:04004c00ce050000dd
:020000040000fa
:04005000ce050000d9
:020000040000fa
:04005400ce050000d5
:020000040000fa
:04005800ce050000d1
:020000040000fa
:04005c00fa020000a4
:020000040000fa
:04006000ce050000c9
:020000040000fa
:04006400ce050000c5
:020000040000fa
:04006800ce050000c1
:020000040000fa
:04006c00ce050000bd
:020000040000fa
:04007000ce050000b9
:020000040000fa
:04007400ce050000b5
:020000040000fa
:04007800ce050000b1
:020000040000fa
:04007c00ce050000ad
:020000040000fa
:04008000ce050000a9
:020000040000fa
:04008400ce050000a5
:020000040000fa
:04008800ce050000a1
:020000040000fa
:04008c00ce0500009d
:020000040000fa
:04009000ce05000099
:020000040000fa
:04009400ce05000095
:020000040000fa
:04009800ce05000091
:020000040000fa
:04009c00ce0500008d
:020000040000fa
:0400a000ce05000089
:020000040000fa
:0400a400ce05000085
:020000040000fa
:0400a800ce05000081
:020000040000fa
:0400ac00ce0500007d
:020000040000fa
:0400b000ce05000079
:020000040000fa
:0400b400ce05000075
:020000040000fa
:0400b800ce05000071
:020000040000fa
:0400bc00ce0500006d
:020000040000fa
:0400c000ce05000069
:020000040000fa
:0400c400ce05000065
:020000040000fa
:0400c800ce05000061
:020000040000fa
:0400cc00ce0500005d
:020000040000fa
:0400d000ce05000059
:020000040000fa
:0400d400ce05000055
:020000040000fa
:0400d800ce05000051
:020000040000fa
:0400dc00ce0500004d
:020000040000fa
:0400e000ce05000049
:020000040000fa
:0400e400ce05000045
:020000040000fa
:0400e800ce05000041
:020000040000fa
:0400ec00ce0500003d
:020000040000fa
:0400f000ce05000039
:020000040000fa
:0400f400ce05000035
:020000040000fa
:0400f800ce05000031
:020000040000fa
:0400fc00ce0500002d
:020000040000fa
:04010000ce05000028
:020000040000fa
:04010400ce05000024
:020000040000fa
:04010800ce05000020
:020000040000fa
:04010c00ce0500001c
:020000040000fa
:04011000ce05000018
:020000040000fa
:04011400ce05000014
:020000040000fa
:04011800ce05000010
:020000040000fa
:04011c00ce0500000c
:020000040000fa
:04012000ce05000008
:020000040000fa
:04012400ce05000004
:020000040000fa
:04012800ce05000000
:020000040000fa
:04012c00ce050000fc
:020000040000fa
:04013000ce050000f8
:020000040000fa
:04013400ce050000f4
:020000040000fa
:04013800ce050000f0
:020000040000fa
:04013c00ce050000ec
:020000040000fa
:04014000ce050000e8
:020000040000fa
:04014400ce050000e4
:020000040000fa
:04014800ce050000e0
:020000040000fa
:04014c00ce050000dc
:020000040000fa
:04015000ce050000d8
:020000040000fa
:04015400ce050000d4
:020000040000fa
:04015800ce050000d0
:020000040000fa
:04015c00ce050000cc
:020000040000fa
:04016000ce050000c8
:020000040000fa
:04016400ce050000c4
:020000040000fa
:04016800ce050000c0
:020000040000fa
:04016c00ce050000bc
:020000040000fa
:04017000ce050000b8
:020000040000fa
:04017400ce050000b4
:020000040000fa
:04017800ce050000b0
:020000040000fa
:04017c00ce050000ac
:020000040000fa
:04018000ce050000a8
:020000040000fa
:04018400ce050000a4
:020000040000fa
:04018800ce050000a0
:020000040000fa
:04018c00ce0500009c
:020000040000fa
:04019000ce05000098
:020000040000fa
:04019400ce05000094
:020000040000fa
:04019800ce05000090
:020000040000fa
:04019c00ce0500008c
:020000040000fa
:0401a000ce05000088
:020000040000fa
:0401a400ce05000084
:020000040000fa
:0401a800ce05000080
:020000040000fa
:0401ac00ce0500007c
:020000040000fa
:0401b000ce05000078
:020000040000fa
:0401b400ce05000074
:020000040000fa
:0401b800ce05000070
:020000040000fa
:0401bc00ce0500006c
:020000040000fa
:0401c000ce05000068
:020000040000fa
:0401c400ce05000064
:020000040000fa
:0401c800ce05000060
:020000040000fa
:0401cc00ce0500005c
:020000040000fa
:0401d000ce05000058
:020000040000fa
:0401d400ce05000054
:020000040000fa
:0401d800ce05000050
:020000040000fa
:0401dc00ce0500004c
:020000040000fa
:0401e000ce05000048
:020000040000fa
:0401e400ce05000044
:020000040000fa
:0401e800ce05000040
:020000040000fa
:0401ec00ce0500003c
:020000040000fa
:0401f000ce05000038
:020000040000fa
:0401f400ce05000034
:020000040000fa
:0401f800ce05000030
:020000040000fa
:0401fc00ce0500002c
:020000040000fa
:04020000ce05000027
:020000040000fa
:04020400ce05000023
:020000040000fa
:04020800ce0500001f
:020000040000fa
:04020c00ce0500001b
:020000040000fa
:04021000ce05000017
:020000040000fa
:04021400ce05000013
:020000040000fa
:04021800ce0500000f
:020000040000fa
:04021c00ce0500000b
:020000040000fa
:04022000ce05000007
:020000040000fa
:04022400ce05000003
:020000040000fa
:04022800ce050000ff
:020000040000fa
:04022c00ce050000fb
:020000040000fa
:04023000ce050000f7
:020000040000fa
:04023400ce050000f3
:020000040000fa
:04023800ce050000ef
:020000040000fa
:04023c00ce050000eb
:020000040000fa
:04024000ce050000e7
:020000040000fa
:04024400ce050000e3
:020000040000fa
:04024800ce050000df
:020000040000fa
:04024c00ce050000db
:020000040000fa
:04025000ce050000d7
:020000040000fa
:04025400ce050000d3
:020000040000fa
:04025800ce050000cf
:020000040000fa
:04025c00ce050000cb
:020000040000fa
:04026000ce050000c7
:020000040000fa
:04026400ce050000c3
:020000040000fa
:04026800ce050000bf
:020000040000fa
:04026c00ce050000bb
:020000040000fa
:04027000ce050000b7
:020000040000fa
:04027400ce050000b3
:020000040000fa
:04027800ce050000af
:020000040000fa
:04027c00ce050000ab
:020000040000fa
:04028000ce050000a7
:020000040000fa
:04028400ce050000a3
:020000040000fa
:04028800ce0500009f
:020000040000fa
:04028c00ce0500009b
:020000040000fa
:04029000ce05000097
:020000040000fa
:04029400ce05000093
:020000040000fa
:04029800ce0500008f
:020000040000fa
:04029c00ce0500008b
:020000040000fa
:0402a000ce05000087
:020000040000fa
:0402a400ce05000083
:020000040000fa
:0402a800ce0500007f
:020000040000fa
:0402ac00ce0500007b
:020000040000fa
:0402b000ce05000077
:020000040000fa
:0402b400ce05000073
:020000040000fa
:0402b800ce0500006f
:020000040000fa
:0402bc00ce0500006b
:020000040000fa
:0402c000ce05000067
:020000040000fa
:0402c400ce05000063
:020000040000fa
:0402c800ce0500005f
:020000040000fa
:0402cc00ce0500005b
:020000040000fa
:0402d000ce05000057
:020000040000fa
:0402d400ce05000053
:020000040000fa
:0402d800ce0500004f
:020000040000fa
:0402dc00ce0500004b
:020000040000fa
:0402e000ce05000047
:020000040000fa
:0402e400ce05000043
:020000040000fa
:0402e800ce0500003f
:020000040000fa
:0402ec00ce0500003b
:020000040000fa
:0402f000ce05000037
:020000040000fa
:0402f400ce05000033
:020000040000fa
:0402f800ce0500002f
:020000040000fa
:0402fc00ce0500002b
:020000040000fa
:04030000ce05000026
:020000040000fa
:04030400ce05000022
:020000040000fa
:04030800ce0500001e
:020000040000fa
:04030c00ce0500001a
:020000040000fa
:04031000ce05000016
:020000040000fa
:100400004fc121000eff22000e01880000000000f5
:10041000100020000000e000020032000001200077
:100420002002880014000700de0107000000e00041
:1004300003003a0040bf2000010020000200370006
:100440000000200001002000810f70000100320038
:100450000f000700000020000000e0000200320052
:1004600000000200000000003e1902000000000031
:100470000040da000000fe00800120000000e000e3
:1004800002003200002020009001880000000600d9
:10049000a1028800800478000000eb001f003700f4
:1004a000e284440054a0b4009905ba00e2844400f8
:1004b00054a0b4009906ba00e284440054a0b400e9
:1004c0000006eb00476fde00fd07b200ae018800ba
:1004d000636ce10003003a000ad801000000eb0061
:1004e0000e003700606ce10008003a00004deb00a0
:1004f0000a05e800020039003420ec000af0a000f0
:100500008b05e900f9ff3e00040037006168e10057
:10051000010032000086eb000b00070019c7ba008b
:100520000e04e0001905ba0003003a000a00e000da
:10053000dbff3a0000000600fe07b200ae028800b2
:100540008a047800f5ff37000cd0a300e20f4d00bd
:100550001c00390089027800354dba000a05e80010
:10056000020039003420ec000af0a0008b05e900fd
:100570000f003200254dba000a05e80002003900dc
:100580003420ec000af0a0008b05e90008003200de
:100590000c00e0000600320015cdba000a05e800a4
:1005a000020039003420ec000af0a0008b05e900bd
:1005b0008984e80054a0b4000b00e000e2ff3a0098
:1005c000000006009902ba00055d78008b05e9007d
:1005d000f7ff3200c82ade00055d78008b05e900d0
:1005e000f3ff32000c00e000f1ff320019ddba0029
:1005f000eeff37003600f800809fbe00829fbe00ed
:10060000849fbe00869fbe00881f78000200fa000b
:10061000488080000018800001188000f0ff27004b
:100620008088b9008000eb005c0207000200200017
:1006300003f023005d010700fb0107008000780044
:100640004241dd0000002300000041000108780065
:10065000408080000000e8004080880048808000e2
:100660001018800011188000f0ff27008088b90062
:100670008000eb00490207000200200003f0230085
:100680004a010700e8010700800078004241dd00d0
:100690000000230000004100010878004080800035
:1006a0000000e8004080880048808000201880001a
:1006b00021188000f0ff27008088b9008000eb003f
:1006c000360207000200200003f023003701070074
:1006d000d5010700800078004241dd0000002300c2
:1006e0000000410001087800408080000000e80020
:1006f00040808800488080003018800031188000d9
:10070000f0ff27008088b9008000eb00230207007b
:100710000200200003f0230024010700c2010700ab
:10072000800078004241dd0000002300000041000d
:1007300001087800408080000000e80040808800c8
:10074000488080004018800041188000f0ff27009a
:100750008088b9008000eb00100207000200200032
:1007600003f0230011010700af01070080007800ab
:100770004241dd0000002300000041000108780034
:10078000408080000000e8004080880048808000b1
:100790005018800051188000f0ff27008088b900b1
:1007a0008000eb00fd0107000200200003f02300a1
:1007b000fe0007009c010700800078004241dd0038
:1007c0000000230000004100010878004080800004
:1007d0000000e800408088004880800060188000a9
:1007e00061188000f0ff27008088b9008000eb00ce
:1007f000ea0107000200200003f02300eb000700dd
:1008000089010700800078004241dd0000002300dc
:100810000000410001087800408080000000e800ee
:100820004080880048808000701880007118800027
:10083000f0ff27008088b9008000eb00d701070097
:100840000200200003f02300d80007007601070013
:10085000800078004241dd000000230000004100dc
:1008600001087800408080000000e8004080880097
:10087000488080008018800081188000f0ff2700e9
:100880008088b9008000eb00c4010700020020004e
:1008900003f02300c5000700630107008000780013
:1008a0004241dd0000002300000041000108780003
:1008b000408080000000e800408088004880800080
:1008c0009018800091188000f0ff27008088b90000
:1008d0008000eb00b10107000200200003f02300bc
:1008e000b200070050010700800078004241dd009f
:1008f00000002300000041000108780040808000d3
:100900000000e8004080880048808000a018800037
:10091000a1188000f0ff27008088b9008000eb005c
:100920009e0107000200200003f023009f00070043
:100930003d010700800078004241dd0000002300f7
:100940000000410001087800408080000000e800bd
:100950004080880048808000b0188000b118800076
:10096000f0ff27008088b9008000eb008b010700b2
:100970000200200003f023008c0007002a0107007a
:10098000800078004241dd000000230000004100ab
:1009900001087800408080000000e8004080880066
:1009a00048808000c0188000c1188000f0ff270038
:1009b0008088b9008000eb00780107000200200069
:1009c00003f023007900070017010700800078007a
:1009d0004241dd00000023000000410001087800d2
:1009e000408080000000e80040808800488080004f
:1009f000d0188000d1188000f0ff27008088b9004f
:100a00008000eb00650107000200200003f02300d6
:100a10006600070004010700800078004241dd0005
:100a200000002300000041000108780040808000a1
:100a30000000e8004080880048808000e0188000c6
:100a4000e1188000f0ff27008088b9008000eb00eb
:100a5000520107000200200003f0230053000700aa
:100a6000f1000700800078004241dd000000230013
:100a70000000410001087800408080000000e8008c
:100a80004080880048808000f0188000f1188000c5
:100a9000f0ff27008088b9008000eb003f010700cd
:100aa0000200200003f0230040000700de000700e2
:100ab000800078004241dd0000002300000041007a
:100ac00001087800408080000000e8004080880035
:100ad00000012000000f78002400370040808000d3
:100ae000ef0f50000a003c001e007800c200dd003d
:100af000000023000080400010007800cf80de005e
:100b00006109b90004012000ca0807000b00370082
:100b1000408080001e005000c200dd000000230065
:100b20000080400010007800cf80de006109b9002d
:100b300004012000bf08070000000000b170800021
:100b400000002800008060000000e000fbff320091
:100b500000000000b17080000000280000806000ec
:100b60000000e000fbff3a001e0fe9001e007800c5
:100b70000000e000d9ff3c0001a8a9000080fa00b5
:100b80004f0478004f03be004f02be004f01be006d
:100b90004f00be003600f900004006000040da00b9
:100ba0000000fe000000050003f0a200889fbe00c8
:100bb0008a9fbe008c1f7800350107003c0133007e
:100bc0006450e1004f0032006420e1005200320026
:100bd00003826c0007003b000905d0000306d0002b
:100be000820f54000c065d00020039000200320042
:100bf00089017800030678008582550004003d00d5
:100c00000003fd008103fd008502ea008b854200a0
:100c1000840f720002003b0060001000e0801800aa
:100c20006011b8000005eb007a28e1000a003900e5
:100c300006007800c75ddd00f707b2008780750009
:100c40002d003700828171000a0178006105600083
:100c50008180d1000080d3008502e900f9ff3b00cc
:100c6000060440008784480002003b006004140032
:100c7000e0841c000988a300070032008a8171000b
:100c800082817100610164008904d1000884d3006d
:100c90008b05e800170037000978a30013003a001d
:100ca0000b00e000130034008b05e9000804440049
:100cb00089844c000a4474000978a3000d003a00ae
:100cc0000b00e000070034008b05e9000804440035
:100cd00089844c0001003a000b0020000978a30031
:100ce000f7ff32000001eb00020037008281710043
:100cf0000a017800ab0007000cf0a70001f0a0008b
:100d0000f40037006420e10002003a00838f6c0099
:100d1000f40033000801be000200be00ed00370001
:100d2000889fbe008a9fbe008c1f7800d8000700f5
:100d3000df00330003866c006450e1002e003200b7
:100d40006420e100330032006150e1002f003200e6
:100d50006120e1003100320085855500eb07b000cd
:100d600009002000080420000500370008044400a2
:100d700089844c000a0031000603430087834b003e
:100d80000001530081815b00f8ff33000203be00c5
:100d90000800a0000804440089844c00f6ff3900d4
:100da000c639dd008301730001003200130020000a
:100db0008904d1000884d3000998a30005003200fb
:100dc0000800a7000300a0008904d1000884d30014
:100dd0008b05e8008904d1000884d3000001eb00f2
:100de0000281d2006f00070001f0a1000cf0a70003
:100df00001f0a000b70037006420e100b900320024
:100e00000801be000200be00f7ff37006120e100cc
:100e1000b40032006000b800f3ff3700000020008b
:100e200001f82700f0ff37000001be008300070033
:100e30000470a70003f0a1006509b100160032009c
:100e40000d0035006828e10006003500f0ff2f0096
:100e5000f1ff27000300e00013003b000100280021
:100e60000000050000004000818048008502e90084
:100e7000fcff3a0008003700f88f420002003c00f7
:100e80008000eb00000005008100d1000080d3004d
:100e90008502e800fcff3a000300e00002003b008e
:100ea00060001000e0801800000006000003be0093
:100eb000620007006011b8000470a70007f0a100ed
:100ec00007f8a30017003a006509b1000d003200d1
:100ed0000d003500860220000628e10003003500e1
:100ee000030028006000b800020005000000400078
:100ef0008180480002014900838149008502e900a0
:100f0000faff3a0000000600f88f420005003400a6
:100f10008100d1000080d3008502e800fcff3a0088
:100f2000000006006011b8008000eb000000050022
:100f30000001be00410007000470a70003f0a100fb
:100f400003f8a30013003a006509b1001000320055
:100f5000090035006928e100020035000100280081
:100f60000000050000004000818048008502e90083
:100f7000fcff3a0000000600f88f42000500350033
:100f80008100d1000080d3008502e800fcff3a0018
:100f9000000006008000eb00000005006011b800b2
:100fa000b401370081002000618055000b003d0036
:100fb0000b00200061fe2f000100e1001d00340045
:100fc00082817100610164008904d1000884d3002a
:100fd0000000e800faff3a007100200061006400a0
:100fe0000300700002006000090032006104440048
:100ff000e0844c000988a500050032008b05e8005c
:101000006808e10002003a008904d1000884d30096
:10101000f20f20000258e10005003d00c75ddd0031
:10102000f907b2008980750008007800000006000a
:101030000bf827008b00780000000500c70ade00cf
:10104000f107b200f50fb20008003200e1cf420014
:10105000020032000170a00024000500810f700022
:10106000010032000408050044000500810f7000f3
:1010700002003a00140005008502e900000040006b
:1010800081c04800fcff3b000170a0002400050067
:101090000004be00e9ff07000003be000405be0017
:1010a0000200be00e5ff0700844f75000000060047
:1010b0000200be006450e100050036006420e1003b
:1010c000020036000968a30001003a000800be00d3
:1010d0000160a0004f0678004f05be004f04be001f
:1010e00000000600f0ff2f00f1ff2700f9ff370096
:1010f000889fbe008a9fbe008c1f7800e4ff070017
:10110000ebff330003866c006450e10024003200e2
:101110006420e100270032006150e100220032002b
:101120006120e100210032008b854200eb07b10015
:101130000134b800003ab8000804420089844a002b
:10114000013ab8000030b8008880400009014a0028
:101150000400330000004000818048000201490083
:101160008b05e900c909dd00830170000100320030
:1011700013002000c814de004814dd004709de001b
:101180001200b200c808de000884700085ff070066
:1011900001f0a1000cf0a70001f0a000cdff370086
:1011a0006120e100cfff32000801be000200be0056
:1011b000f7ff37006150e100fcff3a00c9ff37003c
:1011c000889fbe008a9fbe0030044200b0844a005f
:1011d00030054b0090854b006000b1000898be00c0
:1011e0000a90be000440e10005c8e10006d0e1001d
:1011f00007d8e10002003100680040001008e80054
:101200004f05be004f04be0000000600889fbe00d0
:101210008a9fbe0010047800900490002005900082
:10122000b00590000418540005985c0006185d0095
:1012300007985d00110020000440e10005c8e100ae
:1012400006d0e10007d8e100010039008000eb0082
:10125000108810004f05be004f04be0000000600bd
:101260001200fa00889fbe008a9fbe008c9fbe00bd
:10127000e0b79f00f1b79f0082bf9f0093bf9f0020
:101280000605be000404be000000eb00d0b79f00be
:10129000c0b79f00b0b79f00a0b79f0090b79f0056
:1012a0000006eb005fb19700cfb0970082014100cc
:1012b0003fb097000200e00004003d003700070047
:1012c0007e805700beff0700030037003300070091
:1012d0007e805700cdff0700dfb697000d00e000cd
:1012e0000c0035006fb29700ffb297000fbb97005c
:1012f0009fbb970010002000010020006011b80083
:101300000002720081827200020373008383730003
:101310001b0007000c06e80001042000810f5600a6
:10132000e0ff3a000d00e00004003d000802be00ae
:101330000a03be007e805700a1ff07005fa8970048
:101340000000e00005003a001fb29700afb297001e
:101350003fb39700cfb39700090007006fb0970025
:10136000ffb097000fb997009fb997004f06be00d6
:101370004f05be004f04be000080fa0000000600ca
:101380000100070000000600a4b79f00b5b79f004a
:10139000c6b79f00d7b79f00000006004f09de00c8
:1013a00082817100b3b79f004f01de008180400051
:1013b00082807000a1b79f008fb097004f09de00b8
:1013c000000040000200700090b79f007fa89700c7
:1013d0004f01de00818040008280700081b79f0055
:1013e0000d0007004f3ade000000400004007000ce
:1013f000f0af9f00080007000402420085824a0007
:1014000006034b0087834b00dfff07000802be0086
:101410000a03be00000006002fb29700bfb297007b
:101420004fb39700dfb3970000000600881f7800d5
:1014300018002000881f780089ff07008f87e900c7
:101440004f04780000000600801feb0084ff0700b7
:101450008f87e90000000600889fbe008a9fbe00bb
:10146000e00f5000e08f5800e00f5900e08f590066
:101470000c003d006044b8006055b8000000540006
:1014800081805c0002015d0083815d001800200006
:101490001500070008003d00180007000004eb00dd
:1014a000050037000004eb000f00070002003d00bc
:1014b0001200070018002000dcff07000800e00011
:1014c000060032006022b8006033b800000052000d
:1014d00081805a0002015b0083815b004f05be00e2
:1014e0004f04be0000000600e00f5200e08f5a00db
:1014f000e00f5b00e08f5b00000006006044b80076
:101500006055b8000402540085825c0006035d004b
:1015100087835d0000000600889fbe008a9fbe0092
:101520008c1f7800e00f5000e08f5800e00f59004a
:10153000e08f59000d003d006044b8006055b800d0
:101540000000540081805c0002015d0083815d0029
:101550001c0020000820e10009a8e1000ab0e10019
:101560000bb8e1000d003d00080037000006eb005d
:10157000e00f5200e08f5a00e00f5b00e08f5b004d
:1015800006003d006044b8006055b80004025400f5
:1015900085825c0006035d0087835d00aaff07006b
:1015a0000c00e000060032006022b8006033b80092
:1015b0000000520081805a0002015b0083815b00c1
:1015c0004f0678004f05be004f04be000000060025
:1015d000889fbe008a9fbe008c1f78000006eb002b
:1015e000e00f5000e08f5800e00f5900e08f5900e5
:1015f00007003d006044b8006055b800000054008a
:1016000081805c0002015d0083815d001c00200080
:10161000e00f5200e08f5a00e00f5b00e08f5b00ac
:1016200007003d006044b8006055b8000402540053
:1016300085825c0006035d0087835d000c00a200cc
:101640003b0007000c00e000060032006022b800fa
:101650006033b8000000520081805a0002015b0034
:1016600083815b004f0678004f05be004f04be002b
:1016700000000600889fbe008a9fbe0000827000a6
:101680000402710004827100260032000004be00d2
:101690000200be006011b8006b0920009502200016
:1016a0000182cf000a0039000541b1000082cf005d
:1016b000070039000541b1000982cf00040039005c
:1016c0000541b1000882cf00010039000541b10099
:1016d00005425200120032000a003b008281710074
:1016e000610164008100d1000080d3008984d300af
:1016f0000884d3008b05e8000442e800f7ff3a00b5
:10170000070037000804440089844c0000004800aa
:10171000818048008b05e9000442e900f9ff3a00a6
:1017200020fe07004f05be004f04be00000006006b
:10173000889fbe008a9fbe008c9fbe000404b80034
:101740000506b8008904460060854e000606b8000c
:101750000a054600e0854e000706b8008b054600e6
:10176000040eb800890446000a854e00e0854d004d
:10177000050eb8000a0546008b854e00060eb8001f
:101780008b0546000416b8000a0546008b854e00fe
:101790000516b8008b054600041eb8008b054600f0
:1017a0000800be000a01be004f06be004f05be0085
:0817b0004f04be00000006001a
:020000040000fa
:1017b8009a990000993f000014ae0000873e00008f
:1017c8009a990000993e00009a990000993f0000fc
:1017d80000000000fa4300000400000008000000b8
:020000040000fa
:1017e8000e100000000c0000820000000000000045
:1017f80000880f00c90020001d920100d7265b0059
:1018080002bf2a002403e60026ed03005d19b60096
:10181800043500007f057c00d947060045a3100069
:10182800079e5b00d9079a0000a2080049906a0049
:1018380009bd0800330a050068fb0a0035acc3007f
:101848000b5ed3008b0c9200db530d00e4c21b002f
:101858000e668700e30e2b0027ab0f0048a072002e
:1018680010cff0003911d500160112006f10c80012
:1018780012b1db008e13b1007655140086df1b0011
:1018880015451400e215050013a81600ded96d00f1
:1018980017e9660033183c00b8f81800f3cbbd0010
:1018a8001926a000821aef0032471b006a820b003b
:1018b8001cb38c00cf1ce5004f931d001eca5600b8
:1018c8001e7bf900191f1b00dcdc1f001c709f0029
:1018d80020a0b3006121c500a4232200af41e50088
:1018e800227f8800a6235800776724005e0c280012
:1018f80025b64500e825860021a82600f49d670046
:101908002728b90026284b0071e5280085c4a300c4
:101918002901b100612aeb00341f2b006f4edc0057
:101928002bbafb00982cfc003a552d00620a1100d6
:101938002e1e6800cc2e620052872f0061c741001e
:10194800304dc500fb305e004ab53100c7546e000b
:1019580032c3e20026338700f2de3300508296005d
:10196800345790004d35d9001a0436001420ba00b7
:1019780036469e006f37b0009324380093fed80097
:101988003832dd008c39d2002d403a00b7eef20033
:101998003a291e00a53b7000ba563c00d6c1070084
:1019a8003da63200b83d2c000b683e00b849170030
:1019b8003f98ec00c53f1d00f27340009b58210082
:1019c80041651e00ce41d000417a420035c1250054
:1019d80043ed9a00d0435000cd7a4400bd56240010
:1019e800458f3500cd45280068754600e7ec1c009a
:1019f800472fc200c3476500e6694800ee570f004d
:101a080049331500b4499e001c584a00986cfb00e5
:101a18004a9003009e4bf400df3f4c003400e10085
:101a28004cc46200814d170006214e00a5e8bf0096
:101a38004ee308005e4f4d0065fb4f005efc9700cb
:101a48005094cc0033516e00d4ce51006e12690010
:101a5800521885000253f0002a9b53007d02330080
:101a6800544b0a00ca54e20040605500d2a4f50065
:101a780055a934008a56fa00ee1d570056d2b00018
:101a88005754dd0042588c000ed458009864640006
:101a98005912de00f3599a0079825a00cf351000a6
:101aa8005b5411009d5bcc000a295c00e020b40067
:101ab8005c3752003e5d7c009dc75d005d015000b3
:101ac8005e8a7c00d75eb3000d5e5f008db3e300d5
:101ad8005fcf6c006860300038ec60006c146f00f9
:101ae800613f0000f1616900fa716200ac01f20027
:101af80062cc14007163900032ef6300bf596c0030
:101b080064268900e8649200bf636500d3fbdd00aa
:101b180065bb3c005766200081cf6600d8c74600e9
:101b280067bd0f00bd67ab0057326800819ea600f5
:101b38006820e30019696c00248c69004a61fd0083
:101b480069a498006d6a6400c9dc6a0079f24a00e9
:101b58006bd11200b86b600029246c001c358f0013
:101b68006cfc3400f96cfa0027626d00140dca0091
:101b78006d4ae300306e9d00a9966e00125ffb006f
:101b88006eb202005f6f850093c16f009a10230048
:101b980070ff78008370c600cbe270000508410032
:101ba80071d22c009e71490039fa7100852c5500bc
:101bb80072a70500af72d000c307730026665f00e6
:101bc80073d1eb00b573fb00530b7400d19d5f001c
:101bd8007484c800b2744500d30475004cbd550028
:101be80075cf8500a5750b002cf475003daf41003d
:101bf80076a60e008e76890049d976002d5f2300df
:101c080077db4e006c77df0017b4770089b9fa00ec
:101c1800772933004078140084847800a2abc70089
:101c2800782da900097912007c4a7900b1238a002d
:101c3800796e9f00c879ad00ee057a00d810420091
:101c48007a5b05007d7aa400cbb67a002363ef00a7
:101c58007a4fcb00267b9e00035d7b00890b9200a8
:101c68007b90e200c57b300088f87b00eefb290002
:101c78007c503d005a7cde004b897c002427b7004d
:101c88007cb2ce00e37c1800420f7d00ec80390066
:101c98007dc68a00627d40005f8a7d00f8fdb00045
:101ca8007d8f6600d67da80098fa7d00ea931d0016
:101cb8007eff57003f7e9300e45f7e0057397f0028
:101cc8007efc55009d7e39003aba7e00c6e5d500f7
:101cd8007e605800f07ec40091097f00b491210015
:101ce8007ff65700387f5100e44d7f008f36620041
:101cf8007f804e00757ff3002b877f00bdce970055
:101d08007fb43600a77fb30063b57f009655c20045
:101d18007f3e0c00ce7f8e0087d87f006bc7e10026
:101d28007fc0cb00e97f780094f07f008221f60025
:101d38007fd17200fa7f5a0088fd7f001662ff008b
:101d48007fffff00ff7f160062ff7f005a88fd00bb
:101d58007fd17200fa7f820021f67f007894f0002c
:101d68007fc0cb00e97f6b00c7e17f008e87d8007a
:101d78007f3e0c00ce7f960055c27f00b363b5004e
:101d88007fb43600a77fbd00ce977f00f32b870076
:101d98007f804e00757f8f0036627f0051e44d00d2
:101da8007ff65700387fb40091217f00c491090065
:101db8007f605800f07ec600e5d57e00393aba004b
:101dc8007efc55009d7e5700397f7e0093e45f00be
:101dd8007eff57003f7eea00931d7e00a898fa0018
:101de8007d8f6600d67df800fdb07d00405f8a00db
:101df8007dc68a00627dec0080397d0018420f00a4
:101e08007db2ce00e37c240027b77c00de4b89003e
:101e18007c503d005a7cee00fb297c003088f8009d
:101e28007b90e200c57b89000b927b009e035d00de
:101e38007b4fcb00267b230063ef7a00a4cbb60050
:101e48007a5b05007d7ad80010427a00adee050075
:101e58007a6e9f00c879b100238a7900127c4a0003
:101e6800792da9000979a200abc7780014848400f1
:101e78007829330040788900b9fa7700df17b40071
:101e880077db4e006c772d005f2377008949d900f6
:101e980076a60e008e763d00af4176000b2cf4003e
:101ea80075cf8500a5754c00bd55750045d3040058
:101eb8007584c800b274d1009d5f7400fb530b0099
:101ec80074d1eb00b5732600665f7300d0c30700ba
:101ed80073a70500af7285002c5572004939fa00c6
:101ee80071d22c009e71050008417100c6cbe2003a
:101ef80070ff780083709a00102370008593c100ea
:101f08006fb202005f6f12005ffb6e009da9960022
:101f18006e4ae300306e14000dca6d00fa276200a5
:101f28006dfc3400f96c1c00358f6c0060292400ae
:101f38006cd11200b86b7900f24a6b0064c9dc00fe
:101f48006aa498006d6a4a0061fd69006c248c00df
:101f58006920e300196981009ea66800ab5732002a
:101f680068bd0f00bd67d800c74667002081cf0055
:101f780066bb3c005766d300fbdd650092bf63007b
:101f880065268900e864bf00596c64009032ef0050
:101f980063cc14007163ac0001f2620069fa71004d
:101fa800623f0000f1616c00146f61003038ec0092
:101fb80060cf6c0068608d00b3e35f00b30d5e0016
:101fc8005f8a7c00d75e5d0001505e007c9dc70083
:101fd8005d3752003e5de00020b45c00cc0a290069
:101fe8005c5411009d5bcf0035105b009a7982002c
:101ff8005a12de00f3599800646459008c0ed4001c
:102008005854dd0042585600d2b05700faee1d0071
:1020180057a934008a56d200a4f55500e240600062
:10202800554b0a00ca547d0002335400f02a9b0025
:102038005318850002536e00126952006ed4ce0008
:102048005194cc0033515e00fc9750004d65fb0065
:102058004fe308005e4fa500e8bf4e0017062100b9
:102068004ec46200814d340000e14c00f4df3f00b3
:102078004c9003009e4b98006cfb4a009e1c580035
:102088004a331500b449ee00570f490065e6690068
:10209800482fc200c347e700ec1c470028687500ba
:1020a800468f3500cd45bd005624450050cd7a00f9
:1020b80044ed9a00d0433500c1254300d0417a0051
:1020c80042651e00ce419b00582141001df273005d
:1020d8004098ec00c53fb80049173f002c0b68003a
:1020e8003ea63200b83dd600c1073d0070ba560082
:1020f8003c291e00a53bb700eef23a00d22d400065
:102108003a32dd008c399300fed83800b0932400b1
:1021180038469e006f37140020ba3600d91a0400da
:10212800365790004d3550008296340087f2de0015
:1021380033c3e2002633c700546e32005e4ab5004e
:10214800314dc500fb306100c74130006252870045
:102158002f1e6800cc2e62000a112e00fc3a550092
:102168002dbafb00982c6f004edc2b00eb341f00bf
:102178002b01b100612a8500c4a329004b71e50039
:102188002828b9002628f4009d6727008621a80082
:1021980026b64500e8255e000c282500587767001c
:1021a800247f8800a623af0041e52200c5a42300b0
:1021b80022a0b30061211c00709f20001bdcdc0002
:1021c8001f7bf900191f1e00ca561e00e54f930019
:1021d8001db38c00cf1c6a00820b1c00ef32470035
:1021e8001b26a000821af300cbbd19003cb8f800ea
:1021f80018e966003318de00d96d17000513a8002a
:1022080016451400e2158600df1b1500b17655004f
:1022180014b1db008e136f0010c81200d516010030
:1022280012cff00039114800a07210002b27ab0024
:102238000f668700e30ee400c21b0e0092db53001a
:102248000d5ed3008b0c3500acc30b000568fb009a
:102258000abd0800330a4900906a09009a00a200e2
:10226800089e5b00d9074500a31007007cd94700ea
:10227800063500007f055d0019b60400e626ed006e
:1022880003bf2a002403d700265b0200201d92000a
:1022980001880f00c90000000000000078f0360037
:1022a800ffe0e2006dfe2900d9a4fd0041d5db0066
:1022b800fc1ad90012fca300e649fb00cbff800002
:1022c800fa842600b8f9bb005ceff80062a4260087
:1022d800f866ff005df7b7006f95f60043f7cc008e
:1022e800f5fb970004f5cb00533cf400a22c7400d6
:1022f800f36e2400acf21c003de4f1009a781c0057
:10230800f1d5d80054f0b8005f8def00310fc6004a
:10231800ee2be900feed9100ef37ed004f24710040
:10232800ec4f8900aaeb7a0020e4ea00bbeb1d0021
:10233800eafbec0057e922002692e8001799cc0046
:10234800e7c4470007e70d003442e600da5f7d0086
:10235800e511cd00b8e496007df4e3004d7330003c
:10236800e31bb0006ce2e20035a9e1008506e60057
:10237800e0e5230023e0e4008f60df00604c9e006e
:10238800de3b5b00dcdd5100be1add0081775900c1
:10239800dca8880098dba200f3d7da004aba170055
:1023a800da7ade0057d90c006298d800d846d900ee
:1023b800d7b58e001ad77b003b5cd600ff4e9e0037
:1023c800d515cb00e0d49100b123d40046046700b2
:1023d800d304c500aad29e00f5eed100e2973300df
:1023e800d19ead0078d09f0038becf00b33a04002c
:1023f800cfa2b5004ace3900ab91cd003d1dd90022
:10240800cc790d0021ccb0007d69cb00a96fb2005a
:10241800ca27e500fbc9ec00df45c900ba61900096
:10242800c8506c00dbc76d000127c700ce227300bf
:10243800c62ed200bfc54900110dc500d7e15a000c
:10244800c4904500a9c32a003ef8c2005acd4700ef
:10245800c2d4f40097c14800b6e8c00068133a0037
:10246800c0e30d008cbf6500a7debe009be1310014
:10247800be30be0085bdcb003edabc0013652f0020
:10248800bcb0320085bb4300a9dbba0071ca320078
:10249800bad897008ab9190013e3b800d13d3c00b7
:1024a800b89b190096b71200a8f0b600cdea4b0009
:1024b800b662e300a7b568009304b50070fc61003c
:1024c800b40c2000c0b3cc00ff1eb3003c9d7e00be
:1024d800b2e9f900deb15b001740b1001df7a100b9
:1024e800b0b39a0004b0a2000368af006c33cc000c
:1024f800ae922b0031ae9200ed96ad00e87afd0069
:10250800ac10d50064ac8300fdccab00b5f535004c
:10251800ab1ebf009faa2e005b0aaa0057cb75000e
:10252800a9061100e2a8aa002d4fa800ac22bd0000
:10253800a774f1002ba768009b9ba600ee210c0056
:10254800a66686007da53100caefa400acee620045
:10255800a434f500d6a32000df4ba300c9adc10009
:10256800a284620038a2a300feafa10076832800ef
:10257800a14df200a1a073004c1ca000319397005c
:102588009fd0c700139f9400eb909e00c1ff0e00e0
:102598009e9705008e9d5400fe0d9d0034eb8e0025
:1025a8009c70cd00109c4100a6939b00da76170022
:1025b8009b6e40009c9a2d0004229a0045c3a800f7
:1025c80099e07e003099280038b9980043f042001d
:1025d8009855a800cd977f0061599700e01ce60048
:1025e8009694db007396b6009e0296005c67920094
:1025f800959c3600239587000db594002fed470074
:1026080094a0d600db93e400ca70930004cb0600c4
:102618009306d8009d92ec00f2359200b61ccf00cc
:10262800916356006991ee00a00491004efda00050
:10263800907b6c003e906600efdc8f0001877c0089
:102648008f3a34001d8ffb00f7be8e002ed3610039
:102658008eb7c600058e7b00d3aa8d0059fa5000ac
:102668008d303c00f88cda0099a08c002f144a00b9
:102678008c05ac00f48b2f0062a08b007c374d00da
:102688008bbb2c00fb8ab40042aa8a00317a5a001c
:102698008af5d3000b8ac30050be89005af1710035
:1026a8008977b6002689d300a0dc880025b193007d
:1026b8008821e8004b88770046058800d7ccbf0002
:1026c80087ec7b007b875e0054388700d356f60082
:1026d80086ee8300b5864f00dc7586009260370071
:1026e80086531100fa852800efbd8500a5fa8200ff
:1026f800855c34004985dd009c108500b134d90023
:102708008462fc00a2847700f46d8400701d3a0096
:1027180084d077000784120004d68300b0c2a500d5
:102728008322b4007683dc00d84883004e311c0035
:1027380083e8bd00f08214007fc682003a759d00d0
:1027480082c0a00075820800024f8200719929009a
:1027580082586700058216006ce2810001a8c0005b
:10276800816d1b00a081a900c680810004aa6200b7
:1027780081c7c50045813a001a2a8100a0a70f0029
:10278800813c6e00f6804c006ede80000aa8c7000f
:1027980080af1b00b2807100c99d800080b18a00a3
:1027a800800dd40078804300316880004cc95800ff
:1027b800804d9c004a806a00aa3d8000c2f3310027
:1027c8008072780027809500381e800040341600fb
:1027d80080886b000f807e00de0980002f8d050049
:1027e80080a677000280ea009d00800000100000ab
:1027f8000a000000800000000a1000000400000029
:10280800820000000000c800430000000030000003
:1028180000200000800000000e1c000006000000e0
:08282800800000000000000028
:020000040000fa
:1028300002f0a70006003700182eb7000480090038
:102840000000000018aeb600018009000000000082
:1028500002f0a60006003700182eb7000680090017
:102860000000000018aeb60005800900000000005e
:1028700002e0a70006003700182eb7000480090008
:102880000000000018aeb600018009000000000042
:1028900002e0a60006003700182eb70006800900e7
:1028a0000000000018aeb60005800900000000001e
:1028b00002d0a70006003700182eb70004800900d8
:1028c0000000000018aeb600018009000000000002
:1028d00002d0a60006003700182eb70006800900b7
:1028e0000000000018aeb6000580090000000000de
:1028f00002c0a70006003700182eb70004800900a8
:102900000000000018aeb6000180090000000000c1
:1029100002c0a60006003700182eb7000680090086
:102920000000000018aeb60005800900000000009d
:1029300002b0a70006003700182eb7000480090077
:102940000000000018aeb600018009000000000081
:1029500002b0a60006003700182eb7000680090056
:102960000000000018aeb60005800900000000005d
:1029700002a0a70006003700182eb7000480090047
:102980000000000018aeb600018009000000000041
:1029900002a0a60006003700182eb7000680090026
:1029a0000000000018aeb60005800900000000001d
:1029b0000290a70006003700182eb7000480090017
:1029c0000000000018aeb600018009000000000001
:1029d0000290a60006003700182eb70006800900f6
:1029e0000000000018aeb6000580090000000000dd
:1029f0000280a70006003700182eb70004800900e7
:102a00000000000018aeb6000180090000000000c0
:102a10000280a60006003700182eb70006800900c5
:102a20000000000018aeb60005800900000000009c
:102a30000370a70006003700182eb70004800900b5
:102a40000000000018aeb600018009000000000080
:102a50000370a60006003700182eb7000680090094
:102a60000000000018aeb60005800900000000005c
:102a70000360a70006003700182eb7000480090085
:102a80000000000018aeb600018009000000000040
:102a90000360a60006003700182eb7000680090064
:102aa0000000000018aeb60005800900000000001c
:102ab0000350a70006003700182eb7000480090055
:102ac0000000000018aeb600018009000000000000
:102ad0000350a60006003700182eb7000680090034
:102ae0000000000018aeb6000580090000000000dc
:102af0000340a70006003700182eb7000480090025
:102b00000000000018aeb6000180090000000000bf
:102b10000340a60006003700182eb7000680090003
:102b20000000000018aeb60005800900000000009b
:102b30000330a70006003700182eb70004800900f4
:102b40000000000018aeb60001800900000000007f
:102b50000330a60006003700182eb70006800900d3
:102b60000000000018aeb60005800900000000005b
:102b70000320a70006003700182eb70004800900c4
:102b80000000000018aeb60001800900000000003f
:102b90000320a60006003700182eb70006800900a3
:102ba0000000000018aeb60005800900000000001b
:102bb0000310a70006003700182eb7000480090094
:102bc0000000000018aeb6000180090000000000ff
:102bd0000310a60006003700182eb7000680090073
:102be0000000000018aeb6000580090000000000db
:102bf0000300a70006003700182eb7000480090064
:102c00000000000018aeb6000180090000000000be
:102c10000300a60006003700182eb7000680090042
:102c20000000000018aeb60005800900000000009a
:102c30000270a70006003700182eb70004800900b4
:102c40000000000018aeb60001800900000000007e
:102c50000270a60006003700182eb7000680090093
:102c60000000000018aeb60005800900000000005a
:102c70000260a70006003700182eb7000480090084
:102c80000000000018aeb60001800900000000003e
:102c90000260a60006003700182eb7000680090063
:102ca0000000000018aeb60005800900000000001a
:102cb0000250a70006003700182eb7000480090054
:102cc0000000000018aeb6000180090000000000fe
:102cd0000250a60006003700182eb7000680090033
:102ce0000000000018aeb6000580090000000000da
:102cf0000240a70006003700182eb7000480090024
:102d00000000000018aeb6000180090000000000bd
:102d10000240a60006003700182eb7000680090002
:102d20000000000018aeb600058009000000000099
:102d30000230a70006003700182eb70004800900f3
:102d40000000000018aeb60001800900000000007d
:102d50000230a60006003700182eb70004800900d4
:102d60000000000018aeb60001800900000000005d
:102d70000220a70006003700182eb70004800900c3
:102d80000000000018aeb60001800900000000003d
:102d90000220a60006003700182eb70004800900a4
:102da0000000000018aeb60001800900000000001d
:102db0000210a70006003700182eb7000480090093
:102dc0000000000018aeb6000180090000000000fd
:102dd0000210a60006003700182eb7000480090074
:102de0000000000018aeb6000180090000000000dd
:102df0000200a70006003700182eb7000480090063
:102e00000000000018aeb6000180090000000000bc
:102e10000200a60006003700182eb7000480090043
:102e20000000000018aeb60001800900000000009c
:102e3000000006000001fa0030bf980041bf980072
:102e400052bf980063bf980074bf9800e600470027
:102e5000770009008018eb000000eb00000f7800fd
:102e600021003700110020001e0078000008dd005e
:102e70006102b900612bb9003eb89000ceb8900055
:102e80005eb99000eeb9900000006200818062009f
:102e90000201630083816300e00f5000e08f58005f
:102ea000e00f5900e08f5900080034001e00780040
:102eb0004200dd006600400000014700f0ff2f00e7
:102ec000f10f20000089be00060037001e007800c8
:102ed0004200dd0066004000000147006000b800cd
:102ee0000089be001e0fe8007eb890009e007800aa
:102ef000808f5000dbff3500feb89000110798006e
:102f00000a0037001e0090004200dd00660040000d
:102f10000001470000002000f10f20000089be00e2
:102f20001e0090000000e800100798009e0090002e
:102f3000f0032000808f5000f2ff34000000eb000f
:102f4000200798001100370036808000258080001f
:102f500014808000078080002e0090004200dd0079
:102f600066004000000047009000900010007800cc
:102f70000001be0087007800100020002cfe070032
:102f80002e0090000000e80020079800ae0090009e
:102f9000b0032000808f5000ebff34000080fa0067
:102fa000000006000000fa00e05e8400f15e84008c
:102fb000628f2a00432824004df80700dcf7070041
:102fc000000078000080880001808000805f84001d
:102fd0000080500000808800005f8400115f840042
:102fe000628f2a004328240041f80700d0f7070029
:102ff000000078001080880011808000805f8400cd
:103000000080500010808800205f8400315f8400c1
:10301000628f2a004328240035f80700c4f7070010
:10302000000078002080880021808000805f84007c
:103030000080500020808800405f8400515f840041
:10304000628f2a004328240029f80700b8f70700f8
:10305000000078003080880031808000805f84002c
:1030600000805000308088000080fa0000000600d8
:103070000000fa000e0ea900000ea900040ea9001f
:103080000e2ea900002ea900042ea900006ea90092
:10309000046ea90015eea800213a8000f08f2f00e1
:1030a00000806000203a8800213a800000fe2f0056
:1030b00000806000203a8800213a8000f0f32f0061
:1030c00000806000203a880060042000303a8800c8
:1030d0001200200080072000a10920003374200086
:1030e000804978008149780082497800103a800050
:1030f000000178000200a00060042000710520009b
:103100002374200080497800814978008249780042
:1031100000000000113a800000002700808060005d
:1031200000002100808f5000faff3a00040ea80032
:1031300000000000113a80000002200000806000c2
:103140000000e000fbff3200042ea800140ea900ce
:10315000180ea900220ea90092ff07000080fa00b5
:10316000000006000000fa002143a80001198000b9
:103170000030200001007000001988000119800053
:10318000f0f12f00008060000060a00000198800ae
:103190002043a80011198000f0ff2100008060008a
:1031a000101988002343a90011198000f0cf2f00c7
:1031b00000806000101988001119800030f82f007d
:1031c00080806000c003200001007000101988009a
:1031d0002203a90025e3a90021198000f00f2e0089
:1031e000008060002019880030c0b30024e3b700dd
:1031f00028e3a9004119800000fc2f000080600036
:10320000b001b300401988003303a90021a8a80029
:103210000080fa00000006000400fa000a21ef0016
:103220006000b800008fbe00508080006180800088
:1032300042762000d3c72400adf7070002402200e9
:1032400043972400b6f60700008fbe001e017800e9
:103250009e01900000f02f00f177240052f6070045
:1032600033f7070000007800700888000108a90003
:103270002108a9000080fa00000006000000fa0002
:103280007bff0700b7ff0700e3ff070013e1a8007b
:1032900021e3a800605f8400715f840003f70700ea
:1032a00004d92100453f20006033b800c8f807006a
:1032b00004242400f50020006033b8005bf8070008
:1032c0000000be0009000700046ea90000d921001b
:1032d000413f200005000700046ea80000d921002e
:0c32e000413f200001000700f7ff37000d
:020000040000fa
:1032ec00f03fb1000180b10006003500ee0309008b
:1032fc0000000000403fb1000180b100fbff3d0029
:10330c001000b000203fb000020035000080090022
:08331c000000000000000600a3
:020000040000fa
:020000040005f5
:04570000ffff0000a7
:020000040000fa
:020000040005f5
:04572000ffff000087
:020000040000fa
:020000040005f5
:04573000f8ff00007e
:020000040000fa
:020000040005f5
:045738001bff000053
:020000040000fa
:020000040005f5
:045740009fff0000c7
:020000040000fa
:020000040005f5
:04574800ffff00005f
:020000040000fa
:020000040005f5
:04575000ffff000057
:020000040000fa
:020000040005f5
:04575800ffff00004f
:020000040000fa
:020000040005f5
:04576000ffff000047
:020000040000fa
:020000040005f5
:04576800ffff00003f
:020000040000fa
:020000040005f5
:04577000ffff000037
:020000040000fa
:020000040005f5
:04577800ffff00002f
:020000040000fa
:020000040005f5
:04578000ffff000027
:020000040000fa
:020000040005f5
:04578800ffff00001f
:00000001FF
