:020000040000fa
:080000000002040000000000f2
:020000040000fa
:04000800fa020000f8
:020000040000fa
:04000c0002030000eb
:020000040000fa
:040010001a030000cf
:020000040000fa
:04001400bc05000027
:020000040000fa
:040018000a030000d7
:020000040000fa
:04001c0012030000cb
:020000040000fa
:0400200022030000b7
:020000040000fa
:04002400bc05000017
:020000040000fa
:04002800bc05000013
:020000040000fa
:04002c00bc0500000f
:020000040000fa
:04003000bc0500000b
:020000040000fa
:04003400bc05000007
:020000040000fa
:04003800bc05000003
:020000040000fa
:04003c00bc050000ff
:020000040000fa
:04004000bc050000fb
:020000040000fa
:04004400bc050000f7
:020000040000fa
:04004800bc050000f3
:020000040000fa
:04004c00bc050000ef
:020000040000fa
:04005000bc050000eb
:020000040000fa
:04005400bc050000e7
:020000040000fa
:04005800bc050000e3
:020000040000fa
:04005c002a03000073
:020000040000fa
:04006000bc050000db
:020000040000fa
:04006400bc050000d7
:020000040000fa
:04006800bc050000d3
:020000040000fa
:04006c00bc050000cf
:020000040000fa
:04007000bc050000cb
:020000040000fa
:04007400bc050000c7
:020000040000fa
:04007800bc050000c3
:020000040000fa
:04007c00bc050000bf
:020000040000fa
:04008000bc050000bb
:020000040000fa
:04008400bc050000b7
:020000040000fa
:04008800bc050000b3
:020000040000fa
:04008c00bc050000af
:020000040000fa
:04009000bc050000ab
:020000040000fa
:04009400bc050000a7
:020000040000fa
:04009800bc050000a3
:020000040000fa
:04009c00bc0500009f
:020000040000fa
:0400a000bc0500009b
:020000040000fa
:0400a400bc05000097
:020000040000fa
:0400a800bc05000093
:020000040000fa
:0400ac00bc0500008f
:020000040000fa
:0400b000bc0500008b
:020000040000fa
:0400b400bc05000087
:020000040000fa
:0400b800bc05000083
:020000040000fa
:0400bc00bc0500007f
:020000040000fa
:0400c000bc0500007b
:020000040000fa
:0400c400bc05000077
:020000040000fa
:0400c800bc05000073
:020000040000fa
:0400cc00bc0500006f
:020000040000fa
:0400d000bc0500006b
:020000040000fa
:0400d400bc05000067
:020000040000fa
:0400d800bc05000063
:020000040000fa
:0400dc00bc0500005f
:020000040000fa
:0400e000bc0500005b
:020000040000fa
:0400e400bc05000057
:020000040000fa
:0400e800bc05000053
:020000040000fa
:0400ec00bc0500004f
:020000040000fa
:0400f000bc0500004b
:020000040000fa
:0400f400bc05000047
:020000040000fa
:0400f800bc05000043
:020000040000fa
:0400fc00bc0500003f
:020000040000fa
:04010000bc0500003a
:020000040000fa
:04010400bc05000036
:020000040000fa
:04010800bc05000032
:020000040000fa
:04010c00bc0500002e
:020000040000fa
:04011000bc0500002a
:020000040000fa
:04011400bc05000026
:020000040000fa
:04011800bc05000022
:020000040000fa
:04011c00bc0500001e
:020000040000fa
:04012000bc0500001a
:020000040000fa
:04012400bc05000016
:020000040000fa
:04012800bc05000012
:020000040000fa
:04012c00bc0500000e
:020000040000fa
:04013000bc0500000a
:020000040000fa
:04013400bc05000006
:020000040000fa
:04013800bc05000002
:020000040000fa
:04013c00bc050000fe
:020000040000fa
:04014000bc050000fa
:020000040000fa
:04014400bc050000f6
:020000040000fa
:04014800bc050000f2
:020000040000fa
:04014c00bc050000ee
:020000040000fa
:04015000bc050000ea
:020000040000fa
:04015400bc050000e6
:020000040000fa
:04015800bc050000e2
:020000040000fa
:04015c00bc050000de
:020000040000fa
:04016000bc050000da
:020000040000fa
:04016400bc050000d6
:020000040000fa
:04016800bc050000d2
:020000040000fa
:04016c00bc050000ce
:020000040000fa
:04017000bc050000ca
:020000040000fa
:04017400bc050000c6
:020000040000fa
:04017800bc050000c2
:020000040000fa
:04017c00bc050000be
:020000040000fa
:04018000bc050000ba
:020000040000fa
:04018400bc050000b6
:020000040000fa
:04018800bc050000b2
:020000040000fa
:04018c00bc050000ae
:020000040000fa
:04019000bc050000aa
:020000040000fa
:04019400bc050000a6
:020000040000fa
:04019800bc050000a2
:020000040000fa
:04019c00bc0500009e
:020000040000fa
:0401a000bc0500009a
:020000040000fa
:0401a400bc05000096
:020000040000fa
:0401a800bc05000092
:020000040000fa
:0401ac00bc0500008e
:020000040000fa
:0401b000bc0500008a
:020000040000fa
:0401b400bc05000086
:020000040000fa
:0401b800bc05000082
:020000040000fa
:0401bc00bc0500007e
:020000040000fa
:0401c000bc0500007a
:020000040000fa
:0401c400bc05000076
:020000040000fa
:0401c800bc05000072
:020000040000fa
:0401cc00bc0500006e
:020000040000fa
:0401d000bc0500006a
:020000040000fa
:0401d400bc05000066
:020000040000fa
:0401d800bc05000062
:020000040000fa
:0401dc00bc0500005e
:020000040000fa
:0401e000bc0500005a
:020000040000fa
:0401e400bc05000056
:020000040000fa
:0401e800bc05000052
:020000040000fa
:0401ec00bc0500004e
:020000040000fa
:0401f000bc0500004a
:020000040000fa
:0401f400bc05000046
:020000040000fa
:0401f800bc05000042
:020000040000fa
:0401fc00bc0500003e
:020000040000fa
:04020000bc05000039
:020000040000fa
:04020400bc05000035
:020000040000fa
:04020800bc05000031
:020000040000fa
:04020c00bc0500002d
:020000040000fa
:04021000bc05000029
:020000040000fa
:04021400bc05000025
:020000040000fa
:04021800bc05000021
:020000040000fa
:04021c00bc0500001d
:020000040000fa
:04022000bc05000019
:020000040000fa
:04022400bc05000015
:020000040000fa
:04022800bc05000011
:020000040000fa
:04022c00bc0500000d
:020000040000fa
:04023000bc05000009
:020000040000fa
:04023400bc05000005
:020000040000fa
:04023800bc05000001
:020000040000fa
:04023c00bc050000fd
:020000040000fa
:04024000bc050000f9
:020000040000fa
:04024400bc050000f5
:020000040000fa
:04024800bc050000f1
:020000040000fa
:04024c00bc050000ed
:020000040000fa
:04025000bc050000e9
:020000040000fa
:04025400bc050000e5
:020000040000fa
:04025800bc050000e1
:020000040000fa
:04025c00bc050000dd
:020000040000fa
:04026000bc050000d9
:020000040000fa
:04026400bc050000d5
:020000040000fa
:04026800bc050000d1
:020000040000fa
:04026c00bc050000cd
:020000040000fa
:04027000bc050000c9
:020000040000fa
:04027400bc050000c5
:020000040000fa
:04027800bc050000c1
:020000040000fa
:04027c00bc050000bd
:020000040000fa
:04028000bc050000b9
:020000040000fa
:04028400bc050000b5
:020000040000fa
:04028800bc050000b1
:020000040000fa
:04028c00bc050000ad
:020000040000fa
:04029000bc050000a9
:020000040000fa
:04029400bc050000a5
:020000040000fa
:04029800bc050000a1
:020000040000fa
:04029c00bc0500009d
:020000040000fa
:0402a000bc05000099
:020000040000fa
:0402a400bc05000095
:020000040000fa
:0402a800bc05000091
:020000040000fa
:0402ac00bc0500008d
:020000040000fa
:0402b000bc05000089
:020000040000fa
:0402b400bc05000085
:020000040000fa
:0402b800bc05000081
:020000040000fa
:0402bc00bc0500007d
:020000040000fa
:0402c000bc05000079
:020000040000fa
:0402c400bc05000075
:020000040000fa
:0402c800bc05000071
:020000040000fa
:0402cc00bc0500006d
:020000040000fa
:0402d000bc05000069
:020000040000fa
:0402d400bc05000065
:020000040000fa
:0402d800bc05000061
:020000040000fa
:0402dc00bc0500005d
:020000040000fa
:0402e000bc05000059
:020000040000fa
:0402e400bc05000055
:020000040000fa
:0402e800bc05000051
:020000040000fa
:0402ec00bc0500004d
:020000040000fa
:0402f000bc05000049
:020000040000fa
:0402f400bc05000045
:020000040000fa
:0402f800bc05000041
:020000040000fa
:0402fc00bc0500003d
:020000040000fa
:04030000bc05000038
:020000040000fa
:04030400bc05000034
:020000040000fa
:04030800bc05000030
:020000040000fa
:04030c00bc0500002c
:020000040000fa
:04031000bc05000028
:020000040000fa
:100400000f8121000eff22000e0188000000000075
:10041000100020000000e000020032000001200077
:1004200020028800140007002a0407000000e000f2
:1004300003003a00c0ff2000010020000200370046
:100440000000200001002000810f70000100320038
:100450000f000700000020000000e0000200320052
:100460000000020000000000561f02000000000013
:100470000040da000000fe00600120000000e00003
:1004800002003200002020009001880000000600d9
:10049000a1028800800478000000eb001f003700f4
:1004a000e284440054a0b4009905ba00e2844400f8
:1004b00054a0b4009906ba00e284440054a0b400e9
:1004c0000006eb00476fde00fd07b200ae018800ba
:1004d000636ce10003003a000ad801000000eb0061
:1004e0000e003700606ce10008003a00004deb00a0
:1004f0000a05e800020039003420ec000af0a000f0
:100500008b05e900f9ff3e00040037006168e10057
:10051000010032000086eb000b00070019c7ba008b
:100520000e04e0001905ba0003003a000a00e000da
:10053000dbff3a0000000600fe07b200ae028800b2
:100540008a047800f5ff37000cd0a300e20f4d00bd
:100550001c00390089027800354dba000a05e80010
:10056000020039003420ec000af0a0008b05e900fd
:100570000f003200254dba000a05e80002003900dc
:100580003420ec000af0a0008b05e90008003200de
:100590000c00e0000600320015cdba000a05e800a4
:1005a000020039003420ec000af0a0008b05e900bd
:1005b0008984e80054a0b4000b00e000e2ff3a0098
:1005c000000006009902ba00055d78008b05e9007d
:1005d000f7ff3200c82ade00055d78008b05e900d0
:1005e000f3ff32000c00e000f1ff320019ddba0029
:1005f000eeff37003600f800c028a9000000eb002d
:10060000950e07003600f800c068a9002000200001
:10061000910e07003600f800c088a90030002000c5
:100620008d0e07003600f800c0a8a9004000200089
:10063000890e07003600f800c608a90070002000e7
:10064000850e07003600f800c488a900a00020002d
:10065000810e07003600f800809fbe00829fbe001a
:10066000849fbe00869fbe000000fa000b70ef0062
:100670000bd0bf000080fb0001188000000140008b
:1006800000c0240000004100010878000bd0bf002a
:100690000040e8000bf0b7000bd0bf000080fb006b
:1006a000111880000001400000c02400000041003b
:1006b000010878000bd0bf000040e8000bf0b70045
:1006c0000bd0bf000080fb0021188000000140001b
:1006d00000c0240000004100010878000bd0bf00da
:1006e0000040e8000bf0b7000bd0bf000080fb001b
:1006f000311880000001400000c0240000004100cb
:10070000010878000bd0bf000040e8000bf0b700f4
:100710000bd0bf000080fb004118800000014000aa
:1007200000c0240000004100010878000bd0bf0089
:100730000040e8000bf0b7000bd0bf000080fb00ca
:10074000511880000001400000c02400000041005a
:10075000010878000bd0bf000040e8000bf0b700a4
:100760000bd0bf000080fb0061188000000140003a
:1007700000c0240000004100010878000bd0bf0039
:100780000040e8000bf0b7000bd0bf000080fb007a
:10079000711880000001400000c0240000004100ea
:1007a000010878000bd0bf000040e8000bf0b70054
:1007b0000bd0bf000080fb008118800000014000ca
:1007c00000c0240000004100010878000bd0bf00e9
:1007d0000040e8000bf0b7000bd0bf000080fb002a
:1007e000911880000001400000c02400000041007a
:1007f000010878000bd0bf000040e8000bf0b70004
:100800000bd0bf000080fb00a11880000001400059
:1008100000c0240000004100010878000bd0bf0098
:100820000040e8000bf0b7000bd0bf000080fb00d9
:10083000b11880000001400000c024000000410009
:10084000010878000bd0bf000040e8000bf0b700b3
:100850000bd0bf000080fb00c118800000014000e9
:1008600000c0240000004100010878000bd0bf0048
:100870000040e8000bf0b7000bd0bf000080fb0089
:10088000d11880000001400000c024000000410099
:10089000010878000bd0bf000040e8000bf0b70063
:1008a0000bd0bf000080fb00e11880000001400079
:1008b00000c0240000004100010878000bd0bf00f8
:1008c0000040e8000bf0b7000bd0bf000080fb0039
:1008d000f11880000001400000c024000000410029
:1008e000010878000300240002c0240001c0240095
:1008f000000120005f01070040808000016082004d
:100900004201dd00000023000000410001087800e2
:10091000408080000000e800408088004080800027
:10092000116082004201dd00000023000000410050
:1009300001087800408080000000e80040808800c6
:1009400040808000216082004201dd000000230021
:100950000000410001087800408080000000e800ad
:100960004080880040808000316082004201dd00cc
:100970000000230000004100010878004080800052
:100980000000e800408088004080800041608200d4
:100990004201dd0000002300000041000108780052
:1009a000408080000000e800408088004080800097
:1009b000516082004201dd00000023000000410080
:1009c00001087800408080000000e8004080880036
:1009d00040808000616082004201dd000000230051
:1009e0000000410001087800408080000000e8001d
:1009f0004080880040808000716082004201dd00fc
:100a000000002300000041000108780040808000c1
:100a10000000e80040808800408080008160820003
:100a20004201dd00000023000000410001087800c1
:100a3000408080000000e800408088004080800006
:100a4000916082004201dd000000230000004100af
:100a500001087800408080000000e80040808800a5
:100a600040808000a16082004201dd000000230080
:100a70000000410001087800408080000000e8008c
:100a80004080880040808000b16082004201dd002b
:100a90000000230000004100010878004080800031
:100aa0000000e8004080880040808000c160820033
:100ab0004201dd0000002300000041000108780031
:100ac000408080000000e800408088004080800076
:100ad000d16082004201dd000000230000004100df
:100ae00001087800408080000000e8004080880015
:100af00040808000e16082004201dd0000002300b0
:100b00000000410001087800408080000000e800fb
:100b10004080880040808000f16082004201dd005a
:100b200000002300000041000108780040808000a0
:100b30000000e800408088004180800000402000e4
:100b4000808f500004003a0010c0b3000af0b700d4
:100b50002043a90021a8a90001a8a9000080fa004b
:100b60004f03be004f02be004f01be004f00be004b
:100b70003600f900004006000040da000000fe00e8
:100b8000f6874700889fbe008a9fbe008c9fbe00ec
:100b90008e1f7800f1af9f008204780018002000bb
:100ba0000040dd004f04de00000044000084d1005e
:100bb0000000200001f823007d010700ffa8970036
:100bc000800878000000eb00900098006140b900b8
:100bd000520307000001be00b0fd20009104240074
:100be000a502070080057800010578000b00780059
:100bf0008a0078009e020700b0b79f00a1b79f004f
:100c00000900e000940032000a01be0003007800f1
:100c100082007800400407000006be000883e90057
:100c200086003300ffab9700648543008c04780096
:100c30000d047800bfb597002fb797000b00780020
:100c40008e00780086bf9f0059010700000d7800d4
:100c50000900780088007800550107001005980009
:100c600064054500bfb097002fb0970001017800e0
:100c7000800178000b0078008e007800890307005f
:100c80000002be000c01be00c8b79f00090078003a
:100c900088007800e4b79f00f5b79f008103070044
:100ca0000001be006fb29700ffb297000400be00c3
:100cb0000902070090b79f0081b79f00bfb097005f
:100cc0002fb09700010178008001780009027800b8
:100cd0008800780004047800810478000800be00d1
:100ce0007003070080047800010478000c01be0046
:100cf0000b0278008e007800c4b79f00d1b79f0028
:100d00004fb09700dfb09700660307000902780034
:100d10008801780004047800830478000801be008c
:100d2000ee01070080047800010478000fbb9700f3
:100d30000603e900410033009fb597000fb7970005
:100d40000b0078008e00780086bf9f001801070016
:100d5000000d780009007800880078001401070071
:100d60001005980064054500bfb097002fb09700ac
:100d700001017800800178000b0078008e00780077
:100d8000480307000002be000c01be00c8b79f0068
:100d90000900780088007800e4b79f00f5b79f004d
:100da000400307000001be006fb29700ffb297003a
:100db0000400be00c801070090b79f0081b79f00e4
:100dc000bfb097002fb09700010178008001780034
:100dd0000902780088007800040478008104780013
:100de0000800be002f03070080047800010478008b
:100df0000c01be000b0278008e007800c4b79f0083
:100e0000d1b79f004fb09700dfb0970025030700d0
:100e100009027800880178000404780083047800cf
:100e20000801be00ad0107008004780001047800cd
:100e30000fbb97000603e900bfff3b007fa89700a8
:100e40004f0778004f06be004f05be004f04be009e
:100e50006f01b100000006000a01be000300780027
:100e600082007800ac0307000006be000df0a2006f
:100e70006aff37003200f80001c0fe004400f800ad
:100e8000040f200024028800811f78000000e90080
:100e9000030278000080080002000000b20278001f
:100ea0001301c0003100cd004f0078004400f9006c
:100eb0003200f90000000600889fbe008a9fbe0035
:100ec0008c9fbe008e1f78004400f800070f2000a2
:100ed000270288003200f800811f78000f07780091
:100ee00007f02f000338e1004800320003d0fe0075
:100ef000040180004d6182000500230019002000dc
:100f0000804cdd008904d0000f85440008003100ca
:100f100005055500060031008d84440004003100b1
:100f20008f84440002003100848654003000390070
:100f300019002000804cdd0013002000020478001e
:100f4000800678008904d100424edd00010578005a
:100f50000302e900048008002000000000000000f7
:100f60008a0546004218dd000902e90004800800f5
:100f700018000000000000004620c3003200f80006
:100f800001c0fe00000000003b0252003200f900e8
:100f9000df35c100080440001381c2003200f800b0
:100fa00001c0fe0000000000ab825200264dc500cb
:100fb0003e85c400bb00cd00bb80cd003a00ca0016
:100fc0002a80ca003200f9000700c9000580c90064
:100fd000ba00cd00ba80cd000a05460002047800b0
:100fe0008301d0008d06e900d6ff3c002f003700ba
:100ff00019002000804cdd000f0478008906e9000c
:101000000d800900b21f78000801780001c0fe00c1
:1010100019002000804cdd0013002000020478003d
:10102000800678008904d100424edd000105780079
:101030000302e9000480080018000000000000001e
:101040008a0546004218dd000902e9000480080014
:1010500010000000000000004620c3003b025200c8
:10106000df35c100080440001381c200ab8252008a
:10107000264dc5003e85c400bb00cd00bb80cd0021
:101080003a00ca002a80ca000700c9000580c900ca
:10109000ba00cd00ba80cd000a05460002047800ef
:1010a0008301d0008d06e900deff3c008e0778004a
:1010b0004f0078003200f9004400f9004f07780033
:1010c0004f06be004f05be004f04be0000000600e4
:1010d0003200f80001c0fe004600f8005000f800a1
:1010e00002202000320288000200280013002000a5
:1010f0008019dd0002817100820288000100780001
:101100000101780026002000470020008301e9004b
:1011100003800800070000000110e1000400340013
:101120001102be0092087800e2307b000489be0004
:1011300087804000121978005000f9004600f9003d
:101140003200f900000006003200f80001c0fe0085
:10115000821f7800849fbe008a1f78004400f80038
:10116000040f200024028800010578000601c30056
:101170000080e9000080080003000000000000007b
:101180000505f0000401f1003200cd000505f00076
:101190001001f1003200cd004400f9004f05780045
:1011a0004f02be004f0078003200f9000000060038
:1011b000e8874700889fbe008a9fbe008c9fbe00c4
:1011c0008e1f78000005be0002002000037024007e
:1011d0003402070080047800010478006011b80030
:1011e0000a00be008f0107000000e0003700350054
:1011f0000900780088007800cd0107008b01070006
:101200000005be000a00be00c40107000006be00c3
:101210000200200003f023002202070000077800ec
:1012200081bf9f00010178000e00780082007800e5
:10123000bf010700e0b79f00f1b79f000c01be009f
:1012400009027800880078000403780081037800a0
:101250000600be00a00007000004be00020020003f
:1012600003f023000800be006e0107000000e0004c
:101270007b0034000200200003f823000c00be00b5
:1012800096000700690107000005be008a0178008a
:101290000b0178000300780082007800f3ff27003c
:1012a000830f5000e08f580002003400f0ff270049
:1012b000010020004f0778004f06be004f05be001a
:1012c0004f04be008f00b100000006000900780046
:1012d00088007800de000700540107000006be0009
:1012e0000c00be008d0107000005be00090178005a
:1012f000880178000a00be00950107000000e000a8
:10130000090032000200200003f823000a00be009a
:1013100071000700450107000006be000c00be007a
:101320007e0107000005be000200200003f023003c
:101330000a00be00db0107000007780081bf9f00a4
:10134000010178000e007800820078007801070023
:10135000e0b79f00f1b79f000a01be0009027800c4
:101360008800780004037800810378000600be003e
:10137000590007000004be000200200003f0230013
:101380000800be00270107000000e000170034003d
:101390000200200003f823000a00be004f000700ef
:1013a000220107000006be008c0178000d017800c4
:1013b000030078008200780002002800f3ff2f006d
:1013c000820f5000838f5800baff3d000200be001c
:1013d0004f0778004f06be004f05be004f04be0009
:1013e0008f00b10000000600b8ff370002002000a7
:1013f00003f02300880078000900780001027800db
:10140000800278000400be00040107000000e00034
:10141000e5ff3a006fb19700ffb197008e027800a8
:101420000fba970005007800840078002a000700b2
:101430000001be0029000700fc0007000000e000da
:10144000d9ff32000200200003f823000a00be008a
:1014500022000700f50007000006be00d2ff37009b
:101460000200200003f023008800780009007800c3
:1014700001027800800278000400be00e700070047
:101480000000e00081ff3a006fb19700ffb19700c4
:101490008e0278000fba970005007800840078006b
:1014a0000d0007000001be000c000700df00070070
:1014b0000000e00075ff32000200200003f8230066
:1014c0000c00be0005000700d80007000005be00a4
:1014d0006eff37000000050003f0a200889fbe00e9
:1014e0008a9fbe008c1f7800560107005d01330003
:1014f0006450e1004f0032006420e10052003200ed
:1015000003826c0007003b000905d0000306d000f1
:10151000820f54000c065d00020039000200320008
:1015200089017800030678008582550004003d009b
:101530000003fd008103fd008502ea008b85420067
:10154000840f720002003b0060001000e080180071
:101550006011b8000005eb007a28e1000a003900ac
:1015600006007800c75ddd00f707b20087807500d0
:101570002d003700828171000a017800610560004a
:101580008180d1000080d3008502e900f9ff3b0093
:10159000060440008784480002003b0060041400f9
:1015a000e0841c000988a300070032008a817100d2
:1015b00082817100610164008904d1000884d30034
:1015c0008b05e800170037000978a30013003a00e4
:1015d0000b00e000130034008b05e9000804440010
:1015e00089844c000a4474000978a3000d003a0075
:1015f0000b00e000070034008b05e90008044400fc
:1016000089844c0001003a000b0020000978a300f7
:10161000f7ff32000001eb00020037008281710009
:101620000a017800cc0007000cf0a70001f0a00030
:10163000150137006420e10002003a00838f6c003e
:10164000150133000801be000200be000e01370084
:101650000001eb004a0007000400320002002000f5
:1016600003f8230001f0a6009cff0700000006001d
:101670000081eb003f013700889fbe008a9fbe00bb
:101680008c1f7800ef000700f600330003866c0023
:101690006450e1002e0032006420e100330032008b
:1016a0006150e1002f0032006120e1003100320082
:1016b00085855500eb07b0000900200008042000d4
:1016c000050037000804440089844c000a003100fa
:1016d0000603430087834b000001530081815b00b8
:1016e000f8ff33000203be000800a0000804440015
:1016f00089844c00f6ff3900c639dd008301730090
:1017000001003200130020008904d1000884d300b6
:101710000998a300050032000800a7000300a000fc
:101720008904d1000884d3008b05e8008904d10026
:101730000884d3000001eb000281d200860007007c
:1017400001f0a1000cf0a70001f0a000ce003700ce
:101750006420e100d00032000801be000200be009b
:10176000f7ff37006120e100cb0032006000b800d5
:10177000f3ff37000000200001f82700f0ff3700da
:10178000889fbe008a9fbe000003be00980007002d
:101790008505780082815200020020006220e1006d
:1017a00004003a00f307b100040035007718e100a7
:1017b000040035000600be00140037006000b800c9
:1017c0000f003700f50f2000faff2f008502d1002f
:1017d0000a85d3008301e900fcff3b00818462009d
:1017e00000046500890f7400f2ff32008582ea0070
:1017f0000a85ea0081846200000465005600070043
:1018000007f0a70001f0a0000081eb000200e0005b
:101810004f05be004f04be0000000600140020006b
:101820003f013700f4ff2f003d0137000001be00eb
:101830006f0007000470a70003f0a1006509b10064
:10184000160032000d0035006828e1000600350062
:10185000f0ff2f00f1ff27000300e00013003b0022
:1018600001002800000005000000400081804800c1
:101870008502e900fcff3a0008003700f88f4200bb
:1018800002003c008000eb00000005008100d10058
:101890000080d3008502e800fcff3a000300e0006e
:1018a00002003b0060001000e0801800000006000d
:1018b0000001be004e0007000470a70003f0a10065
:1018c00003f8a30013003a006509b10010003200cc
:1018d000090035006928e1000200350001002800f8
:1018e0000000050000004000818048008502e900fa
:1018f000fcff3a0000000600f88f420005003500aa
:101900008100d1000080d3008502e800fcff3a008e
:10191000000006008000eb00000005004f89de009b
:1019200082017800190137006011b80027013700e3
:101930000001eb0092ff07000400320002002000cb
:1019400003f8230001f0a700e3fe070000000600f3
:1019500004002000f2003700810020006180550063
:101960000b003d000b00200061fe2f000100e10094
:101970001d00340082817100610164008904d1007e
:101980000884d3000000e800faff3a00710020004c
:101990006100640003007000020060000900320072
:1019a00061044400e0844c000988a5000500320071
:1019b0008b05e8006808e10002003a008904d100c4
:1019c0000884d300f20f20000258e10005003d001a
:1019d000c75ddd00f907b200898075000800780056
:1019e000000006000bf827008b00780000000500bf
:1019f000c70ade00f107b200f50fb200080032009e
:101a0000e1cf4200020032000170a0002400050076
:101a1000810f700001003200040805004400050039
:101a2000810f700002003a00140005008502e900f1
:101a30000000400081c04800fcff3b000170a00096
:101a4000240005000004be00e9ff07000003be00fb
:101a50000405be000200be00e5ff0700844f7500cc
:101a6000000006000200be006450e10005003600e0
:101a70006420e100020036000968a30001003a007a
:101a80000800be000160a0004f0678004f05be00b0
:101a90004f04be0000000600f0ff2f00f1ff2700fa
:101aa000f9ff3700889fbe008a9fbe008c1f780018
:101ab000e4ff0700ebff330003866c006450e10095
:101ac000240032006420e100270032006150e10070
:101ad000220032006120e100210032008b854200ab
:101ae000eb07b1000134b800003ab8000804420026
:101af00089844a00013ab8000030b800888040006c
:101b000009014a00040033000000400081804800c1
:101b1000020149008b05e900c909dd00830170005d
:101b20000100320013002000c814de004814dd005c
:101b30004709de001200b200c808de000884700009
:101b400085ff070001f0a1000cf0a70001f0a00044
:101b5000cdff37006120e100cfff32000801be0059
:101b60000200be00f7ff37006150e100fcff3a00c1
:101b7000c9ff3700889fbe008a9fbe008c9fbe00b1
:101b8000820578000004be0099ff07000800be002f
:101b90006420e1000700390002003a00f1ff27004d
:101ba000f0ff2f000160a000120220007280880068
:101bb000550037006120e10003003a000b00a70048
:101bc00001f823005000370001f0a10002002100bd
:101bd0009364240011ff07000800be0004003500d4
:101be000b2fd2000930c2400a70007000004be00f3
:101bf0000005eb000b00a6004f0dde0001f0a10078
:101c00000004be0032982f0023ea2300a5ff07003e
:101c10000001eb0003f023000b00a70003f82300f2
:101c20002efe070001ff07000000a7000a00a20027
:101c30003aff07000b00e000030032000200200022
:101c400003f0230024fe070001f0a2000006be00fe
:101c5000020020009304240092ff07000801be0048
:101c60001efe0700809fbe000c00be0022a22a00bc
:101c7000d3a723008bff07004f01be0017fe07000c
:101c80000004be0001f0a100020020000398230020
:101c9000e2fe07000800be00190035000001be008a
:101ca00080ff07000006be00b2c52900e3622300e2
:101cb0007cff070022222b00f3942b0007fe070075
:101cc0000c01be0077ff0700e273280083c02300e9
:101cd00002fe07000c01be0072ff070042aa2a00a4
:101ce000a3e22b00fdfd07000c01be006dff070005
:101cf0000801be006bff07000801be00f7fd0700ea
:101d00000a00a70001f0a2004f06be004f05be006a
:101d10004f04be00000006000001eb0095ff3700f5
:101d2000889fbe008a9fbe00841f780045ff070081
:101d30004f00780011003300f0ff2f00838f6c00fc
:101d400006003b00040565000a00a70008003700f4
:101d500009f0a6001000200008003700820f540090
:101d6000838f5c00030039001000200001003e005a
:101d70000000200009f0a7000000ea004f05be00a7
:101d80004f04be000000e00000000600881f78003d
:101d9000030478000300e00007003d00600010002d
:101da000e080180060011900e081190002003b008a
:101db00001f02d00030037000400070008f0a70021
:101dc00001f0a0004f04780000000600889fbe00cc
:101dd0008a9fbe00008270000402710004827100bc
:101de000260032000004be000200be006011b800f0
:101df0006b092000950220000182cf000a00390003
:101e00000541b1000082cf00070039000541b10053
:101e10000982cf00040039000541b1000882cf00db
:101e2000010039000541b1000542520012003200a4
:101e30000a003b0082817100610164008100d100d1
:101e40000080d3008984d3000884d3008b05e80088
:101e50000442e800f7ff3a00070037000804440096
:101e600089844c0000004800818048008b05e9000f
:101e70000442e900f9ff3a00b7fe07004f05be0033
:101e80004f04be00000006000400200000003700e0
:101e9000889fbe008a9fbe008c1f78004f26dd0001
:101ea000e8fe0700effe33006120e100430032004e
:101eb0006250e10041003e003e0039006420e10034
:101ec0003c003200058255000f003b000402e80090
:101ed00038003a00800f5300818f5b0035003400da
:101ee0000800be0003f0a10001f0a60003f0a0006e
:101ef0000cf0a70079fd0700e3fe3700060343005e
:101f000087834b000c4646000005530081855b002b
:101f1000020033000a03be000c00a0000402e90026
:101f2000f6ff3b00850578000602430087824b00e0
:101f300004003a006000b80009f0a70001f0a0001a
:101f4000d1fe37000002520081825a000704e000ef
:101f5000040033000603430087834b008b05e90030
:101f6000faff3700090578000604be000203be0030
:101f70006011b80078fe0700e00f5200e08f5a00b1
:101f80000700350002003c000c08a30004003200ea
:101f90000601be0003f0a0000cf0a7004ffd0700f3
:101fa0000a85680001f0a1000af0a70001f0a00076
:101fb000b5fe37000800be00b3fe37001002200057
:0c1fc0000cf0a60070808800b3fe370013
:020000040000fa
:101fcc009a990000993f000014ae0000873e000073
:101fdc009a990000993e00009a990000993f0000e0
:0c1fec0000000000fa43000004000000a8
:020000040000fa
:101ff8000c1000000200000082000000ffff00003b
:10200800264c000002000000800000000040000094
:10201800000c0000820000000000000000880f0093
:10202800c90020001d920100d7265b0002bf2a00cc
:102038002403e60026ed03005d19b6000435000010
:102048007f057c00d947060045a31000079e5b006a
:10205800d9079a0000a2080049906a0009bd080043
:10206800330a050068fb0a0035acc3000b5ed300d9
:102078008b0c9200db530d00e4c21b000e66870038
:10208800e30e2b0027ab0f0048a0720010cff00022
:102098003911d500160112006f10c80012b1db000b
:1020a8008e13b1007655140086df1b001545140009
:1020b800e215050013a81600ded96d0017e96600c1
:1020c80033183c00b8f81800f3cbbd001926a0005f
:1020d800821aef0032471b006a820b001cb38c0087
:1020e800cf1ce5004f931d001eca56001e7bf90049
:1020f800191f1b00dcdc1f001c709f0020a0b30010
:102108006121c500a4232200af41e500227f880099
:10211800a6235800776724005e0c280025b64500e2
:10212800e825860021a82600f49d67002728b90025
:1021380026284b0071e5280085c4a3002901b100b9
:10214800612aeb00341f2b006f4edc002bbafb001a
:10215800982cfc003a552d00620a11002e1e6800ca
:10216800cc2e620052872f0061c74100304dc50058
:10217800fb305e004ab53100c7546e0032c3e2003e
:1021880026338700f2de33005082960034579000e1
:102198004d35d9001a0436001420ba0036469e0080
:1021a8006f37b0009324380093fed8003832dd0032
:1021b8008c39d2002d403a00b7eef2003a291e00c1
:1021c800a53b7000ba563c00d6c107003da63200b8
:1021d800b83d2c000b683e00b84917003f98ec004a
:1021e800c53f1d00f27340009b58210041651e0049
:1021f800ce41d000417a420035c1250043ed9a0016
:10220800d0435000cd7a4400bd562400458f350098
:10221800cd45280068754600e7ec1c00472fc20032
:10222800c3476500e6694800ee570f0049331500bb
:10223800b4499e001c584a00986cfb004a90030061
:102248009e4bf400df3f4c003400e1004cc46200b8
:10225800814d170006214e00a5e8bf004ee3080097
:102268005e4f4d0065fb4f005efc97005094cc001c
:1022780033516e00d4ce51006e1269005218850099
:102288000253f0002a9b53007d023300544b0a008e
:10229800ca54e20040605500d2a4f50055a93400a4
:1022a8008a56fa00ee1d570056d2b0005754dd008a
:1022b80042588c000ed45800986464005912de000d
:1022c800f3599a0079825a00cf3510005b541100f7
:1022d8009d5bcc000a295c00e020b4005c3752000a
:1022e8003e5d7c009dc75d005d0150005e8a7c00fc
:1022f800d75eb3000d5e5f008db3e3005fcf6c0067
:102308006860300038ec60006c146f00613f0000ba
:10231800f1616900fa716200ac01f20062cc14004c
:102328007163900032ef6300bf596c006426890026
:10233800e8649200bf636500d3fbdd0065bb3c0029
:102348005766200081cf6600d8c7460067bd0f00da
:10235800bd67ab0057326800819ea6006820e30085
:1023680019696c00248c69004a61fd0069a4980011
:102378006d6a6400c9dc6a0079f24a006bd1120008
:10238800b86b600029246c001c358f006cfc34008d
:10239800f96cfa0027626d00140dca006d4ae3005b
:1023a800306e9d00a9966e00125ffb006eb20200af
:1023b8005f6f850093c16f009a10230070ff78004b
:1023c8008370c600cbe270000508410071d22c0072
:1023d8009e71490039fa7100852c550072a70500d5
:1023e800af72d000c307730026665f0073d1eb009d
:1023f800b573fb00530b7400d19d5f007484c80053
:10240800b2744500d30475004cbd550075cf8500e6
:10241800a5750b002cf475003daf410076a60e00a3
:102428008e76890049d976002d5f230077db4e0030
:102438006c77df0017b4770089b9fa007729330081
:102448004078140084847800a2abc700782da900d6
:10245800097912007c4a7900b1238a00796e9f00bd
:10246800c879ad00ee057a00d81042007a5b050005
:102478007d7aa400cbb67a002363ef007a4fcb00b5
:10248800267b9e00035d7b00890b92007b90e20017
:10249800c57b300088f87b00eefb29007c503d00ae
:1024a8005a7cde004b897c002427b7007cb2ce0022
:1024b800e37c1800420f7d00ec8039007dc68a005d
:1024c800627d40005f8a7d00f8fdb0007d8f660068
:1024d800d67da80098fa7d00ea931d007eff57007c
:1024e8003f7e9300e45f7e0057397f007efc5500f5
:1024f8009d7e39003aba7e00c6e5d5007e60580058
:10250800f07ec40091097f00b49121007ff6570046
:10251800387f5100e44d7f008f3662007f804e0087
:10252800757ff3002b877f00bdce97007fb4360000
:10253800a77fb30063b57f009655c2007f3e0c00ad
:10254800ce7f8e0087d87f006bc7e1007fc0cb00ad
:10255800e97f780094f07f008221f6007fd1720035
:10256800fa7f5a0088fd7f001662ff007fffff0098
:10257800ff7f160062ff7f005a88fd007fd172003e
:10258800fa7f820021f67f007894f0007fc0cb00ac
:10259800e97f6b00c7e17f008e87d8007f3e0c0083
:1025a800ce7f960055c27f00b363b5007fb4360076
:1025b800a77fbd00ce977f00f32b87007f804e005a
:1025c800757f8f0036627f0051e44d007ff657001b
:1025d800387fb40091217f00c49109007f605800c2
:1025e800f07ec600e5d57e00393aba007efc55007b
:1025f8009d7e5700397f7e0093e45f007eff570081
:102608003f7eea00931d7e00a898fa007d8f660041
:10261800d67df800fdb07d00405f8a007dc68a0047
:10262800627dec0080397d0018420f007db2ce003b
:10263800e37c240027b77c00de4b89007c503d00fa
:102648005a7cee00fb297c003088f8007b90e20081
:10265800c57b89000b927b009e035d007b4fcb00fe
:10266800267b230063ef7a00a4cbb6007a5b0500d3
:102678007d7ad80010427a00adee05007a6e9f0090
:10268800c879b100238a7900127c4a00792da90003
:102698000979a200abc77800148484007829330034
:1026a80040788900b9fa7700df17b40077db4e006d
:1026b8006c772d005f2377008949d90076a60e0034
:1026c8008e763d00af4176000b2cf40075cf850067
:1026d800a5754c00bd55750045d304007584c80028
:1026e800b274d1009d5f7400fb530b0074d1eb00f2
:1026f800b5732600665f7300d0c3070073a7050093
:10270800af7285002c5572004939fa0071d22c003d
:102718009e71050008417100c6cbe20070ff780089
:1027280083709a00102370008593c1006fb2020075
:102738005f6f12005ffb6e009da996006e4ae30072
:10274800306e14000dca6d00fa2762006dfc34006b
:10275800f96c1c00358f6c00602924006cd11200c4
:10276800b86b7900f24a6b0064c9dc006aa498006f
:102778006d6a4a0061fd69006c248c006920e300e1
:10278800196981009ea66800ab57320068bd0f002a
:10279800bd67d800c74667002081cf0066bb3c00f4
:1027a8005766d300fbdd650092bf6300652689008c
:1027b800e864bf00596c64009032ef0063cc1400e9
:1027c8007163ac0001f2620069fa7100623f0000b7
:1027d800f1616c00146f61003038ec0060cf6c0060
:1027e80068608d00b3e35f00b30d5e005f8a7c0014
:1027f800d75e5d0001505e007c9dc7005d375200ca
:102808003e5de00020b45c00cc0a29005c54110055
:102818009d5bcf0035105b009a7982005a12de006a
:10282800f3599800646459008c0ed4005854dd00a4
:1028380042585600d2b05700faee1d0057a934008e
:102848008a56d200a4f55500e2406000554b0a00b4
:10285800ca547d0002335400f02a9b0053188500a7
:1028680002536e00126952006ed4ce005194cc000f
:1028780033515e00fc9750004d65fb004fe30800a4
:102888005e4fa500e8bf4e00170621004ec4620047
:10289800814d340000e14c00f4df3f004c90030010
:1028a8009e4b98006cfb4a009e1c58004a3315004a
:1028b800b449ee00570f490065e66900482fc20089
:1028c800c347e700ec1c470028687500468f3500b1
:1028d800cd45bd005624450050cd7a0044ed9a0000
:1028e800d0433500c1254300d0417a0042651e001f
:1028f800ce419b00582141001df273004098ec0026
:10290800c53fb80049173f002c0b68003ea63200af
:10291800b83dd600c1073d0070ba56003c291e00dc
:10292800a53bb700eef23a00d22d40003a32dd0066
:102938008c399300fed83800b093240038469e00a6
:102948006f37140020ba3600d91a040036579000a1
:102958004d3550008296340087f2de0033c3e20022
:102968002633c700546e32005e4ab500314dc500ab
:10297800fb306100c7413000625287002f1e68009b
:10298800cc2e62000a112e00fc3a55002dbafb002d
:10299800982c6f004edc2b00eb341f002b01b1008c
:1029a800612a8500c4a329004b71e5002828b900d5
:1029b8002628f4009d6727008621a80026b6450032
:1029c800e8255e000c28250058776700247f8800da
:1029d800a623af0041e52200c5a4230022a0b3002e
:1029e80061211c00709f20001bdcdc001f7bf900ac
:1029f800191f1e00ca561e00e54f93001db38c0018
:102a0800cf1c6a00820b1c00ef3247001b26a00077
:102a1800821af300cbbd19003cb8f80018e966002b
:102a28003318de00d96d17000513a80016451400e9
:102a3800e2158600df1b1500b176550014b1db00e6
:102a48008e136f0010c81200d516010012cff000c7
:102a580039114800a07210002b27ab000f668700c1
:102a6800e30ee400c21b0e0092db53000d5ed300a0
:102a78008b0c3500acc30b000568fb000abd0800d1
:102a8800330a4900906a09009a00a200089e5b0078
:102a9800d9074500a31007007cd947000635000078
:102aa8007f055d0019b60400e626ed0003bf2a0085
:102ab8002403d700265b0200201d920001880f0026
:102ac800c90000000000000078f03600ffe0e200d6
:102ad8006dfe2900d9a4fd0041d5db00fc1ad90000
:102ae80012fca300e649fb00cbff8000fa84260015
:102af800b8f9bb005ceff80062a42600f866ff0096
:102b08005df7b7006f95f60043f7cc00f5fb97002b
:102b180004f5cb00533cf400a22c7400f36e24009f
:102b2800acf21c003de4f1009a781c00f1d5d80005
:102b380054f0b8005f8def00310fc600ee2be900ae
:102b4800feed9100ef37ed004f247100ec4f890046
:102b5800aaeb7a0020e4ea00bbeb1d00eafbec00dc
:102b680057e922002692e8001799cc00e7c44700ed
:102b780007e70d003442e600da5f7d00e511cd007d
:102b8800b8e496007df4e3004d733000e31bb00019
:102b98006ce2e20035a9e1008506e600e0e52300e5
:102ba80023e0e4008f60df00604c9e00de3b5b00aa
:102bb800dcdd5100be1add0081775900dca88800f1
:102bc80098dba200f3d7da004aba1700da7ade00f7
:102bd80057d90c006298d800d846d900d7b58e00ce
:102be8001ad77b003b5cd600ff4e9e00d515cb0064
:102bf800e0d49100b123d40046046700d304c50093
:102c0800aad29e00f5eed100e2973300d19ead0026
:102c180078d09f0038becf00b33a0400cfa2b500e9
:102c28004ace3900ab91cd003d1dd900cc790d00bd
:102c380021ccb0007d69cb00a96fb200ca27e5009e
:102c4800fbc9ec00df45c900ba619000c8506c00b0
:102c5800dbc76d000127c700ce227300c62ed20045
:102c6800bfc54900110dc500d7e15a00c490450001
:102c7800a9c32a003ef8c2005acd4700c2d4f400c6
:102c880097c14800b6e8c00068133a00c0e30d00d9
:102c98008cbf6500a7debe009be13100be30be00e0
:102ca80085bdcb003edabc0013652f00bcb03200f6
:102cb80085bb4300a9dbba0071ca3200bad89700b5
:102cc8008ab9190013e3b800d13d3c00b89b19003c
:102cd80096b71200a8f0b600cdea4b00b662e30042
:102ce800a7b568009304b50070fc6100b40c20001f
:102cf800c0b3cc00ff1eb3003c9d7e00b2e9f900d2
:102d0800deb15b001740b1001df7a100b0b39a0017
:102d180004b0a2000368af006c33cc00ae922b0065
:102d280031ae9200ed96ad00e87afd00ac10d5000a
:102d380064ac8300fdccab00b5f53500ab1ebf001d
:102d48009faa2e005b0aaa0057cb7500a90611009e
:102d5800e2a8aa002d4fa800ac22bd00a774f1007c
:102d68002ba768009b9ba600ee210c00a666860098
:102d78007da53100caefa400acee6200a434f500d2
:102d8800d6a32000df4ba300c9adc100a284620016
:102d980038a2a300feafa10076832800a14df2005f
:102da800a1a073004c1ca000319397009fd0c700ce
:102db800139f9400eb909e00c1ff0e009e970500a4
:102dc8008e9d5400fe0d9d0034eb8e009c70cd004e
:102dd800109c4100a6939b00da7617009b6e40007a
:102de8009c9a2d0004229a0045c3a80099e07e0011
:102df8003099280038b9980043f042009855a80047
:102e0800cd977f0061599700e01ce6009694db009f
:102e18007396b6009e0296005c679200959c3600f9
:102e2800239587000db594002fed470094a0d60098
:102e3800db93e400ca70930004cb06009306d80025
:102e48009d92ec00f2359200b61ccf0091635600bb
:102e58006991ee00a00491004efda000907b6c00eb
:102e68003e906600efdc8f0001877c008f3a3400cb
:102e78001d8ffb00f7be8e002ed361008eb7c600f3
:102e8800058e7b00d3aa8d0059fa50008d303c0086
:102e9800f88cda0099a08c002f144a008c05ac003d
:102ea800f48b2f0062a08b007c374d008bbb2c006d
:102eb800fb8ab40042aa8a00317a5a008af5d30004
:102ec8000b8ac30050be89005af171008977b60099
:102ed8002689d300a0dc880025b193008821e8006a
:102ee8004b88770046058800d7ccbf0087ec7b006d
:102ef8007b875e0054388700d356f60086ee830041
:102f0800b5864f00dc758600926037008653110045
:102f1800fa852800efbd8500a5fa8200855c34009b
:102f28004985dd009c108500b134d9008462fc001d
:102f3800a2847700f46d8400701d3a0084d0770075
:102f48000784120004d68300b0c2a5008322b4000f
:102f58007683dc00d84883004e311c0083e8bd002e
:102f6800f08214007fc682003a759d0082c0a000de
:102f780075820800024f8200719929008258670003
:102f8800058216006ce2810001a8c000816d1b005b
:102f9800a081a900c680810004aa620081c7c5007b
:102fa80045813a001a2a8100a0a70f00813c6e00d3
:102fb800f6804c006ede80000aa8c70080af1b00b8
:102fc800b2807100c99d800080b18a00800dd40054
:102fd80078804300316880004cc95800804d9c00bf
:102fe8004a806a00aa3d8000c2f3310080727800ee
:102ff80027809500381e80004034160080886b00ba
:103008000f807e00de0980002f8d050080a67700e6
:103018000280ea009d008000004c000020000000b3
:103028008000000000300000001000008000000058
:1030380010100000000800008000000008100000c8
:103048000400000080000000204c00000600000082
:103058008000000000100000080000008000000050
:10306800284c00000200000082000000000400005c
:103078000e100000020000008000000000000000a8
:020000040000fa
:1030880002f0a70006003700182eb70004800900d8
:103098000000000018aeb600018009000000000022
:1030a80002f0a60006003700182eb70006800900b7
:1030b8000000000018aeb6000580090000000000fe
:1030c80002e0a70006003700182eb70004800900a8
:1030d8000000000018aeb6000180090000000000e2
:1030e80002e0a60006003700182eb7000680090087
:1030f8000000000018aeb6000580090000000000be
:1031080002d0a70006003700182eb7000480090077
:103118000000000018aeb6000180090000000000a1
:1031280002d0a60006003700182eb7000680090056
:103138000000000018aeb60005800900000000007d
:1031480002c0a70006003700182eb7000480090047
:103158000000000018aeb600018009000000000061
:1031680002c0a60006003700182eb7000680090026
:103178000000000018aeb60005800900000000003d
:1031880002b0a70006003700182eb7000480090017
:103198000000000018aeb600018009000000000021
:1031a80002b0a60006003700182eb70006800900f6
:1031b8000000000018aeb6000580090000000000fd
:1031c80002a0a70006003700182eb70004800900e7
:1031d8000000000018aeb6000180090000000000e1
:1031e80002a0a60006003700182eb70006800900c6
:1031f8000000000018aeb6000580090000000000bd
:103208000290a70006003700182eb70004800900b6
:103218000000000018aeb6000180090000000000a0
:103228000290a60006003700182eb7000680090095
:103238000000000018aeb60005800900000000007c
:103248000280a70006003700182eb7000480090086
:103258000000000018aeb600018009000000000060
:103268000280a60006003700182eb7000680090065
:103278000000000018aeb60005800900000000003c
:103288000370a70006003700182eb7000480090055
:103298000000000018aeb600018009000000000020
:1032a8000370a60006003700182eb7000680090034
:1032b8000000000018aeb6000580090000000000fc
:1032c8000360a70006003700182eb7000480090025
:1032d8000000000018aeb6000180090000000000e0
:1032e8000360a60006003700182eb7000680090004
:1032f8000000000018aeb6000580090000000000bc
:103308000350a70006003700182eb70004800900f4
:103318000000000018aeb60001800900000000009f
:103328000350a60006003700182eb70006800900d3
:103338000000000018aeb60005800900000000007b
:103348000340a70006003700182eb70004800900c4
:103358000000000018aeb60001800900000000005f
:103368000340a60006003700182eb70006800900a3
:103378000000000018aeb60005800900000000003b
:103388000330a70006003700182eb7000480090094
:103398000000000018aeb60001800900000000001f
:1033a8000330a60006003700182eb7000680090073
:1033b8000000000018aeb6000580090000000000fb
:1033c8000320a70006003700182eb7000480090064
:1033d8000000000018aeb6000180090000000000df
:1033e8000320a60006003700182eb7000680090043
:1033f8000000000018aeb6000580090000000000bb
:103408000310a70006003700182eb7000480090033
:103418000000000018aeb60001800900000000009e
:103428000310a60006003700182eb7000680090012
:103438000000000018aeb60005800900000000007a
:103448000300a70006003700182eb7000480090003
:103458000000000018aeb60001800900000000005e
:103468000300a60006003700182eb70006800900e2
:103478000000000018aeb60005800900000000003a
:103488000270a70006003700182eb7000480090054
:103498000000000018aeb60001800900000000001e
:1034a8000270a60006003700182eb7000680090033
:1034b8000000000018aeb6000580090000000000fa
:1034c8000260a70006003700182eb7000480090024
:1034d8000000000018aeb6000180090000000000de
:1034e8000260a60006003700182eb7000680090003
:1034f8000000000018aeb6000580090000000000ba
:103508000250a70006003700182eb70004800900f3
:103518000000000018aeb60001800900000000009d
:103528000250a60006003700182eb70006800900d2
:103538000000000018aeb600058009000000000079
:103548000240a70006003700182eb70004800900c3
:103558000000000018aeb60001800900000000005d
:103568000240a60006003700182eb70006800900a2
:103578000000000018aeb600058009000000000039
:103588000230a70006003700182eb7000480090093
:103598000000000018aeb60001800900000000001d
:1035a8000230a60006003700182eb7000480090074
:1035b8000000000018aeb6000180090000000000fd
:1035c8000220a70006003700182eb7000480090063
:1035d8000000000018aeb6000180090000000000dd
:1035e8000220a60006003700182eb7000480090044
:1035f8000000000018aeb6000180090000000000bd
:103608000210a70006003700182eb7000480090032
:103618000000000018aeb60001800900000000009c
:103628000210a60006003700182eb7000480090013
:103638000000000018aeb60001800900000000007c
:103648000200a70006003700182eb7000480090002
:103658000000000018aeb60001800900000000005c
:103668000200a60006003700182eb70004800900e3
:103678000000000018aeb60001800900000000003c
:10368800000006000001fa0030bf980041bf980012
:1036980052bf980063bf980074bf9800e6004700c7
:1036a800770009008018eb000000eb00000f78009d
:1036b8003500370010002000010020001e017800ae
:1036c800820178008301e900030033000000400014
:1036d80081804800fbff37000002be006033b8005d
:1036e8003eb89000ceb890005eb99000eeb9900058
:1036f8000000620081806200020163008381630030
:10370800e00f5000e08f5800e00f5900e08f59009b
:10371800080032001e0078004200dd00660040000c
:1037280000014700f0ff2f00f10f20000089be00c4
:10373800060037001e0078004200dd0066004000e9
:10374800000147006000b8000089be001e00780034
:10375800ff0f50000b003a003eb89000ceb8900022
:103768005eb99000eeb99000010078008200780000
:103778006119b80030bf980041bf980052bf980047
:1037880063bf98001e0fe8009e0078007eb8900086
:10379800808f5000c7ff3900feb8900011079800cd
:1037a800180037001e0090004200dd00660040004f
:1037b8000001470000002000f10f20000089be0032
:1037c8001e009000ff0f50000b003a003eb890001a
:1037d800ceb890005eb99000eeb990000100780074
:1037e800820078006119b80030bf980041bf980086
:1037f80052bf980063bf98001e0090000000e800c8
:10380800100798009e009000b0032000808f5000a1
:10381800e4ff34000000eb00200798001100370097
:10382800368080002580800014808000078080001a
:103838002e0090004200dd006600400000004700b6
:1038480090009000100078000001be00870078000a
:10385800000220000afe07002e0090000000e80089
:1038680020079800ae009000b0032000808f500021
:10387800ebff34000080fa00000006000200fa00a6
:10388800000f78001e0078008000eb0024f8070085
:103898000002be00307f8400417f84000001be002a
:1038a8000400be007df80700fff70700000078005d
:1038b8000080880001808000d07f84000080500054
:1038c800008088001e0078008000eb0014f80700d4
:1038d8000002be00507f8400617f84000001be00aa
:1038e8000400be006df80700eff70700000078003d
:1038f8001080880011808000d07f840000805000f4
:10390800108088001e0078008000eb0004f8070093
:103918000002be00707f8400817f84000001be0029
:103928000400be005df80700dff70700000078001c
:103938002080880021808000d07f84000080500093
:10394800208088001e0078008000eb00f4f7070054
:103958000002be00907f8400a17f84000001be00a9
:103968000400be004df80700cff7070000007800fc
:103978003080880031808000d07f84000080500033
:10398800308088000080fa00000006000200fa007b
:10399800000f78001e007800b8ff07000080fa00ca
:1039a800000006000400fa00008fbe00338080008b
:1039b800228080001180800000808000030378004e
:1039c8008202780001027800800078001e017800e9
:1039d8009e01900000022000a9fd07000080fa0067
:1039e800000006000000fa00003a80000080fa009b
:1039f800000006000200fa00faff0700000f780036
:103a08001e007800240007000004e00002003200d5
:103a180000002800710007001e0078002a00070037
:103a28000004e00002003200000024006b000700e0
:103a38001e007800320007000004e0000200320097
:103a480000202000650007001e0078003a000700eb
:103a58000004e00002003200000820005f000700b8
:103a68001e007800420007000004e0000200320057
:103a780000042000590007001e0078004a000700d3
:103a88000004e0000200320000012000530007009b
:103a98000080fa00000006000400fa0010079800f1
:103aa8000040eb00004f78001e0090000000e0008e
:103ab80002003d0010c0b300004f78001e4078009f
:103ac8000080fa00000006000400fa0010079800c1
:103ad8000040eb00004f78009e009000000024009a
:103ae800008060000000e0000200320010c0b30057
:103af800004f78001e4078000080fa0000000600a1
:103b08000400fa00100798000040eb00004f78000e
:103b18009e00900000202000008060000000e0006f
:103b28000200320010c0b300004f78001e40780039
:103b38000080fa00000006000400fa001007980050
:103b48000040eb00004f78009e0090000008200025
:103b5800008060000000e0000200320010c0b300e6
:103b6800004f78001e4078000080fa000000060030
:103b78000400fa00100798000040eb00004f78009e
:103b88009e00900000042000008060000000e0001b
:103b98000200320010c0b300004f78001e407800c9
:103ba8000080fa00000006000400fa0010079800e0
:103bb8000040eb00004f78001e009000700060008d
:103bc8000000e0000200320010c0b300004f78008f
:103bd8001e4078000080fa00000006000200fa008b
:103be800000f78009e80ea00003a800000806000a4
:103bf800003a88000080fa00000006000000fa0081
:103c08004027ef000080fa00000006000000fa00dc
:103c18000a21ef00006c20007008880000002800ce
:103c28009008880060c224008040eb0001487800ba
:103c38000080fa00000006000000fa000140800041
:103c480000102000008060000000e0000900320041
:103c580070c22400104078008040e80070c2240040
:103c68000148780060c2240011c0b3000148780000
:103c78000108a9000080fa00000006000200fa000e
:103c8800000f78009e0078007108880060c2240048
:103c98008040eb00014878000080fa000000060030
:103ca8000000fa00700880000080fa00000006009a
:103cb8000200fa00000f78009e0078005108880082
:103cc80060c224008040eb00014878000080fa00c0
:103cd800000006000000fa00500880000080fa008a
:103ce800000006000000fa0060c224008040eb00db
:103cf8000148780013e1a8000080fa0000000600df
:103d08000000fa0013e1a9000080fa000000060094
:103d18000200fa0060c22400104f78001e407800ac
:103d28000004e0000300320060c224008040eb0081
:103d3800014878001e4078000080fa000000060064
:103d48000000fa0070c22400104078000080fb00d8
:103d58000080fa00000006000000fa0070c224008b
:103d68008040eb00014878000080fa00000006005f
:103d78000000fa002143a80001198000003020004b
:103d8800010070000019880001198000f0f12f006f
:103d9800008060000060a000001988002043a8008f
:103da80011198000f0ff21000080600010198800c0
:103db8001119800030f82f0080806000c0032000b7
:103dc800010070001019880025e3a800211980005f
:103dd800f00f2e008080600000502000010070006d
:103de80020198800e0c0b30024e3b70028e3a90045
:103df8004119800000fc2f000080600040198800f5
:103e080021a8a9000080fa00000006000000fa00be
:103e180000202300203a88004827ef004e27ef00b3
:103e2800a0122000303a88004420a90044c0a9000c
:103e380044e0a9004480a900120020008007200067
:103e4800a109200033742000804978008149780056
:103e580082497800120020006004200071052000cb
:103e680023742000804978008149780082497800cd
:103e780000000000103a8000610060000000e000cf
:103e8800fcff3a0000000000113a80000002200008
:103e9800008060000000e000fbff32000080fa00b4
:103ea800000006000008fa002f0007005004200058
:103eb800b6fe07000001eb0001012100a000200070
:103ec8002df3070021e3a80021a8a80085ff07001b
:103ed800000000000ad0bf000004a2000004e000b7
:103ee800fcff3a0003f02f0002012100010023002b
:103ef800a0002000eef3070001002300a00020002e
:103f080071f407000e017800010023000040200032
:103f18008bf407000830ef000a70ef0021a8a80012
:103f28002043a80000000000eaff37000200fa0062
:103f3800000f780021028000200f20000080600020
:103f48001e007000200288000080fa0000000600b1
:103f58000000fa00c3e8a80000000000000000000c
:103f68000080fa00000006000000fa0009000700bf
:103f7800a6ff07002e0007007dff070023ff0700ac
:103f8800f3ff070000022000e8ff07000080fa00a6
:103f9800000006000000fa00042eef00182eef00c3
:103fa800f001200000708800f0fd2f00a07088004c
:103fb8000c2eef00202eef000a2eef001e2eef0031
:103fc800000120003070880010002000d0708800a8
:103fd8006000200070708800203820001071880070
:103fe800000ea8000e0ea8000080fa0000000600cf
:103ff8000000fa0085ff07000080fa0000000600b4
:104008000000fa0077fe07000080fa0000000600b2
:104018000000fa0077fe07000080fa0000000600a2
:104028000000fa00f5fe07000080fa000000060014
:104038000000fa0031428000f0f82f000080600094
:104048000040a000304288000080fa00000006000e
:10405800000f78009e00780061808800ffff37001d
:0840680040618a00000006001f
:020000040000fa
:020000040005f5
:04570000ffff0000a7
:020000040000fa
:020000040005f5
:04572000ffff000087
:020000040000fa
:020000040005f5
:04573000f8ff00007e
:020000040000fa
:020000040005f5
:045738003bff000033
:020000040000fa
:020000040005f5
:045740009fff0000c7
:020000040000fa
:020000040005f5
:04574800ffff00005f
:020000040000fa
:020000040005f5
:04575000ffff000057
:020000040000fa
:020000040005f5
:04575800000000004d
:020000040000fa
:020000040005f5
:045760000000000045
:020000040000fa
:020000040005f5
:04576800000000003d
:020000040000fa
:020000040005f5
:045770000000000035
:020000040000fa
:020000040005f5
:04577800feff000030
:020000040000fa
:020000040005f5
:04578000ffff000027
:020000040000fa
:020000040005f5
:04578800ffff00001f
:00000001FF
