:020000040000fa
:080000000002040000000000f2
:020000040000fa
:04000800fa020000f8
:020000040000fa
:04000c0002030000eb
:020000040000fa
:040010001a030000cf
:020000040000fa
:04001400580400008c
:020000040000fa
:040018000a030000d7
:020000040000fa
:04001c0012030000cb
:020000040000fa
:0400200022030000b7
:020000040000fa
:04002400580400007c
:020000040000fa
:040028005804000078
:020000040000fa
:04002c005804000074
:020000040000fa
:040030005804000070
:020000040000fa
:04003400580400006c
:020000040000fa
:040038005804000068
:020000040000fa
:04003c005804000064
:020000040000fa
:040040005804000060
:020000040000fa
:04004400580400005c
:020000040000fa
:040048005804000058
:020000040000fa
:04004c005804000054
:020000040000fa
:040050005804000050
:020000040000fa
:04005400580400004c
:020000040000fa
:040058005804000048
:020000040000fa
:04005c002a03000073
:020000040000fa
:040060005804000040
:020000040000fa
:04006400580400003c
:020000040000fa
:040068005804000038
:020000040000fa
:04006c005804000034
:020000040000fa
:040070005804000030
:020000040000fa
:04007400580400002c
:020000040000fa
:040078005804000028
:020000040000fa
:04007c005804000024
:020000040000fa
:040080005804000020
:020000040000fa
:04008400580400001c
:020000040000fa
:040088005804000018
:020000040000fa
:04008c005804000014
:020000040000fa
:040090005804000010
:020000040000fa
:04009400580400000c
:020000040000fa
:040098005804000008
:020000040000fa
:04009c005804000004
:020000040000fa
:0400a0005804000000
:020000040000fa
:0400a40058040000fc
:020000040000fa
:0400a80058040000f8
:020000040000fa
:0400ac0058040000f4
:020000040000fa
:0400b00058040000f0
:020000040000fa
:0400b40058040000ec
:020000040000fa
:0400b80058040000e8
:020000040000fa
:0400bc0058040000e4
:020000040000fa
:0400c00058040000e0
:020000040000fa
:0400c40058040000dc
:020000040000fa
:0400c80058040000d8
:020000040000fa
:0400cc0058040000d4
:020000040000fa
:0400d00058040000d0
:020000040000fa
:0400d40058040000cc
:020000040000fa
:0400d80058040000c8
:020000040000fa
:0400dc0058040000c4
:020000040000fa
:0400e00058040000c0
:020000040000fa
:0400e40058040000bc
:020000040000fa
:0400e80058040000b8
:020000040000fa
:0400ec0058040000b4
:020000040000fa
:0400f00058040000b0
:020000040000fa
:0400f40058040000ac
:020000040000fa
:0400f80058040000a8
:020000040000fa
:0400fc0058040000a4
:020000040000fa
:04010000580400009f
:020000040000fa
:04010400580400009b
:020000040000fa
:040108005804000097
:020000040000fa
:04010c005804000093
:020000040000fa
:04011000580400008f
:020000040000fa
:04011400580400008b
:020000040000fa
:040118005804000087
:020000040000fa
:04011c005804000083
:020000040000fa
:04012000580400007f
:020000040000fa
:04012400580400007b
:020000040000fa
:040128005804000077
:020000040000fa
:04012c005804000073
:020000040000fa
:04013000580400006f
:020000040000fa
:04013400580400006b
:020000040000fa
:040138005804000067
:020000040000fa
:04013c005804000063
:020000040000fa
:04014000580400005f
:020000040000fa
:04014400580400005b
:020000040000fa
:040148005804000057
:020000040000fa
:04014c005804000053
:020000040000fa
:04015000580400004f
:020000040000fa
:04015400580400004b
:020000040000fa
:040158005804000047
:020000040000fa
:04015c005804000043
:020000040000fa
:04016000580400003f
:020000040000fa
:04016400580400003b
:020000040000fa
:040168005804000037
:020000040000fa
:04016c005804000033
:020000040000fa
:04017000580400002f
:020000040000fa
:04017400580400002b
:020000040000fa
:040178005804000027
:020000040000fa
:04017c005804000023
:020000040000fa
:04018000580400001f
:020000040000fa
:04018400580400001b
:020000040000fa
:040188005804000017
:020000040000fa
:04018c005804000013
:020000040000fa
:04019000580400000f
:020000040000fa
:04019400580400000b
:020000040000fa
:040198005804000007
:020000040000fa
:04019c005804000003
:020000040000fa
:0401a00058040000ff
:020000040000fa
:0401a40058040000fb
:020000040000fa
:0401a80058040000f7
:020000040000fa
:0401ac0058040000f3
:020000040000fa
:0401b00058040000ef
:020000040000fa
:0401b40058040000eb
:020000040000fa
:0401b80058040000e7
:020000040000fa
:0401bc0058040000e3
:020000040000fa
:0401c00058040000df
:020000040000fa
:0401c40058040000db
:020000040000fa
:0401c80058040000d7
:020000040000fa
:0401cc0058040000d3
:020000040000fa
:0401d00058040000cf
:020000040000fa
:0401d40058040000cb
:020000040000fa
:0401d80058040000c7
:020000040000fa
:0401dc0058040000c3
:020000040000fa
:0401e00058040000bf
:020000040000fa
:0401e40058040000bb
:020000040000fa
:0401e80058040000b7
:020000040000fa
:0401ec0058040000b3
:020000040000fa
:0401f00058040000af
:020000040000fa
:0401f40058040000ab
:020000040000fa
:0401f80058040000a7
:020000040000fa
:0401fc0058040000a3
:020000040000fa
:04020000580400009e
:020000040000fa
:04020400580400009a
:020000040000fa
:040208005804000096
:020000040000fa
:04020c005804000092
:020000040000fa
:04021000580400008e
:020000040000fa
:04021400580400008a
:020000040000fa
:040218005804000086
:020000040000fa
:04021c005804000082
:020000040000fa
:04022000580400007e
:020000040000fa
:04022400580400007a
:020000040000fa
:040228005804000076
:020000040000fa
:04022c005804000072
:020000040000fa
:04023000580400006e
:020000040000fa
:04023400580400006a
:020000040000fa
:040238005804000066
:020000040000fa
:04023c005804000062
:020000040000fa
:04024000580400005e
:020000040000fa
:04024400580400005a
:020000040000fa
:040248005804000056
:020000040000fa
:04024c005804000052
:020000040000fa
:04025000580400004e
:020000040000fa
:04025400580400004a
:020000040000fa
:040258005804000046
:020000040000fa
:04025c005804000042
:020000040000fa
:04026000580400003e
:020000040000fa
:04026400580400003a
:020000040000fa
:040268005804000036
:020000040000fa
:04026c005804000032
:020000040000fa
:04027000580400002e
:020000040000fa
:04027400580400002a
:020000040000fa
:040278005804000026
:020000040000fa
:04027c005804000022
:020000040000fa
:04028000580400001e
:020000040000fa
:04028400580400001a
:020000040000fa
:040288005804000016
:020000040000fa
:04028c005804000012
:020000040000fa
:04029000580400000e
:020000040000fa
:04029400580400000a
:020000040000fa
:040298005804000006
:020000040000fa
:04029c005804000002
:020000040000fa
:0402a00058040000fe
:020000040000fa
:0402a40058040000fa
:020000040000fa
:0402a80058040000f6
:020000040000fa
:0402ac0058040000f2
:020000040000fa
:0402b00058040000ee
:020000040000fa
:0402b40058040000ea
:020000040000fa
:0402b80058040000e6
:020000040000fa
:0402bc0058040000e2
:020000040000fa
:0402c00058040000de
:020000040000fa
:0402c40058040000da
:020000040000fa
:0402c80058040000d6
:020000040000fa
:0402cc0058040000d2
:020000040000fa
:0402d00058040000ce
:020000040000fa
:0402d40058040000ca
:020000040000fa
:0402d80058040000c6
:020000040000fa
:0402dc0058040000c2
:020000040000fa
:0402e00058040000be
:020000040000fa
:0402e40058040000ba
:020000040000fa
:0402e80058040000b6
:020000040000fa
:0402ec0058040000b2
:020000040000fa
:0402f00058040000ae
:020000040000fa
:0402f40058040000aa
:020000040000fa
:0402f80058040000a6
:020000040000fa
:0402fc0058040000a2
:020000040000fa
:04030000580400009d
:020000040000fa
:040304005804000099
:020000040000fa
:040308005804000095
:020000040000fa
:04030c005804000091
:020000040000fa
:04031000580400008d
:020000040000fa
:100400006fc121000eff22000e01880000000000d5
:10041000100020000000e000020032000001200077
:100420002002880014000700230107000000e000fc
:1004300003003a00a0612000010020000200370004
:100440000000200001002000810f70000100320038
:100450000f000700000020000000e0000200320052
:100460000000020000000000e4150200000000008f
:100470000040da000000fe00600120000000e00003
:1004800002003200002020009001880000000600d9
:10049000a1028800800478000000eb001f003700f4
:1004a000e284440054a0b4009905ba00e2844400f8
:1004b00054a0b4009906ba00e284440054a0b400e9
:1004c0000006eb00476fde00fd07b200ae018800ba
:1004d000636ce10003003a000ad801000000eb0061
:1004e0000e003700606ce10008003a00004deb00a0
:1004f0000a05e800020039003420ec000af0a000f0
:100500008b05e900f9ff3e00040037006168e10057
:10051000010032000086eb000b00070019c7ba008b
:100520000e04e0001905ba0003003a000a00e000da
:10053000dbff3a0000000600fe07b200ae028800b2
:100540008a047800f5ff37000cd0a300e20f4d00bd
:100550001c00390089027800354dba000a05e80010
:10056000020039003420ec000af0a0008b05e900fd
:100570000f003200254dba000a05e80002003900dc
:100580003420ec000af0a0008b05e90008003200de
:100590000c00e0000600320015cdba000a05e800a4
:1005a000020039003420ec000af0a0008b05e900bd
:1005b0008984e80054a0b4000b00e000e2ff3a0098
:1005c000000006009902ba00055d78008b05e9007d
:1005d000f7ff3200c82ade00055d78008b05e900d0
:1005e000f3ff32000c00e000f1ff320019ddba0029
:1005f000eeff37003600f800c028a9000000eb002d
:10060000780907003600f800c068a9002000200023
:10061000740907003600f800c088a90030002000e7
:10062000700907003600f800c0a8a90040002000ab
:100630006c0907003600f800c608a9007000200009
:10064000680907003600f800c488a900a00020004f
:10065000640907003600f800809fbe00829fbe003c
:10066000849fbe00869fbe003200f8003400f80070
:1006700010002000a00188000020200090018800c8
:10068000000000000000fa00a4080700b9080700f5
:10069000001880008000eb006011b8000401200009
:1006a000ff06070060972400e141200030090700a1
:1006b000101880008000eb006011b80004012000d9
:1006c000f706070060972400e14120002809070091
:1006d000201880008000eb006011b80004012000a9
:1006e000ef06070060972400e14120002009070081
:1006f000301880008000eb006011b8000401200079
:10070000e706070060972400e14120001809070070
:10071000401880008000eb006011b8000401200048
:10072000df06070060972400e14120001009070060
:10073000501880008000eb006011b8000401200018
:10074000d706070060972400e14120000809070050
:10075000601880008000eb006011b80004012000e8
:10076000cf06070060972400e14120000009070040
:10077000701880008000eb006011b80004012000b8
:10078000c706070060972400e1412000f808070031
:10079000801880008000eb006011b8000401200088
:1007a000bf06070060972400e1412000f008070021
:1007b000901880008000eb006011b8000401200058
:1007c000b706070060972400e1412000e808070011
:1007d000a01880008000eb006011b8000401200028
:1007e000af06070060972400e1412000e008070001
:1007f000b01880008000eb006011b80004012000f8
:10080000a706070060972400e1412000d8080700f0
:10081000c01880008000eb006011b80004012000c7
:100820009f06070060972400e1412000d0080700e0
:10083000d01880008000eb006011b8000401200097
:100840009706070060972400e1412000c8080700d0
:10085000e01880008000eb006011b8000401200067
:100860008f06070060972400e1412000c0080700c0
:10087000f01880008000eb006011b8000401200037
:100880008706070001a8a9001d0807000080fa00dc
:100890003400f9003200f9004f03be004f02be00e1
:1008a0004f01be004f00be003600f90000400600b8
:1008b0000040da000000fe00000005000001be005c
:1008c0001b0007000470a70003f0a10003f8a300b9
:1008d00013003a006509b10010003200090035002c
:1008e0006928e10002003500010028000000050031
:1008f00000004000818048008502e900fcff3a00ca
:1009000000000600f88f4200050035008100d1008c
:100910000080d3008502e800fcff3a0000000600da
:100920008000eb00000005006011b80049003700ae
:10093000c70ade00f107b200f50fb200080032006e
:10094000e1cf4200020032000170a0002400050047
:10095000810f70000100320004080500440005000a
:10096000810f700002003a00140005008502e900c2
:100970000000400081c04800fcff3b000170a00067
:1009800024000500889fbe008a9fbe008c1f78004f
:10099000850007008c00330003866c006450e10082
:1009a000240032006420e100270032006150e100a1
:1009b000220032006120e100210032008b854200dc
:1009c000eb07b1000134b800003ab8000804420057
:1009d00089844a00013ab8000030b800888040009d
:1009e00009014a00040033000000400081804800f3
:1009f000020149008b05e900c909dd00830170008f
:100a00000100320013002000c814de004814dd008d
:100a10004709de001200b200c808de00088470003a
:100a20003b00070001f0a1000cf0a70001f0a000be
:100a30006e0037006120e100700032000801be0046
:100a40000200be00f7ff37006150e100fcff3a00f2
:100a50006a003700889fbe008a9fbe000082700037
:100a60000402710004827100260032000004be00fe
:100a70000200be006011b8006b0920009502200042
:100a80000182cf000a0039000541b1000082cf0089
:100a9000070039000541b1000982cf000400390088
:100aa0000541b1000882cf00010039000541b100c5
:100ab00005425200120032000a003b0082817100a0
:100ac000610164008100d1000080d3008984d300db
:100ad0000884d3008b05e8000442e800f7ff3a00e1
:100ae000070037000804440089844c0000004800d7
:100af000818048008b05e9000442e900f9ff3a00d3
:100b0000030007004f05be004f04be0000000600b2
:100b100081002000618055000b003d000b0020008b
:100b200061fe2f000100e1001d0034008281710090
:100b3000610164008904d1000884d3000000e8004a
:100b4000faff3a00710020006100640003007000a9
:100b5000020060000900320061044400e0844c009f
:100b60000988a500050032008b05e8006808e1004f
:100b700002003a008904d1000884d300f20f20005b
:100b80000258e10005003d00c75ddd00f907b20035
:100b90008980750008007800000006000bf8270027
:100ba0008b007800000005000004be0060ff070015
:100bb0000003be000405be000200be005cff07008b
:100bc000844f7500000006000200be006450e10082
:100bd000050036006420e100020036000968a30029
:100be00001003a000800be000160a0004f06780036
:100bf0004f05be004f04be0000000600f0ff2f00ae
:080c0000f1ff2700f9ff3700a6
:020000040000fa
:100c08009a990000993f000014ae0000873e00004a
:100c18009a990000993e00009a990000993f0000b7
:0c0c280000000000fa430000040000007f
:020000040000fa
:100c34000e100000000c0000820000000000000004
:100c440000880f00c90020001d920100d7265b0018
:100c540002bf2a002403e60026ed03005d19b60056
:100c6400043500007f057c00d947060045a3100029
:100c7400079e5b00d9079a0000a2080049906a0009
:100c840009bd0800330a050068fb0a0035acc3003f
:100c94000b5ed3008b0c9200db530d00e4c21b00ef
:100ca4000e668700e30e2b0027ab0f0048a07200ee
:100cb40010cff0003911d500160112006f10c800d2
:100cc40012b1db008e13b1007655140086df1b00d1
:100cd40015451400e215050013a81600ded96d00b1
:100ce40017e9660033183c00b8f81800f3cbbd00d0
:100cf4001926a000821aef0032471b006a820b00fb
:100d04001cb38c00cf1ce5004f931d001eca560077
:100d14001e7bf900191f1b00dcdc1f001c709f00e8
:100d240020a0b3006121c500a4232200af41e50047
:100d3400227f8800a6235800776724005e0c2800d1
:100d440025b64500e825860021a82600f49d670005
:100d54002728b90026284b0071e5280085c4a30084
:100d64002901b100612aeb00341f2b006f4edc0017
:100d74002bbafb00982cfc003a552d00620a110096
:100d84002e1e6800cc2e620052872f0061c74100de
:100d9400304dc500fb305e004ab53100c7546e00cb
:100da40032c3e20026338700f2de3300508296001d
:100db400345790004d35d9001a0436001420ba0077
:100dc40036469e006f37b0009324380093fed80057
:100dd4003832dd008c39d2002d403a00b7eef200f3
:100de4003a291e00a53b7000ba563c00d6c1070044
:100df4003da63200b83d2c000b683e00b8491700f0
:100e04003f98ec00c53f1d00f27340009b58210041
:100e140041651e00ce41d000417a420035c1250013
:100e240043ed9a00d0435000cd7a4400bd562400cf
:100e3400458f3500cd45280068754600e7ec1c0059
:100e4400472fc200c3476500e6694800ee570f000c
:100e540049331500b4499e001c584a00986cfb00a5
:100e64004a9003009e4bf400df3f4c003400e10045
:100e74004cc46200814d170006214e00a5e8bf0056
:100e84004ee308005e4f4d0065fb4f005efc97008b
:100e94005094cc0033516e00d4ce51006e126900d0
:100ea400521885000253f0002a9b53007d02330040
:100eb400544b0a00ca54e20040605500d2a4f50025
:100ec40055a934008a56fa00ee1d570056d2b000d8
:100ed4005754dd0042588c000ed4580098646400c6
:100ee4005912de00f3599a0079825a00cf35100066
:100ef4005b5411009d5bcc000a295c00e020b40027
:100f04005c3752003e5d7c009dc75d005d01500072
:100f14005e8a7c00d75eb3000d5e5f008db3e30094
:100f24005fcf6c006860300038ec60006c146f00b8
:100f3400613f0000f1616900fa716200ac01f200e6
:100f440062cc14007163900032ef6300bf596c00ef
:100f540064268900e8649200bf636500d3fbdd006a
:100f640065bb3c005766200081cf6600d8c74600a9
:100f740067bd0f00bd67ab0057326800819ea600b5
:100f84006820e30019696c00248c69004a61fd0043
:100f940069a498006d6a6400c9dc6a0079f24a00a9
:100fa4006bd11200b86b600029246c001c358f00d3
:100fb4006cfc3400f96cfa0027626d00140dca0051
:100fc4006d4ae300306e9d00a9966e00125ffb002f
:100fd4006eb202005f6f850093c16f009a10230008
:100fe40070ff78008370c600cbe2700005084100f2
:100ff40071d22c009e71490039fa7100852c55007c
:1010040072a70500af72d000c307730026665f00a5
:1010140073d1eb00b573fb00530b7400d19d5f00db
:101024007484c800b2744500d30475004cbd5500e7
:1010340075cf8500a5750b002cf475003daf4100fc
:1010440076a60e008e76890049d976002d5f23009e
:1010540077db4e006c77df0017b4770089b9fa00ac
:10106400772933004078140084847800a2abc70049
:10107400782da900097912007c4a7900b1238a00ed
:10108400796e9f00c879ad00ee057a00d810420051
:101094007a5b05007d7aa400cbb67a002363ef0067
:1010a4007a4fcb00267b9e00035d7b00890b920068
:1010b4007b90e200c57b300088f87b00eefb2900c2
:1010c4007c503d005a7cde004b897c002427b7000d
:1010d4007cb2ce00e37c1800420f7d00ec80390026
:1010e4007dc68a00627d40005f8a7d00f8fdb00005
:1010f4007d8f6600d67da80098fa7d00ea931d00d6
:101104007eff57003f7e9300e45f7e0057397f00e7
:101114007efc55009d7e39003aba7e00c6e5d500b6
:101124007e605800f07ec40091097f00b4912100d4
:101134007ff65700387f5100e44d7f008f36620000
:101144007f804e00757ff3002b877f00bdce970014
:101154007fb43600a77fb30063b57f009655c20005
:101164007f3e0c00ce7f8e0087d87f006bc7e100e6
:101174007fc0cb00e97f780094f07f008221f600e5
:101184007fd17200fa7f5a0088fd7f001662ff004b
:101194007fffff00ff7f160062ff7f005a88fd007b
:1011a4007fd17200fa7f820021f67f007894f000ec
:1011b4007fc0cb00e97f6b00c7e17f008e87d8003a
:1011c4007f3e0c00ce7f960055c27f00b363b5000e
:1011d4007fb43600a77fbd00ce977f00f32b870036
:1011e4007f804e00757f8f0036627f0051e44d0092
:1011f4007ff65700387fb40091217f00c491090025
:101204007f605800f07ec600e5d57e00393aba000a
:101214007efc55009d7e5700397f7e0093e45f007d
:101224007eff57003f7eea00931d7e00a898fa00d7
:101234007d8f6600d67df800fdb07d00405f8a009a
:101244007dc68a00627dec0080397d0018420f0063
:101254007db2ce00e37c240027b77c00de4b8900fe
:101264007c503d005a7cee00fb297c003088f8005d
:101274007b90e200c57b89000b927b009e035d009e
:101284007b4fcb00267b230063ef7a00a4cbb60010
:101294007a5b05007d7ad80010427a00adee050035
:1012a4007a6e9f00c879b100238a7900127c4a00c3
:1012b400792da9000979a200abc7780014848400b1
:1012c4007829330040788900b9fa7700df17b40031
:1012d40077db4e006c772d005f2377008949d900b6
:1012e40076a60e008e763d00af4176000b2cf400fe
:1012f40075cf8500a5754c00bd55750045d3040018
:101304007584c800b274d1009d5f7400fb530b0058
:1013140074d1eb00b5732600665f7300d0c3070079
:1013240073a70500af7285002c5572004939fa0085
:1013340071d22c009e71050008417100c6cbe200f9
:1013440070ff780083709a00102370008593c100a9
:101354006fb202005f6f12005ffb6e009da99600e2
:101364006e4ae300306e14000dca6d00fa27620065
:101374006dfc3400f96c1c00358f6c00602924006e
:101384006cd11200b86b7900f24a6b0064c9dc00be
:101394006aa498006d6a4a0061fd69006c248c009f
:1013a4006920e300196981009ea66800ab573200ea
:1013b40068bd0f00bd67d800c74667002081cf0015
:1013c40066bb3c005766d300fbdd650092bf63003b
:1013d40065268900e864bf00596c64009032ef0010
:1013e40063cc14007163ac0001f2620069fa71000d
:1013f400623f0000f1616c00146f61003038ec0052
:1014040060cf6c0068608d00b3e35f00b30d5e00d5
:101414005f8a7c00d75e5d0001505e007c9dc70042
:101424005d3752003e5de00020b45c00cc0a290028
:101434005c5411009d5bcf0035105b009a798200eb
:101444005a12de00f3599800646459008c0ed400db
:101454005854dd0042585600d2b05700faee1d0031
:1014640057a934008a56d200a4f55500e240600022
:10147400554b0a00ca547d0002335400f02a9b00e5
:101484005318850002536e00126952006ed4ce00c8
:101494005194cc0033515e00fc9750004d65fb0025
:1014a4004fe308005e4fa500e8bf4e001706210079
:1014b4004ec46200814d340000e14c00f4df3f0073
:1014c4004c9003009e4b98006cfb4a009e1c5800f5
:1014d4004a331500b449ee00570f490065e6690028
:1014e400482fc200c347e700ec1c4700286875007a
:1014f400468f3500cd45bd005624450050cd7a00b9
:1015040044ed9a00d0433500c1254300d0417a0010
:1015140042651e00ce419b00582141001df273001c
:101524004098ec00c53fb80049173f002c0b6800f9
:101534003ea63200b83dd600c1073d0070ba560041
:101544003c291e00a53bb700eef23a00d22d400024
:101554003a32dd008c399300fed83800b093240071
:1015640038469e006f37140020ba3600d91a04009a
:10157400365790004d3550008296340087f2de00d5
:1015840033c3e2002633c700546e32005e4ab5000e
:10159400314dc500fb306100c74130006252870005
:1015a4002f1e6800cc2e62000a112e00fc3a550052
:1015b4002dbafb00982c6f004edc2b00eb341f007f
:1015c4002b01b100612a8500c4a329004b71e500f9
:1015d4002828b9002628f4009d6727008621a80042
:1015e40026b64500e8255e000c28250058776700dc
:1015f400247f8800a623af0041e52200c5a4230070
:1016040022a0b30061211c00709f20001bdcdc00c1
:101614001f7bf900191f1e00ca561e00e54f9300d8
:101624001db38c00cf1c6a00820b1c00ef324700f4
:101634001b26a000821af300cbbd19003cb8f800a9
:1016440018e966003318de00d96d17000513a800e9
:1016540016451400e2158600df1b1500b17655000f
:1016640014b1db008e136f0010c81200d5160100f0
:1016740012cff00039114800a07210002b27ab00e4
:101684000f668700e30ee400c21b0e0092db5300da
:101694000d5ed3008b0c3500acc30b000568fb005a
:1016a4000abd0800330a4900906a09009a00a200a2
:1016b400089e5b00d9074500a31007007cd94700aa
:1016c400063500007f055d0019b60400e626ed002e
:1016d40003bf2a002403d700265b0200201d9200ca
:1016e40001880f00c90000000000000078f03600f7
:1016f400ffe0e2006dfe2900d9a4fd0041d5db0026
:10170400fc1ad90012fca300e649fb00cbff8000c1
:10171400fa842600b8f9bb005ceff80062a4260046
:10172400f866ff005df7b7006f95f60043f7cc004d
:10173400f5fb970004f5cb00533cf400a22c740095
:10174400f36e2400acf21c003de4f1009a781c0016
:10175400f1d5d80054f0b8005f8def00310fc6000a
:10176400ee2be900feed9100ef37ed004f24710000
:10177400ec4f8900aaeb7a0020e4ea00bbeb1d00e1
:10178400eafbec0057e922002692e8001799cc0006
:10179400e7c4470007e70d003442e600da5f7d0046
:1017a400e511cd00b8e496007df4e3004d733000fc
:1017b400e31bb0006ce2e20035a9e1008506e60017
:1017c400e0e5230023e0e4008f60df00604c9e002e
:1017d400de3b5b00dcdd5100be1add008177590081
:1017e400dca8880098dba200f3d7da004aba170015
:1017f400da7ade0057d90c006298d800d846d900ae
:10180400d7b58e001ad77b003b5cd600ff4e9e00f6
:10181400d515cb00e0d49100b123d4004604670071
:10182400d304c500aad29e00f5eed100e29733009e
:10183400d19ead0078d09f0038becf00b33a0400eb
:10184400cfa2b5004ace3900ab91cd003d1dd900e1
:10185400cc790d0021ccb0007d69cb00a96fb2001a
:10186400ca27e500fbc9ec00df45c900ba61900056
:10187400c8506c00dbc76d000127c700ce2273007f
:10188400c62ed200bfc54900110dc500d7e15a00cc
:10189400c4904500a9c32a003ef8c2005acd4700af
:1018a400c2d4f40097c14800b6e8c00068133a00f7
:1018b400c0e30d008cbf6500a7debe009be13100d4
:1018c400be30be0085bdcb003edabc0013652f00e0
:1018d400bcb0320085bb4300a9dbba0071ca320038
:1018e400bad897008ab9190013e3b800d13d3c0077
:1018f400b89b190096b71200a8f0b600cdea4b00c9
:10190400b662e300a7b568009304b50070fc6100fb
:10191400b40c2000c0b3cc00ff1eb3003c9d7e007d
:10192400b2e9f900deb15b001740b1001df7a10078
:10193400b0b39a0004b0a2000368af006c33cc00cb
:10194400ae922b0031ae9200ed96ad00e87afd0028
:10195400ac10d50064ac8300fdccab00b5f535000c
:10196400ab1ebf009faa2e005b0aaa0057cb7500ce
:10197400a9061100e2a8aa002d4fa800ac22bd00c0
:10198400a774f1002ba768009b9ba600ee210c0016
:10199400a66686007da53100caefa400acee620005
:1019a400a434f500d6a32000df4ba300c9adc100c9
:1019b400a284620038a2a300feafa10076832800af
:1019c400a14df200a1a073004c1ca000319397001c
:1019d4009fd0c700139f9400eb909e00c1ff0e00a0
:1019e4009e9705008e9d5400fe0d9d0034eb8e00e5
:1019f4009c70cd00109c4100a6939b00da761700e2
:101a04009b6e40009c9a2d0004229a0045c3a800b6
:101a140099e07e003099280038b9980043f04200dc
:101a24009855a800cd977f0061599700e01ce60007
:101a34009694db007396b6009e0296005c67920053
:101a4400959c3600239587000db594002fed470033
:101a540094a0d600db93e400ca70930004cb060084
:101a64009306d8009d92ec00f2359200b61ccf008c
:101a7400916356006991ee00a00491004efda00010
:101a8400907b6c003e906600efdc8f0001877c0049
:101a94008f3a34001d8ffb00f7be8e002ed36100f9
:101aa4008eb7c600058e7b00d3aa8d0059fa50006c
:101ab4008d303c00f88cda0099a08c002f144a0079
:101ac4008c05ac00f48b2f0062a08b007c374d009a
:101ad4008bbb2c00fb8ab40042aa8a00317a5a00dc
:101ae4008af5d3000b8ac30050be89005af17100f5
:101af4008977b6002689d300a0dc880025b193003d
:101b04008821e8004b88770046058800d7ccbf00c1
:101b140087ec7b007b875e0054388700d356f60041
:101b240086ee8300b5864f00dc7586009260370030
:101b340086531100fa852800efbd8500a5fa8200be
:101b4400855c34004985dd009c108500b134d900e2
:101b54008462fc00a2847700f46d8400701d3a0056
:101b640084d077000784120004d68300b0c2a50095
:101b74008322b4007683dc00d84883004e311c00f5
:101b840083e8bd00f08214007fc682003a759d0090
:101b940082c0a00075820800024f8200719929005a
:101ba40082586700058216006ce2810001a8c0001b
:101bb400816d1b00a081a900c680810004aa620077
:101bc40081c7c50045813a001a2a8100a0a70f00e9
:101bd400813c6e00f6804c006ede80000aa8c700cf
:101be40080af1b00b2807100c99d800080b18a0063
:101bf400800dd40078804300316880004cc95800bf
:101c0400804d9c004a806a00aa3d8000c2f33100e6
:101c14008072780027809500381e800040341600ba
:101c240080886b000f807e00de0980002f8d050008
:101c340080a677000280ea009d008000003000004a
:101c440000200000800000000810000002000000d6
:101c5400800000000e1c0000060000008000000050
:101c64000a1000000200000082000000ffff0000d4
:101c7400141c000002000000800000000c10000092
:101c840002000000800000000010000008000000b6
:081c94008000000000000000c8
:020000040000fa
:101c9c0002f0a70006003700182eb70004800900d8
:101cac000000000018aeb600018009000000000022
:101cbc0002f0a60006003700182eb70006800900b7
:101ccc000000000018aeb6000580090000000000fe
:101cdc0002e0a70006003700182eb70004800900a8
:101cec000000000018aeb6000180090000000000e2
:101cfc0002e0a60006003700182eb7000680090087
:101d0c000000000018aeb6000580090000000000bd
:101d1c0002d0a70006003700182eb7000480090077
:101d2c000000000018aeb6000180090000000000a1
:101d3c0002d0a60006003700182eb7000680090056
:101d4c000000000018aeb60005800900000000007d
:101d5c0002c0a70006003700182eb7000480090047
:101d6c000000000018aeb600018009000000000061
:101d7c0002c0a60006003700182eb7000680090026
:101d8c000000000018aeb60005800900000000003d
:101d9c0002b0a70006003700182eb7000480090017
:101dac000000000018aeb600018009000000000021
:101dbc0002b0a60006003700182eb70006800900f6
:101dcc000000000018aeb6000580090000000000fd
:101ddc0002a0a70006003700182eb70004800900e7
:101dec000000000018aeb6000180090000000000e1
:101dfc0002a0a60006003700182eb70006800900c6
:101e0c000000000018aeb6000580090000000000bc
:101e1c000290a70006003700182eb70004800900b6
:101e2c000000000018aeb6000180090000000000a0
:101e3c000290a60006003700182eb7000680090095
:101e4c000000000018aeb60005800900000000007c
:101e5c000280a70006003700182eb7000480090086
:101e6c000000000018aeb600018009000000000060
:101e7c000280a60006003700182eb7000680090065
:101e8c000000000018aeb60005800900000000003c
:101e9c000370a70006003700182eb7000480090055
:101eac000000000018aeb600018009000000000020
:101ebc000370a60006003700182eb7000680090034
:101ecc000000000018aeb6000580090000000000fc
:101edc000360a70006003700182eb7000480090025
:101eec000000000018aeb6000180090000000000e0
:101efc000360a60006003700182eb7000680090004
:101f0c000000000018aeb6000580090000000000bb
:101f1c000350a70006003700182eb70004800900f4
:101f2c000000000018aeb60001800900000000009f
:101f3c000350a60006003700182eb70006800900d3
:101f4c000000000018aeb60005800900000000007b
:101f5c000340a70006003700182eb70004800900c4
:101f6c000000000018aeb60001800900000000005f
:101f7c000340a60006003700182eb70006800900a3
:101f8c000000000018aeb60005800900000000003b
:101f9c000330a70006003700182eb7000480090094
:101fac000000000018aeb60001800900000000001f
:101fbc000330a60006003700182eb7000680090073
:101fcc000000000018aeb6000580090000000000fb
:101fdc000320a70006003700182eb7000480090064
:101fec000000000018aeb6000180090000000000df
:101ffc000320a60006003700182eb7000680090043
:10200c000000000018aeb6000580090000000000ba
:10201c000310a70006003700182eb7000480090033
:10202c000000000018aeb60001800900000000009e
:10203c000310a60006003700182eb7000680090012
:10204c000000000018aeb60005800900000000007a
:10205c000300a70006003700182eb7000480090003
:10206c000000000018aeb60001800900000000005e
:10207c000300a60006003700182eb70006800900e2
:10208c000000000018aeb60005800900000000003a
:10209c000270a70006003700182eb7000480090054
:1020ac000000000018aeb60001800900000000001e
:1020bc000270a60006003700182eb7000680090033
:1020cc000000000018aeb6000580090000000000fa
:1020dc000260a70006003700182eb7000480090024
:1020ec000000000018aeb6000180090000000000de
:1020fc000260a60006003700182eb7000680090003
:10210c000000000018aeb6000580090000000000b9
:10211c000250a70006003700182eb70004800900f3
:10212c000000000018aeb60001800900000000009d
:10213c000250a60006003700182eb70006800900d2
:10214c000000000018aeb600058009000000000079
:10215c000240a70006003700182eb70004800900c3
:10216c000000000018aeb60001800900000000005d
:10217c000240a60006003700182eb70006800900a2
:10218c000000000018aeb600058009000000000039
:10219c000230a70006003700182eb7000480090093
:1021ac000000000018aeb60001800900000000001d
:1021bc000230a60006003700182eb7000480090074
:1021cc000000000018aeb6000180090000000000fd
:1021dc000220a70006003700182eb7000480090063
:1021ec000000000018aeb6000180090000000000dd
:1021fc000220a60006003700182eb7000480090044
:10220c000000000018aeb6000180090000000000bc
:10221c000210a70006003700182eb7000480090032
:10222c000000000018aeb60001800900000000009c
:10223c000210a60006003700182eb7000480090013
:10224c000000000018aeb60001800900000000007c
:10225c000200a70006003700182eb7000480090002
:10226c000000000018aeb60001800900000000005c
:10227c000200a60006003700182eb70004800900e3
:10228c000000000018aeb60001800900000000003c
:10229c00000006000001fa0030bf980041bf980012
:1022ac0052bf980063bf980074bf9800e6004700c7
:1022bc00770009008018eb000000eb00000f78009d
:1022cc003500370010002000010020001e017800ae
:1022dc00820178008301e900030033000000400014
:1022ec0081804800fbff37000002be006033b8005d
:1022fc003eb89000ceb890005eb99000eeb9900058
:10230c00000062008180620002016300838163002f
:10231c00e00f5000e08f5800e00f5900e08f59009b
:10232c00080032001e0078004200dd00660040000c
:10233c0000014700f0ff2f00f10f20000089be00c4
:10234c00060037001e0078004200dd0066004000e9
:10235c00000147006000b8000089be001e00780034
:10236c00ff0f50000b003a003eb89000ceb8900022
:10237c005eb99000eeb99000010078008200780000
:10238c006119b80030bf980041bf980052bf980047
:10239c0063bf98001e0fe8009e0078007eb8900086
:1023ac00808f5000c7ff3900feb8900011079800cd
:1023bc00180037001e0090004200dd00660040004f
:1023cc000001470000002000f10f20000089be0032
:1023dc001e009000ff0f50000b003a003eb890001a
:1023ec00ceb890005eb99000eeb990000100780074
:1023fc00820078006119b80030bf980041bf980086
:10240c0052bf980063bf98001e0090000000e800c7
:10241c00100798009e009000b0032000808f5000a1
:10242c00e4ff34000000eb00200798001100370097
:10243c00368080002580800014808000078080001a
:10244c002e0090004200dd006600400000004700b6
:10245c0090009000100078000001be00870078000a
:10246c00000220000afe07002e0090000000e80089
:10247c0020079800ae009000b0032000808f500021
:10248c00ebff34000080fa00000006000200fa00a6
:10249c00000f78001e0078008000eb001ff9070089
:1024ac000002be0020308400313084000001be00e8
:1024bc000400be0030f90700fdf8070000007800aa
:1024cc000080880001808000c030840000805000b3
:1024dc00008088001e0078008000eb000ff90700d8
:1024ec000002be0040308400513084000001be0068
:1024fc000400be0020f90700edf80700000078008a
:10250c001080880011808000c03084000080500052
:10251c00108088001e0078008000eb00fff8070098
:10252c000002be0060308400713084000001be00e7
:10253c000400be0010f90700ddf807000000780069
:10254c002080880021808000c030840000805000f2
:10255c00208088001e0078008000eb00eff8070058
:10256c000002be0080308400913084000001be0067
:10257c000400be0000f90700cdf807000000780049
:10258c003080880031808000c03084000080500092
:10259c00308088000080fa00000006000200fa007b
:1025ac00000f78001e007800b8ff07000080fa00ca
:1025bc00000006000400fa00008fbe00338080008b
:1025cc00228080001180800000808000030378004e
:1025dc008202780001027800800078001e017800e9
:1025ec009e01900000022000a9fd07000080fa0067
:1025fc00000006000000fa00003a80000080fa009b
:10260c00000006000200fa00faff0700000f780035
:10261c001e007800240007000004e00002003200d5
:10262c0000002800710007001e0078002a00070037
:10263c000004e00002003200000024006b000700e0
:10264c001e007800320007000004e0000200320097
:10265c0000202000650007001e0078003a000700eb
:10266c000004e00002003200000820005f000700b8
:10267c001e007800420007000004e0000200320057
:10268c0000042000590007001e0078004a000700d3
:10269c000004e0000200320000012000530007009b
:1026ac000080fa00000006000400fa0010079800f1
:1026bc000040eb00004f78001e0090000000e0008e
:1026cc0002003d0010c0b300004f78001e4078009f
:1026dc000080fa00000006000400fa0010079800c1
:1026ec000040eb00004f78009e009000000024009a
:1026fc00008060000000e0000200320010c0b30057
:10270c00004f78001e4078000080fa0000000600a0
:10271c000400fa00100798000040eb00004f78000e
:10272c009e00900000202000008060000000e0006f
:10273c000200320010c0b300004f78001e40780039
:10274c000080fa00000006000400fa001007980050
:10275c000040eb00004f78009e0090000008200025
:10276c00008060000000e0000200320010c0b300e6
:10277c00004f78001e4078000080fa000000060030
:10278c000400fa00100798000040eb00004f78009e
:10279c009e00900000042000008060000000e0001b
:1027ac000200320010c0b300004f78001e407800c9
:1027bc000080fa00000006000400fa0010079800e0
:1027cc000040eb00004f78001e009000700060008d
:1027dc000000e0000200320010c0b300004f78008f
:1027ec001e4078000080fa00000006000200fa008b
:1027fc00000f78009e80ea00003a800000806000a4
:10280c00003a88000080fa00000006000000fa0080
:10281c004027ef000080fa00000006000000fa00dc
:10282c000a21ef00006c20007008880000002800ce
:10283c009008880040c121008040eb0001487800de
:10284c000080fa00000006000000fa000140800041
:10285c0000102000008060000000e0000900320041
:10286c0050c12100104078008040e80050c1210088
:10287c000148780040c1210011c0b3000148780024
:10288c000108a9000080fa00000006000200fa000e
:10289c00000f78009e0078007108880040c121006c
:1028ac008040eb00014878000080fa000000060030
:1028bc000000fa00700880000080fa00000006009a
:1028cc000200fa00000f78009e0078005108880082
:1028dc0040c121008040eb00014878000080fa00e4
:1028ec00000006000000fa00500880000080fa008a
:1028fc00000006000000fa0040c121008040eb00ff
:10290c000148780013e1a8000080fa0000000600de
:10291c000000fa0013e1a9000080fa000000060094
:10292c000200fa0040c12100104f78001e407800d0
:10293c000004e0000300320040c121008040eb00a5
:10294c00014878001e4078000080fa000000060064
:10295c000000fa0050c12100104078000080fb00fc
:10296c000080fa00000006000000fa0050c12100af
:10297c008040eb00014878000080fa00000006005f
:10298c000000fa0000202300203a88004827ef00be
:10299c004e27ef00a0122000303a88004420a900f6
:1029ac0044c0a90044e0a9004480a9001200200002
:1029bc0080072000a1092000337420008049780092
:1029cc0081497800824978001200200060042000c0
:1029dc00710520002374200080497800814978001b
:1029ec008249780000000000103a8000610060000d
:1029fc000000e000fcff3a0000000000113a8000eb
:102a0c0000022000008060000000e000fbff3200ac
:102a1c000080fa00000006000200fa00000f7800a7
:102a2c0021028000200f2000008060001e0070003a
:102a3c00200288000080fa00000006000000fa0066
:102a4c00c3e8a80000000000000000000080fa00ad
:102a5c00000006000000fa00090007004f00070004
:102a6c00c7ff07001b0007006cff0700f3ff070000
:102a7c0000022000e8ff07000080fa0000000600ba
:102a8c000000fa00042eef00182eef00f0012000d9
:102a9c0000708800f0fd2f00a07088000c2eef0055
:102aac00202eef000a2eef001e2eef00000120005a
:102abc003070880010002000d0708800700020005a
:102acc007070880020382000107188000080fa0097
:102adc00000006000000fa0040742800001988006d
:102aec00c0432000101988002423ef0000082000a8
:102afc00401988002e23ef00100020008019880058
:102b0c003223ef002623ef00101980004200de0074
:102b1c007f4060000cf0b70021a8a8000080fa00ec
:102b2c00000006000000fa0095ff07000080fa0084
:102b3c00000006000000fa00aefe07000080fa005c
:102b4c00000006000000fa00aefe07000080fa004c
:102b5c00000006000000fa002cff07000080fa00bd
:042b6c00000006005f
:020000040000fa
:102b7000f03fb1000180b10006003500ee0309000e
:102b800000000000403fb1000180b100fbff3d00ac
:102b90001000b000203fb0000200350000800900a6
:082ba000000000000000060027
:020000040000fa
:102ba8000000fa0031428000f0f82f000080600039
:102bb8000040a000304288000080fa0000000600b3
:102bc8000000fa00a4ff07005004200074fe07006c
:102bd80013e1a80021e3a800ffff3700000f7800e9
:0c2be8009e00780051808800ffff37003d
:020000040000fa
:020000040005f5
:04570000ffff0000a7
:020000040000fa
:020000040005f5
:04572000ffff000087
:020000040000fa
:020000040005f5
:04573000f8ff00007e
:020000040000fa
:020000040005f5
:045738003bff000033
:020000040000fa
:020000040005f5
:045740009fff0000c7
:020000040000fa
:020000040005f5
:04574800ffff00005f
:020000040000fa
:020000040005f5
:04575000ffff000057
:020000040000fa
:020000040005f5
:04575800000000004d
:020000040000fa
:020000040005f5
:045760000000000045
:020000040000fa
:020000040005f5
:04576800000000003d
:020000040000fa
:020000040005f5
:045770000000000035
:020000040000fa
:020000040005f5
:04577800feff000030
:020000040000fa
:020000040005f5
:04578000ffff000027
:020000040000fa
:020000040005f5
:04578800ffff00001f
:00000001FF
