:020000040000fa
:080000000002040000000000f2
:020000040000fa
:040008005c04000094
:020000040000fa
:04000c005c04000090
:020000040000fa
:040010005c0400008c
:020000040000fa
:040014005c04000088
:020000040000fa
:040018005c04000084
:020000040000fa
:04001c005c04000080
:020000040000fa
:040020005c0400007c
:020000040000fa
:040024005c04000078
:020000040000fa
:040028005c04000074
:020000040000fa
:04002c005c04000070
:020000040000fa
:040030005c0400006c
:020000040000fa
:040034005c04000068
:020000040000fa
:040038005c04000064
:020000040000fa
:04003c005c04000060
:020000040000fa
:040040005c0400005c
:020000040000fa
:040044005c04000058
:020000040000fa
:040048005c04000054
:020000040000fa
:04004c005c04000050
:020000040000fa
:040050005c0400004c
:020000040000fa
:040054005c04000048
:020000040000fa
:040058005c04000044
:020000040000fa
:04005c005c04000040
:020000040000fa
:040060005c0400003c
:020000040000fa
:040064005c04000038
:020000040000fa
:040068005c04000034
:020000040000fa
:04006c005c04000030
:020000040000fa
:040070005c0400002c
:020000040000fa
:040074005c04000028
:020000040000fa
:040078005c04000024
:020000040000fa
:04007c005c04000020
:020000040000fa
:040080005c0400001c
:020000040000fa
:040084005c04000018
:020000040000fa
:040088005c04000014
:020000040000fa
:04008c005c04000010
:020000040000fa
:040090005c0400000c
:020000040000fa
:040094005c04000008
:020000040000fa
:040098005c04000004
:020000040000fa
:04009c005c04000000
:020000040000fa
:0400a0005c040000fc
:020000040000fa
:0400a4005c040000f8
:020000040000fa
:0400a8005c040000f4
:020000040000fa
:0400ac005c040000f0
:020000040000fa
:0400b0005c040000ec
:020000040000fa
:0400b4005c040000e8
:020000040000fa
:0400b8005c040000e4
:020000040000fa
:0400bc005c040000e0
:020000040000fa
:0400c0005c040000dc
:020000040000fa
:0400c4005c040000d8
:020000040000fa
:0400c8005c040000d4
:020000040000fa
:0400cc005c040000d0
:020000040000fa
:0400d0005c040000cc
:020000040000fa
:0400d4005c040000c8
:020000040000fa
:0400d8005c040000c4
:020000040000fa
:0400dc005c040000c0
:020000040000fa
:0400e000fa02000020
:020000040000fa
:0400e4005c040000b8
:020000040000fa
:0400e8005c040000b4
:020000040000fa
:0400ec005c040000b0
:020000040000fa
:0400f0005c040000ac
:020000040000fa
:0400f4005c040000a8
:020000040000fa
:0400f8005c040000a4
:020000040000fa
:0400fc005c040000a0
:020000040000fa
:040100005c0400009b
:020000040000fa
:040104005c04000097
:020000040000fa
:040108005c04000093
:020000040000fa
:04010c005c0400008f
:020000040000fa
:040110005c0400008b
:020000040000fa
:040114005c04000087
:020000040000fa
:040118005c04000083
:020000040000fa
:04011c005c0400007f
:020000040000fa
:040120005c0400007b
:020000040000fa
:040124005c04000077
:020000040000fa
:040128005c04000073
:020000040000fa
:04012c005c0400006f
:020000040000fa
:040130005c0400006b
:020000040000fa
:040134005c04000067
:020000040000fa
:040138005c04000063
:020000040000fa
:04013c005c0400005f
:020000040000fa
:040140005c0400005b
:020000040000fa
:040144005c04000057
:020000040000fa
:040148005c04000053
:020000040000fa
:04014c005c0400004f
:020000040000fa
:040150005c0400004b
:020000040000fa
:040154005c04000047
:020000040000fa
:040158005c04000043
:020000040000fa
:04015c005c0400003f
:020000040000fa
:040160005c0400003b
:020000040000fa
:040164005c04000037
:020000040000fa
:040168005c04000033
:020000040000fa
:04016c005c0400002f
:020000040000fa
:040170005c0400002b
:020000040000fa
:040174005c04000027
:020000040000fa
:040178005c04000023
:020000040000fa
:04017c005c0400001f
:020000040000fa
:040180005c0400001b
:020000040000fa
:040184005c04000017
:020000040000fa
:040188005c04000013
:020000040000fa
:04018c005c0400000f
:020000040000fa
:040190005c0400000b
:020000040000fa
:040194005c04000007
:020000040000fa
:040198005c04000003
:020000040000fa
:04019c005c040000ff
:020000040000fa
:0401a0005c040000fb
:020000040000fa
:0401a4005c040000f7
:020000040000fa
:0401a8005c040000f3
:020000040000fa
:0401ac005c040000ef
:020000040000fa
:0401b0005c040000eb
:020000040000fa
:0401b4005c040000e7
:020000040000fa
:0401b8005c040000e3
:020000040000fa
:0401bc005c040000df
:020000040000fa
:0401c0005c040000db
:020000040000fa
:0401c4005c040000d7
:020000040000fa
:0401c8005c040000d3
:020000040000fa
:0401cc005c040000cf
:020000040000fa
:0401d0005c040000cb
:020000040000fa
:0401d4005c040000c7
:020000040000fa
:0401d8005c040000c3
:020000040000fa
:0401dc005c040000bf
:020000040000fa
:0401e0005c040000bb
:020000040000fa
:0401e4005c040000b7
:020000040000fa
:0401e8005c040000b3
:020000040000fa
:0401ec005c040000af
:020000040000fa
:0401f0005c040000ab
:020000040000fa
:0401f4005c040000a7
:020000040000fa
:0401f8005c040000a3
:020000040000fa
:0401fc005c0400009f
:020000040000fa
:040200005c0400009a
:020000040000fa
:040204005c04000096
:020000040000fa
:040208005c04000092
:020000040000fa
:04020c005c0400008e
:020000040000fa
:040210005c0400008a
:020000040000fa
:040214005c04000086
:020000040000fa
:040218005c04000082
:020000040000fa
:04021c005c0400007e
:020000040000fa
:040220005c0400007a
:020000040000fa
:040224005c04000076
:020000040000fa
:040228005c04000072
:020000040000fa
:04022c005c0400006e
:020000040000fa
:040230005c0400006a
:020000040000fa
:040234005c04000066
:020000040000fa
:040238005c04000062
:020000040000fa
:04023c005c0400005e
:020000040000fa
:040240005c0400005a
:020000040000fa
:040244005c04000056
:020000040000fa
:040248005c04000052
:020000040000fa
:04024c005c0400004e
:020000040000fa
:040250005c0400004a
:020000040000fa
:040254005c04000046
:020000040000fa
:040258005c04000042
:020000040000fa
:04025c005c0400003e
:020000040000fa
:040260005c0400003a
:020000040000fa
:040264005c04000036
:020000040000fa
:040268005c04000032
:020000040000fa
:04026c005c0400002e
:020000040000fa
:040270005c0400002a
:020000040000fa
:040274005c04000026
:020000040000fa
:040278005c04000022
:020000040000fa
:04027c005c0400001e
:020000040000fa
:040280005c0400001a
:020000040000fa
:040284005c04000016
:020000040000fa
:040288005c04000012
:020000040000fa
:04028c005c0400000e
:020000040000fa
:040290005c0400000a
:020000040000fa
:040294005c04000006
:020000040000fa
:040298005c04000002
:020000040000fa
:04029c005c040000fe
:020000040000fa
:0402a0005c040000fa
:020000040000fa
:0402a4005c040000f6
:020000040000fa
:0402a8005c040000f2
:020000040000fa
:0402ac005c040000ee
:020000040000fa
:0402b0005c040000ea
:020000040000fa
:0402b4005c040000e6
:020000040000fa
:0402b8005c040000e2
:020000040000fa
:0402bc005c040000de
:020000040000fa
:0402c0005c040000da
:020000040000fa
:0402c4005c040000d6
:020000040000fa
:0402c8005c040000d2
:020000040000fa
:0402cc005c040000ce
:020000040000fa
:0402d0005c040000ca
:020000040000fa
:0402d4005c040000c6
:020000040000fa
:0402d8005c040000c2
:020000040000fa
:0402dc005c040000be
:020000040000fa
:0402e0005c040000ba
:020000040000fa
:0402e4005c040000b6
:020000040000fa
:0402e8005c040000b2
:020000040000fa
:0402ec005c040000ae
:020000040000fa
:0402f0005c040000aa
:020000040000fa
:0402f4005c040000a6
:020000040000fa
:0402f8005c040000a2
:020000040000fa
:0402fc005c0400009e
:020000040000fa
:040300005c04000099
:020000040000fa
:040304005c04000095
:020000040000fa
:040308005c04000091
:020000040000fa
:04030c005c0400008d
:020000040000fa
:040310005c04000089
:020000040000fa
:100400002fc021000eff22000e0188000000000016
:10041000100020000000e000020032000001200077
:100420002002880014000700250107000000e000fa
:1004300003003a004047200001002000020037007e
:100440000000200001002000810f70000100320038
:100450000f000700000020000000e0000200320052
:100460000000020000000000a40e020000000000d6
:100470000040da000000fe00200120000000e00043
:1004800002003200002020009001880000000600d9
:10049000a1028800800478000000eb001f003700f4
:1004a000e284440054a0b4009905ba00e2844400f8
:1004b00054a0b4009906ba00e284440054a0b400e9
:1004c0000006eb00476fde00fd07b200ae018800ba
:1004d000636ce10003003a000ad801000000eb0061
:1004e0000e003700606ce10008003a00004deb00a0
:1004f0000a05e800020039003420ec000af0a000f0
:100500008b05e900f9ff3e00040037006168e10057
:10051000010032000086eb000b00070019c7ba008b
:100520000e04e0001905ba0003003a000a00e000da
:10053000dbff3a0000000600fe07b200ae028800b2
:100540008a047800f5ff37000cd0a300e20f4d00bd
:100550001c00390089027800354dba000a05e80010
:10056000020039003420ec000af0a0008b05e900fd
:100570000f003200254dba000a05e80002003900dc
:100580003420ec000af0a0008b05e90008003200de
:100590000c00e0000600320015cdba000a05e800a4
:1005a000020039003420ec000af0a0008b05e900bd
:1005b0008984e80054a0b4000b00e000e2ff3a0098
:1005c000000006009902ba00055d78008b05e9007d
:1005d000f7ff3200c82ade00055d78008b05e900d0
:1005e000f3ff32000c00e000f1ff320019ddba0029
:1005f000eeff3700809fbe00821f78003200f800b7
:100600003400f80010002000a00188000020200025
:1006100090018800000000000000fa00001880002f
:1006200000808000c200dd00000023000081400047
:100630006000b8000089be001018800000808000b3
:100640000000e8000080880000808000c200dd001b
:1006500000002300008140006000b8000089be0057
:1006600020188000008080000000e80000808800e2
:1006700000808000c200dd000000230000814000f7
:100680006000b8000089be00301880000080800043
:100690000000e8000080880000808000c200dd00cb
:1006a00000002300008140006000b8000089be0007
:1006b00040188000008080000000e8000080880072
:1006c00000808000c200dd000000230000814000a7
:1006d0006000b8000089be005018800000808000d3
:1006e0000000e8000080880000808000c200dd007b
:1006f00000002300008140006000b8000089be00b7
:1007000060188000008080000000e8000080880001
:1007100000808000c200dd00000023000081400056
:100720006000b8000089be00701880000080800062
:100730000000e8000080880000808000c200dd002a
:1007400000002300008140006000b8000089be0066
:1007500080188000008080000000e8000080880091
:1007600000808000c200dd00000023000081400006
:100770006000b8000089be009018800000808000f2
:100780000000e8000080880000808000c200dd00da
:1007900000002300008140006000b8000089be0016
:1007a000a0188000008080000000e8000080880021
:1007b00000808000c200dd000000230000814000b6
:1007c0006000b8000089be00b01880000080800082
:1007d0000000e8000080880000808000c200dd008a
:1007e00000002300008140006000b8000089be00c6
:1007f000c0188000008080000000e80000808800b1
:1008000000808000c200dd00000023000081400065
:100810006000b8000089be00d01880000080800011
:100820000000e8000080880000808000c200dd0039
:1008300000002300008140006000b8000089be0075
:10084000e0188000008080000000e8000080880040
:1008500000808000c200dd00000023000081400015
:100860006000b8000089be00f018800000808000a1
:100870000000e8000080880000808000c200dd00e9
:1008800000002300008140006000b8000089be0025
:10089000008080000000e8000080880001a8a90016
:1008a0000080fa003400f9003200f9004f017800ae
:1008b0004f00be00004006000040da000000fe00cd
:0408c000000005002f
:020000040000fa
:1008c400ff00000000000000000000000000000025
:1008d400ff00000000000000000000000000000015
:0408e400ff00000011
:020000040000fa
:1008e80002100000000c0000820000000000000060
:1008f80000880f00c90020001d920100d7265b0068
:1009080002bf2a002403e60026ed03005d19b600a5
:10091800043500007f057c00d947060045a3100078
:10092800079e5b00d9079a0000a2080049906a0058
:1009380009bd0800330a050068fb0a0035acc3008e
:100948000b5ed3008b0c9200db530d00e4c21b003e
:100958000e668700e30e2b0027ab0f0048a072003d
:1009680010cff0003911d500160112006f10c80021
:1009780012b1db008e13b1007655140086df1b0020
:1009880015451400e215050013a81600ded96d0000
:1009980017e9660033183c00b8f81800f3cbbd001f
:1009a8001926a000821aef0032471b006a820b004a
:1009b8001cb38c00cf1ce5004f931d001eca5600c7
:1009c8001e7bf900191f1b00dcdc1f001c709f0038
:1009d80020a0b3006121c500a4232200af41e50097
:1009e800227f8800a6235800776724005e0c280021
:1009f80025b64500e825860021a82600f49d670055
:100a08002728b90026284b0071e5280085c4a300d3
:100a18002901b100612aeb00341f2b006f4edc0066
:100a28002bbafb00982cfc003a552d00620a1100e5
:100a38002e1e6800cc2e620052872f0061c741002d
:100a4800304dc500fb305e004ab53100c7546e001a
:100a580032c3e20026338700f2de3300508296006c
:100a6800345790004d35d9001a0436001420ba00c6
:100a780036469e006f37b0009324380093fed800a6
:100a88003832dd008c39d2002d403a00b7eef20042
:100a98003a291e00a53b7000ba563c00d6c1070093
:100aa8003da63200b83d2c000b683e00b84917003f
:100ab8003f98ec00c53f1d00f27340009b58210091
:100ac80041651e00ce41d000417a420035c1250063
:100ad80043ed9a00d0435000cd7a4400bd5624001f
:100ae800458f3500cd45280068754600e7ec1c00a9
:100af800472fc200c3476500e6694800ee570f005c
:100b080049331500b4499e001c584a00986cfb00f4
:100b18004a9003009e4bf400df3f4c003400e10094
:100b28004cc46200814d170006214e00a5e8bf00a5
:100b38004ee308005e4f4d0065fb4f005efc9700da
:100b48005094cc0033516e00d4ce51006e1269001f
:100b5800521885000253f0002a9b53007d0233008f
:100b6800544b0a00ca54e20040605500d2a4f50074
:100b780055a934008a56fa00ee1d570056d2b00027
:100b88005754dd0042588c000ed458009864640015
:100b98005912de00f3599a0079825a00cf351000b5
:100ba8005b5411009d5bcc000a295c00e020b40076
:100bb8005c3752003e5d7c009dc75d005d015000c2
:100bc8005e8a7c00d75eb3000d5e5f008db3e300e4
:100bd8005fcf6c006860300038ec60006c146f0008
:100be800613f0000f1616900fa716200ac01f20036
:100bf80062cc14007163900032ef6300bf596c003f
:100c080064268900e8649200bf636500d3fbdd00b9
:100c180065bb3c005766200081cf6600d8c74600f8
:100c280067bd0f00bd67ab0057326800819ea60004
:100c38006820e30019696c00248c69004a61fd0092
:100c480069a498006d6a6400c9dc6a0079f24a00f8
:100c58006bd11200b86b600029246c001c358f0022
:100c68006cfc3400f96cfa0027626d00140dca00a0
:100c78006d4ae300306e9d00a9966e00125ffb007e
:100c88006eb202005f6f850093c16f009a10230057
:100c980070ff78008370c600cbe270000508410041
:100ca80071d22c009e71490039fa7100852c5500cb
:100cb80072a70500af72d000c307730026665f00f5
:100cc80073d1eb00b573fb00530b7400d19d5f002b
:100cd8007484c800b2744500d30475004cbd550037
:100ce80075cf8500a5750b002cf475003daf41004c
:100cf80076a60e008e76890049d976002d5f2300ee
:100d080077db4e006c77df0017b4770089b9fa00fb
:100d1800772933004078140084847800a2abc70098
:100d2800782da900097912007c4a7900b1238a003c
:100d3800796e9f00c879ad00ee057a00d8104200a0
:100d48007a5b05007d7aa400cbb67a002363ef00b6
:100d58007a4fcb00267b9e00035d7b00890b9200b7
:100d68007b90e200c57b300088f87b00eefb290011
:100d78007c503d005a7cde004b897c002427b7005c
:100d88007cb2ce00e37c1800420f7d00ec80390075
:100d98007dc68a00627d40005f8a7d00f8fdb00054
:100da8007d8f6600d67da80098fa7d00ea931d0025
:100db8007eff57003f7e9300e45f7e0057397f0037
:100dc8007efc55009d7e39003aba7e00c6e5d50006
:100dd8007e605800f07ec40091097f00b491210024
:100de8007ff65700387f5100e44d7f008f36620050
:100df8007f804e00757ff3002b877f00bdce970064
:100e08007fb43600a77fb30063b57f009655c20054
:100e18007f3e0c00ce7f8e0087d87f006bc7e10035
:100e28007fc0cb00e97f780094f07f008221f60034
:100e38007fd17200fa7f5a0088fd7f001662ff009a
:100e48007fffff00ff7f160062ff7f005a88fd00ca
:100e58007fd17200fa7f820021f67f007894f0003b
:100e68007fc0cb00e97f6b00c7e17f008e87d80089
:100e78007f3e0c00ce7f960055c27f00b363b5005d
:100e88007fb43600a77fbd00ce977f00f32b870085
:100e98007f804e00757f8f0036627f0051e44d00e1
:100ea8007ff65700387fb40091217f00c491090074
:100eb8007f605800f07ec600e5d57e00393aba005a
:100ec8007efc55009d7e5700397f7e0093e45f00cd
:100ed8007eff57003f7eea00931d7e00a898fa0027
:100ee8007d8f6600d67df800fdb07d00405f8a00ea
:100ef8007dc68a00627dec0080397d0018420f00b3
:100f08007db2ce00e37c240027b77c00de4b89004d
:100f18007c503d005a7cee00fb297c003088f800ac
:100f28007b90e200c57b89000b927b009e035d00ed
:100f38007b4fcb00267b230063ef7a00a4cbb6005f
:100f48007a5b05007d7ad80010427a00adee050084
:100f58007a6e9f00c879b100238a7900127c4a0012
:100f6800792da9000979a200abc778001484840000
:100f78007829330040788900b9fa7700df17b40080
:100f880077db4e006c772d005f2377008949d90005
:100f980076a60e008e763d00af4176000b2cf4004d
:100fa80075cf8500a5754c00bd55750045d3040067
:100fb8007584c800b274d1009d5f7400fb530b00a8
:100fc80074d1eb00b5732600665f7300d0c30700c9
:100fd80073a70500af7285002c5572004939fa00d5
:100fe80071d22c009e71050008417100c6cbe20049
:100ff80070ff780083709a00102370008593c100f9
:101008006fb202005f6f12005ffb6e009da9960031
:101018006e4ae300306e14000dca6d00fa276200b4
:101028006dfc3400f96c1c00358f6c0060292400bd
:101038006cd11200b86b7900f24a6b0064c9dc000d
:101048006aa498006d6a4a0061fd69006c248c00ee
:101058006920e300196981009ea66800ab57320039
:1010680068bd0f00bd67d800c74667002081cf0064
:1010780066bb3c005766d300fbdd650092bf63008a
:1010880065268900e864bf00596c64009032ef005f
:1010980063cc14007163ac0001f2620069fa71005c
:1010a800623f0000f1616c00146f61003038ec00a1
:1010b80060cf6c0068608d00b3e35f00b30d5e0025
:1010c8005f8a7c00d75e5d0001505e007c9dc70092
:1010d8005d3752003e5de00020b45c00cc0a290078
:1010e8005c5411009d5bcf0035105b009a7982003b
:1010f8005a12de00f3599800646459008c0ed4002b
:101108005854dd0042585600d2b05700faee1d0080
:1011180057a934008a56d200a4f55500e240600071
:10112800554b0a00ca547d0002335400f02a9b0034
:101138005318850002536e00126952006ed4ce0017
:101148005194cc0033515e00fc9750004d65fb0074
:101158004fe308005e4fa500e8bf4e0017062100c8
:101168004ec46200814d340000e14c00f4df3f00c2
:101178004c9003009e4b98006cfb4a009e1c580044
:101188004a331500b449ee00570f490065e6690077
:10119800482fc200c347e700ec1c470028687500c9
:1011a800468f3500cd45bd005624450050cd7a0008
:1011b80044ed9a00d0433500c1254300d0417a0060
:1011c80042651e00ce419b00582141001df273006c
:1011d8004098ec00c53fb80049173f002c0b680049
:1011e8003ea63200b83dd600c1073d0070ba560091
:1011f8003c291e00a53bb700eef23a00d22d400074
:101208003a32dd008c399300fed83800b0932400c0
:1012180038469e006f37140020ba3600d91a0400e9
:10122800365790004d3550008296340087f2de0024
:1012380033c3e2002633c700546e32005e4ab5005d
:10124800314dc500fb306100c74130006252870054
:101258002f1e6800cc2e62000a112e00fc3a5500a1
:101268002dbafb00982c6f004edc2b00eb341f00ce
:101278002b01b100612a8500c4a329004b71e50048
:101288002828b9002628f4009d6727008621a80091
:1012980026b64500e8255e000c282500587767002b
:1012a800247f8800a623af0041e52200c5a42300bf
:1012b80022a0b30061211c00709f20001bdcdc0011
:1012c8001f7bf900191f1e00ca561e00e54f930028
:1012d8001db38c00cf1c6a00820b1c00ef32470044
:1012e8001b26a000821af300cbbd19003cb8f800f9
:1012f80018e966003318de00d96d17000513a80039
:1013080016451400e2158600df1b1500b17655005e
:1013180014b1db008e136f0010c81200d51601003f
:1013280012cff00039114800a07210002b27ab0033
:101338000f668700e30ee400c21b0e0092db530029
:101348000d5ed3008b0c3500acc30b000568fb00a9
:101358000abd0800330a4900906a09009a00a200f1
:10136800089e5b00d9074500a31007007cd94700f9
:10137800063500007f055d0019b60400e626ed007d
:1013880003bf2a002403d700265b0200201d920019
:1013980001880f00c90000000000000078f0360046
:1013a800ffe0e2006dfe2900d9a4fd0041d5db0075
:1013b800fc1ad90012fca300e649fb00cbff800011
:1013c800fa842600b8f9bb005ceff80062a4260096
:1013d800f866ff005df7b7006f95f60043f7cc009d
:1013e800f5fb970004f5cb00533cf400a22c7400e5
:1013f800f36e2400acf21c003de4f1009a781c0066
:10140800f1d5d80054f0b8005f8def00310fc60059
:10141800ee2be900feed9100ef37ed004f2471004f
:10142800ec4f8900aaeb7a0020e4ea00bbeb1d0030
:10143800eafbec0057e922002692e8001799cc0055
:10144800e7c4470007e70d003442e600da5f7d0095
:10145800e511cd00b8e496007df4e3004d7330004b
:10146800e31bb0006ce2e20035a9e1008506e60066
:10147800e0e5230023e0e4008f60df00604c9e007d
:10148800de3b5b00dcdd5100be1add0081775900d0
:10149800dca8880098dba200f3d7da004aba170064
:1014a800da7ade0057d90c006298d800d846d900fd
:1014b800d7b58e001ad77b003b5cd600ff4e9e0046
:1014c800d515cb00e0d49100b123d40046046700c1
:1014d800d304c500aad29e00f5eed100e2973300ee
:1014e800d19ead0078d09f0038becf00b33a04003b
:1014f800cfa2b5004ace3900ab91cd003d1dd90031
:10150800cc790d0021ccb0007d69cb00a96fb20069
:10151800ca27e500fbc9ec00df45c900ba619000a5
:10152800c8506c00dbc76d000127c700ce227300ce
:10153800c62ed200bfc54900110dc500d7e15a001b
:10154800c4904500a9c32a003ef8c2005acd4700fe
:10155800c2d4f40097c14800b6e8c00068133a0046
:10156800c0e30d008cbf6500a7debe009be1310023
:10157800be30be0085bdcb003edabc0013652f002f
:10158800bcb0320085bb4300a9dbba0071ca320087
:10159800bad897008ab9190013e3b800d13d3c00c6
:1015a800b89b190096b71200a8f0b600cdea4b0018
:1015b800b662e300a7b568009304b50070fc61004b
:1015c800b40c2000c0b3cc00ff1eb3003c9d7e00cd
:1015d800b2e9f900deb15b001740b1001df7a100c8
:1015e800b0b39a0004b0a2000368af006c33cc001b
:1015f800ae922b0031ae9200ed96ad00e87afd0078
:10160800ac10d50064ac8300fdccab00b5f535005b
:10161800ab1ebf009faa2e005b0aaa0057cb75001d
:10162800a9061100e2a8aa002d4fa800ac22bd000f
:10163800a774f1002ba768009b9ba600ee210c0065
:10164800a66686007da53100caefa400acee620054
:10165800a434f500d6a32000df4ba300c9adc10018
:10166800a284620038a2a300feafa10076832800fe
:10167800a14df200a1a073004c1ca000319397006b
:101688009fd0c700139f9400eb909e00c1ff0e00ef
:101698009e9705008e9d5400fe0d9d0034eb8e0034
:1016a8009c70cd00109c4100a6939b00da76170031
:1016b8009b6e40009c9a2d0004229a0045c3a80006
:1016c80099e07e003099280038b9980043f042002c
:1016d8009855a800cd977f0061599700e01ce60057
:1016e8009694db007396b6009e0296005c679200a3
:1016f800959c3600239587000db594002fed470083
:1017080094a0d600db93e400ca70930004cb0600d3
:101718009306d8009d92ec00f2359200b61ccf00db
:10172800916356006991ee00a00491004efda0005f
:10173800907b6c003e906600efdc8f0001877c0098
:101748008f3a34001d8ffb00f7be8e002ed3610048
:101758008eb7c600058e7b00d3aa8d0059fa5000bb
:101768008d303c00f88cda0099a08c002f144a00c8
:101778008c05ac00f48b2f0062a08b007c374d00e9
:101788008bbb2c00fb8ab40042aa8a00317a5a002b
:101798008af5d3000b8ac30050be89005af1710044
:1017a8008977b6002689d300a0dc880025b193008c
:1017b8008821e8004b88770046058800d7ccbf0011
:1017c80087ec7b007b875e0054388700d356f60091
:1017d80086ee8300b5864f00dc7586009260370080
:1017e80086531100fa852800efbd8500a5fa82000e
:1017f800855c34004985dd009c108500b134d90032
:101808008462fc00a2847700f46d8400701d3a00a5
:1018180084d077000784120004d68300b0c2a500e4
:101828008322b4007683dc00d84883004e311c0044
:1018380083e8bd00f08214007fc682003a759d00df
:1018480082c0a00075820800024f820071992900a9
:1018580082586700058216006ce2810001a8c0006a
:10186800816d1b00a081a900c680810004aa6200c6
:1018780081c7c50045813a001a2a8100a0a70f0038
:10188800813c6e00f6804c006ede80000aa8c7001e
:1018980080af1b00b2807100c99d800080b18a00b2
:1018a800800dd40078804300316880004cc958000e
:1018b800804d9c004a806a00aa3d8000c2f3310036
:1018c8008072780027809500381e8000403416000a
:1018d80080886b000f807e00de0980002f8d050058
:1018e80080a677000280ea009d008000003000009a
:1018f800002000008000000000100000020000002e
:08190800800000000000000057
:020000040000fa
:101910000000fa000e0ea900000ea900040ea90096
:101920000e2ea900002ea900042ea900006ea90009
:10193000046ea900213a8000f08f2f000080600023
:10194000203a8800213a800000fe2f0000806000cd
:10195000203a8800213a8000f0f32f0000806000d8
:10196000203a880060042000303a880012002000ed
:1019700080072000a10920003374200080497800ee
:101980008149780082497800103a8000000178008f
:101990000200a000600420007105200023742000d4
:1019a0008049780081497800824978000000000071
:1019b000113a8000000027008080600000002100b4
:1019c000808f5000faff3a00040ea80000000000cb
:1019d000113a800000022000008060000000e0005a
:1019e000fbff3200042ea800140ea900180ea90057
:1019f000220ea9000080fa00000006000000fa0094
:101a00002143a8000119800000302000010070006f
:101a10000019880001198000f0f12f00008060009b
:101a20000060a000001988002043a8001119800060
:101a3000f0ff210000806000101988002343a900f6
:101a400011198000f0cf2f0000806000101988006d
:101a50001119800030f82f0080806000c003200042
:101a600001007000101988002203a90025e3a900d5
:101a700021198000f00f2e000080600020198800de
:101a800030c0b30024e3b70028e3a9004119800067
:101a900000fc2f0000806000b001b30040198800f6
:101aa0003303a90021a8a8000080fa000000060066
:101ab0000000fa000a21ef00b085290070088800b4
:101ac0000108a9002108a9000080fa000000060012
:101ad0000c00fa0030079800410798005207980060
:101ae00080002000000f78001a003700ce00900020
:101af00000082000008060000000e00009003a00bb
:101b0000180ea8003001200001002000a2000700ec
:101b1000180ea900f0042000010020009e0007001c
:101b200008003700180ea800f00420000100200073
:101b300099000700180ea9003001200001002000c4
:101b4000950007004e0090000000400040079800fc
:101b50001e0fe9001e0078000000e000e3ff3a00dd
:101b600080002000100798001c003700be00900085
:101b700000082000008060000000e00009003a003a
:101b8000180ea8003001200001002000820007008c
:101b9000180ea900f0042000010020007e000700bc
:101ba00008003700180ea800f004200001002000f3
:101bb00079000700180ea900300120000100200064
:101bc000750007003e0090000000400030079800bc
:101bd0001e0090000000e900100798001e00900011
:101be0000000e000e1ff3a0080002000200798009c
:101bf0001c003700de00900000082000008060001c
:101c00000000e00009003a00180ea8003001200092
:101c10000100200060000700180ea900f004200059
:101c2000010020005c00070008003700180ea80023
:101c3000f00420000100200057000700180ea90042
:101c40003001200001002000530007005e009000da
:101c500000004000500798002e0090000000e900ae
:101c6000200798002e0090000000e000e1ff3a00fd
:101c70000080fa00000006000600fa001007980035
:101c8000210798001e0090000000e00011003200c3
:101c90000000eb00000f7800090037001e007800fc
:101ca000e600b9009e00900000814000120078001c
:101cb000920090002201900085ff07001e0fe800af
:101cc0009e0078002e009000808f5000f3ff3900b6
:101cd00001003700000000000080fa00000006004c
:101ce0000a00fa0020079800310798004207980080
:101cf000c003200001002000008fbe000800370054
:101d00002e009000be0090004e01900070ff070072
:101d10000081eb008081eb001e0f41005e974900bf
:101d20001e0078009e009000e00f5000e08f5800e9
:101d3000f3ff3a00b0db240001002000160007008a
:101d40000080fa00000006001400fa00f0fe070010
:101d5000e20047002246280008000900b218780077
:101d60000000eb00000f7800040037000e80e80050
:101d700031002000c0ff07001e0fe8001e007800a1
:101d8000f30f5000f9ff3400b0db24000100200005
:081d900001000700f2ff37001b
:020000040000fa
:101d9800f03fb1000180b10006003500ee030900f4
:101da80000000000403fb1000180b100fbff3d0092
:101db8001000b000203fb00002003500008009008c
:081dc80000000000000006000d
:020000040000fa
:020000040005f5
:04570000ffff0000a7
:020000040000fa
:020000040005f5
:04572000ffff000087
:020000040000fa
:020000040005f5
:04573000f8ff00007e
:020000040000fa
:020000040005f5
:045738001bff000053
:020000040000fa
:020000040005f5
:045740009fff0000c7
:020000040000fa
:020000040005f5
:04574800ffff00005f
:020000040000fa
:020000040005f5
:04575000ffff000057
:020000040000fa
:020000040005f5
:04575800ffff00004f
:020000040000fa
:020000040005f5
:04576000ffff000047
:020000040000fa
:020000040005f5
:04576800ffff00003f
:020000040000fa
:020000040005f5
:04577000ffff000037
:020000040000fa
:020000040005f5
:04577800ffff00002f
:020000040000fa
:020000040005f5
:04578000ffff000027
:020000040000fa
:020000040005f5
:04578800ffff00001f
:00000001FF
